:020000040800F2
:10000000A82D0020290200088B1D0008E11B000814
:10001000891D00080D06000861210008000000008D
:100020000000000000000000000000005D1E00084D
:1000300071060008000000008D1D00085F1E00080A
:10004000430200084302000843020008430200087C
:10005000430200084302000843020008430200086C
:10006000430200084302000843020008430200085C
:10007000430200084302000843020008430200084C
:100080004302000843020008430200083506000846
:10009000110600081D060008290600084302000892
:1000A000430200084302000843020008430200081C
:1000B000430200084302000843020008430200080C
:1000C00043020008430200084302000843020008FC
:1000D00043020008430200084302000843020008EC
:1000E00043020008430200084302000843020008DC
:1000F00043020008430200084302000843020008CC
:1001000043020008430200084302000843020008BB
:1001100043020008430200084302000843020008AB
:10012000430200084302000843020008430200089B
:100130004302000843020008430200086506000865
:10014000410600084D060008590600084302000851
:10015000430200084302000843020008430200086B
:10016000430200084302000843020008430200085B
:100170004302000843020008430200080000000098
:10018000430200084302000800F002F800F03CF8C7
:100190000AA090E8000C82448344AAF10107DA45E2
:1001A00001D100F031F8AFF2090EBAE80F0013F0F8
:1001B000010F18BFFB1A43F0010318476825000020
:1001C00088250000103A24BF78C878C1FAD85207B1
:1001D00024BF30C830C144BF04680C6070470000C1
:1001E0000023002400250026103A28BF78C1FBD840
:1001F000520728BF30C148BF0B6070471FB502F0DF
:1002000080F91FBD10B510BD00F0EEF81146FFF7E4
:10021000F5FF02F037F800F00CF903B4FFF7F2FF36
:1002200003BC00F013F90000094880470948004763
:10023000FEE7FEE7FEE7FEE7FEE7FEE7FEE7FEE796
:10024000FEE7FEE704480549054A064B70470000F3
:10025000051F000889010008A80B0020A82D002018
:10026000A80D0020A80D002053EA020C00F06980C0
:100270002DE9F04B4FF00006002B1FBFB3FA83F5BA
:1002800003FA05F424FA05F65E4012BF1643B2FAEB
:1002900082F502FA05F4C5F120051EBF22FA05FC1D
:1002A00044EA0C04203556EA044C4FEA144418BFC3
:1002B000641C4FF000084FF00009904271EB030CF2
:1002C00039D3002919BFB1FA81F701FA07F6B0FA5C
:1002D00080F700FA07F6C7F120071EBF20FA07FCD7
:1002E00046EA0C062037B6FBF4FCA7EB0507103FE7
:1002F00007F01F0BCBF120060CFA0BFB2CFA06F6CD
:1003000044BFB3460026202FA4BF5E464FF0000B2B
:100310005BEA060C08BF4FF0010B19EB0B09ABFBB6
:10032000027C48EB0608C01B06FB02CC0BFB03CC8F
:1003300071EB0C01C1E70B46024641464846BDE859
:10034000F08B13B54FF000004FF00001AFF30080C9
:10035000BDE81C40704710B5431C02E010F8011BBB
:1003600071B18107FAD14FF0013202C88C1A8C4367
:1003700014EAC211F9D0C01A0A0603D0C01E10BD7B
:10038000C01A10BD0A0401D0801E10BD0902FCD0A5
:10039000401E10BD4FF0000200B51346944696462D
:1003A000203922BFA0E80C50A0E80C50B1F1200188
:1003B000BFF4F7AF090728BFA0E80C5048BF0CC036
:1003C0005DF804EB890028BF40F8042B08BF704794
:1003D00048BF20F8022B11F0804F18BF00F8012B06
:1003E0007047704770477047754600F02BF8AE466F
:1003F00005006946534620F00700854618B020B531
:10040000FFF720FFBDE820404FF000064FF0000747
:100410004FF000084FF0000B21F00701AC46ACE8AC
:10042000C009ACE8C009ACE8C009ACE8C0098D4619
:10043000704710B50446AFF300802046BDE8104079
:10044000FFF7EBBE00487047480B00200149182019
:10045000ABBEFEE72600020070470000094810B559
:1004600000680949884208D108A42046FFF773FFB5
:1004700081B23222204600F0FDF8BDE81040C820CD
:1004800000F09CBC8801002000480040393939390F
:100490002C4552524F525F48414E444C45525C727B
:1004A0005C6E000070B505462DED048BB0EE609AD1
:1004B000012867D805EB45004A49C0EB451001EB20
:1004C0008004E5B3FBEE080AB3EE081ADFED469AA6
:1004D00001F05AFEB0EE408A95B39FED441ADFED6D
:1004E000448AB0EE490AF0EE680A01F04DFE258319
:1004F00005EB45013B4AC1EB451194F8700002EB56
:1005000081050126B0EE409A303528B300F066FD33
:10051000E16EDFED380A411A00EE101AE066B8EE1F
:10052000400A20EE090A20EE200AD4ED1A0A30EE25
:10053000801AB4EEC81AF1EE10FA26D201E003E0F8
:1005400007E084ED1A1A2CE0F9EE040A9FED2A1A4E
:10055000BCE79FED2A1AC2E70020608329462046A7
:1005600001F016FC00280DD1606C00280AD094ED33
:10057000170A84ED190AC4ED1A8A00F02FFDE0660F
:1005800084F87060BDEC048B70BD30EEC00AB4EE30
:10059000C80AF1EE10FA02DD84ED1A0A01E084EDDA
:1005A0001A8A9FED170A668384ED0A0A9FED150AE1
:1005B0009FED151A84ED0B0AC4ED088AC4ED078A75
:1005C000D4ED1A0A94ED190A294660EE810A2046F4
:1005D00000EEA90A84ED090ABDEC048BBDE8704069
:1005E00001F0D6BB680900205C8FCA400000704350
:1005F000000000006F12833A000084420000A04314
:10060000B81E053FEC51383E35FA8E3CFEE700003F
:10061000014800F02CB9000050000020014800F013
:1006200026B9000050000020014800F020B9000069
:1006300050000020014800F01AB9000050000020CE
:10064000014800F014B9000078000020014800F0D3
:100650000EB9000078000020014800F008B9000041
:1006600078000020014800F002B900007800002066
:100670007047000070B50C460500164619D0002CD6
:1006800017D00C480C490068884205D11346224611
:100690002946084801F0A6F9084809490068884237
:1006A00007D1334622462946BDE87040034801F091
:1006B00099B970BD88010020004800404001002029
:1006C0000044004090F82020012A07D0022A05D0DB
:1006D000416A41F48021416201207047006842690B
:1006E0000A4342610020704710B5040024D000F096
:1006F00031F8124A2168914213D11149086040072C
:100700001AD54868401C48600E4800F01FFB0D4891
:1007100000F0F0FABDE8104048F20E410948FFF73A
:10072000D1BF094A914207D108490860400703D563
:1007300007480168491C016010BD000000640040CA
:100740000400002050000020006800403800002015
:100750003C000020406A70470246002092F820309A
:10076000012B01D0022B05D1106821B1D0F8100067
:1007700000F003007047C068FAE770B590F82040B9
:10078000012C05D0022C03D0416A41F4802128E0DD
:10079000046809B32469A40720D04FF4D87405680D
:1007A00004EB01142D5915F00405956005682D59C9
:1007B0001AD0ED08556005682C5904F00204D46085
:1007C0004FF4DA74056804EB01142E5906F00F0695
:1007D000082E0CD308250DE0E468DCE7416A41F4FB
:1007E00000114162012070BD6D0D1560E3E72D59C8
:1007F00005F00F05156105682D59C5F307259561AD
:1008000005682C59240C54614FF4DC72046802EB27
:100810000112A4581C700468A458240A5C7004686F
:10082000A458240C9C700468A258120EDA704FF47D
:10083000DE72046802EB0112A4581C710468A4580B
:10084000240A5C710468A458240C9C710468A258A2
:10085000120EDA71006829B1016941F020010161CD
:10086000002070BDC16841F02001C160F8E72DE9AA
:10087000F05F0546006800244669D0F80490876858
:10088000D0F80CB0D0F810A0D0F81880F10748D0FC
:10089000F90714D001218160B80703D5284600F07C
:1008A00086FA0CE0780702D54FF4006407E03807B9
:1008B00002D54FF4805402E0284600F077FAF8059C
:1008C00016D529684FF480708860B80503D528468E
:1008D00000F06FFA0CE0780502D544F4005407E00C
:1008E000380502D544F4804402E0284600F060FA5E
:1008F000F80316D529684FF480308860B80303D513
:10090000284600F058FA0CE0780302D544F400447D
:1009100007E0380302D544F4803402E0284600F0B2
:1009200049FA300707D55FEACB6004D52968102063
:1009300044F40074C86070074FF0080707D55FEAF9
:100940000B7004D52868C760284600F0CDF9B007C1
:1009500006D52868C068800702D0284600F0C5F98F
:10096000700607D55FEACA6004D52968102044F4F0
:1009700080640861B00607D55FEA0A7004D528686C
:100980000761284600F0B3F9F00606D5286800692B
:10099000800702D0284600F0ABF9B00308D55FEA23
:1009A000C96005D5296810204860284600F0A1F9E3
:1009B000F00307D55FEA097004D528684760284628
:1009C00000F0FAF9300446D55FEA497040D5F005E9
:1009D00004D55FEAC87001D044F00104B00504D525
:1009E0005FEA887001D544F00204700504D55FEA1F
:1009F000487001D544F00404300529D518F0700F73
:100A000026D008F07000402815D006DC102809D048
:100A100020280AD0302816D10AE050280ED06028AD
:100A200011D10EE044F008040DE044F010040AE097
:100A300044F0200407E044F0400404E044F0800463
:100A400001E044F480742868816921F070018161BB
:100A5000296804204860002C05D0686A2043686239
:100A60002846FFF741FEBDE8F09F70B5040003D0B3
:100A700094F8200010B104E0012070BD204600F081
:100A800081F82068016841F00101016000F0A6FAD8
:100A90000546052604E000F0A1FA401B0A2811D8FB
:100AA00020684068C007F6D02068016821F0020184
:100AB000016000F093FA05460BE000F08FFA401B4E
:100AC0000A2806D9606A40F40030606284F8206029
:100AD000D2E7206840688007EFD4207E0128206894
:100AE00001683DD021F080010160607E012820680E
:100AF000016838D021F040010160A07E0128206803
:100B0000016833D021F020010160E07E01282068D7
:100B100001682ED041F010010160207F012820687B
:100B2000016829D021F008010160607F0128206858
:100B3000016824D021F004010160D4E902010843D6
:100B4000D4E90412114308436168491E084321682F
:100B5000C86100206062012084F82000002070BD80
:100B600041F08001C0E741F04001C5E741F02001BC
:100B7000CAE721F01001CFE741F00801D4E741F0C6
:100B80000401D9E72DE9F04387B0044614216846F3
:100B9000FFF700FC504B5148DFF838811968D4F852
:100BA00000C04E4A022503260927DFF83491103091
:100BB0000024491CC4453CD11960012907D10168B2
:100BC00041F000710160006800F00070059010684D
:100BD00040F002001060106802AB00F002000590C7
:100BE0004FF44070CDE9000583E8D00069464846DF
:100BF00000F0F6F800221146132000F05DFA1320F1
:100C000000F04CFA00221146142000F055FA14208E
:100C100000F044FA00221146152000F04DFA15208C
:100C200000F03CFA00221146162000F045FA16208A
:100C30004AE0DFF8B080C44548D1D0F800C04CF09D
:100C4000806CC0F800C0D0F800C001290CF0806CA6
:100C5000CDF814C0196007D1016841F0007101603E
:100C6000006800F000700590106840F0020010600D
:100C7000106802AB00F0020005906020CDE900058D
:100C800083E8D0006946484600F0AAF800221146E1
:100C90003F2000F011FA3F2000F000FA0022114638
:100CA000402000F009FA402000F0F8F90022114637
:100CB000412000F001FA412000F0F0F90022114635
:100CC000422000F0F9F9422000F0E8F907B0BDE851
:100CD000F083000000640040000000203038024033
:100CE0000004024000680040704701F0FBB9704703
:100CF0007047704770B5044690F82000012804D072
:100D0000606A40F40020606218E0022084F820004D
:100D10002068016821F00101016000F05FF90546DB
:100D20000EE000BF00F05AF9401B0A2808D9606A9B
:100D300040F400306062052084F82000012070BD7E
:100D400020684068C007EDD1606270BD70B5044690
:100D500090F82000022804D0606A40F4801060629D
:100D600014E02068016841F00101016000F036F9EB
:100D700005460DE000F032F9401B0A2808D9606AE8
:100D800040F400306062052084F82000012070BD2E
:100D900020684068C007EDD02068016821F002019A
:100DA0000160012084F82000002070BD704770476A
:100DB00070477047704770477047000070B5044631
:100DC00000F00CF90546601C02D004480078044489
:100DD00000F004F9401BA042FAD370BD400000208F
:100DE0002DE9F84FDFF8BCA10022012503264FF0C2
:100DF0000F090AF1040BAAF1040E00BF0B6805FAF3
:100E000002F42340A34270D10F7907F00307012FAA
:100E100001D0022F16D187684FEA420806FA08FC73
:100E200027EA0C07D1F80CC00CFA08FC4CEA070CB6
:100E3000C0F808C04768A7430C79C4F30014944075
:100E40003C4344600C79E443A4070AD0C4684FEAE9
:100E5000420C06FA0CF7BC438F6807FA0CF72743DD
:100E6000C7600C7904F00304022C12D1D40800EB03
:100E7000840CDCF820405707FF0E09FA07F824EA33
:100E80000804D1F8108008FA07F848EA0408CCF8FA
:100E9000208004684FEA420C06FA0CF7BC430F7935
:100EA00007F0030707FA0CF7274307604C6814F4B0
:100EB000403F70D03C4C276847F480472760246847
:100EC00022F0030704F480440094384C07EB040C30
:100ED000DCF8084897074FEA177809FA08F7BC4387
:100EE000334FB84202D1002724E054E0314FB842DA
:100EF00001D101271EE0304FB84201D1022719E08D
:100F00002E4FB84201D1032714E02D4FB84201D132
:100F100004270FE02B4FB84201D105270AE02A4FE2
:100F2000B84201D1062705E0284FB84201D1072772
:100F300000E0082707FA08F72743CCF80878DAF822
:100F400000405746D1F804C09C435FEACC2C00D542
:100F50001C433C60DBF800405F46D1F804C09C4372
:100F60005FEA8C2C00D51C433C60DEF800407746DD
:100F7000D1F804C09C435FEA8C3C00D51C433C6024
:100F8000084F083F3C68D1F804C09C435FEACC3C62
:100F900000D51C433C60521C102AFFF42FAFBDE863
:100FA000F88F0000083C0140443802400030014006
:100FB000000002400004024000080240000C024011
:100FC000001002400014024000180240001C0240C1
:100FD0000AB1816170470904FBE70000014880689D
:100FE00070470000400000200248816802781144E8
:100FF00081607047400000200B4810B5016841F443
:1010000000710160016841F480610160016841F490
:1010100080710160032000F06FF80F2000F006F8E7
:1010200000F024F8002010BD003C024070B50D4DCA
:1010300004464FF47A712878B1FBF0F00A49096848
:10104000B1FBF0F000F09CFB48B9102C07D2002255
:101050002146501E00F030F800206C6070BD012069
:1010600070BD0000400000204C0000200A4808B578
:10107000016841F480410160006800F48040009004
:101080000548001F016841F080510160006800F0D0
:101090008050009008BD000044380240002809DB61
:1010A00000F01F02012191404009800000F1E02082
:1010B000C0F8001170470000F0B40E4B1B680C46DE
:1010C000C3F30223C3F10705042D00D90425191D1C
:1010D000072901D2002300E0DB1E012606FA05F1F4
:1010E000491E214099409E40761E16403143F0BC77
:1010F00001F037B80CED00E0064900F0070208687F
:101100004FF6FF03184040EA0220034A10430860EC
:10111000704700000CED00E00000FA052DE9F047F3
:101120000E46050065D0DFF81481D8F80000F7B24C
:1011300000F00700B04207D288F80070D8F800002D
:1011400000F00700B04254D128683D4C810712D509
:10115000400703D5206840F4E0502060287800075D
:1011600003D5206840F4604020602068A96820F022
:10117000F000084320602878C0072DD03049686807
:101180000839012812D0022813D0032811D0096889
:10119000890700292DDA216821F00301014321602C
:1011A000FFF71CFF814641F2883A0EE00968890387
:1011B000EFE709688901ECE7FFF710FFA0EB0901F1
:1011C000514502D90320BDE8F0872068696800F026
:1011D0000C00B0EB810FEFD1D8F80010404601F0C1
:1011E0000701B14207D90770006800F00700B0425C
:1011F00001D00120E7E72878400705D52068E96895
:1012000020F4E050084320602878000706D52068C5
:10121000296920F4604040EAC100206000F038F8FD
:101220002168084AC1F30311515CC84006490860AF
:1012300006480068FFF7FAFE0020C4E7003C0240C1
:10124000083802400C2700084C0000204400002011
:101250000448054900680968044AC1F38221515CC9
:10126000C84070474C000020083802401C27000886
:101270000448054900680968044AC1F34231515CD9
:10128000C84070474C000020083802401C27000866
:10129000154810B5006810F00C02144813D0411026
:1012A000042A0FD0082A0ED10F4C241F226823686D
:1012B00002F03F025B0207D52068C0F38810A0FB54
:1012C000010106E0084610BD2168C1F38811A1FBA9
:1012D00000010023FEF7C8FF2168C1F30141491C4A
:1012E0004900B0FBF1F010BD083802400024F400C2
:1012F0002DE9F84F04006ED02078DFF84C93C0073A
:10130000A9F104054AD009F104000168C1F3810183
:10131000012908D00068C0F3810002280AD1D9F859
:101320000000400206D52868800337D56068002891
:10133000E1D033E06068B0F5803F10D0B0F5A02F69
:10134000286810D020F480302860286820F480209D
:1013500028606068A8B1FFF741FE06460DE02868E6
:1013600040F48030F4E740F480202860F7E700BFC5
:10137000FFF734FE801B642873D828688003F7D5F4
:101380000CE0FFF72BFE064605E000BFFFF726FE48
:10139000801B6428F0D828688003F7D42078DFF811
:1013A000AC8280074FF0000A3ED5A748001D0168B7
:1013B00011F00C0F08D00068C0F3810002280BD197
:1013C000D9F80000400207D42868800716D5E068E5
:1013D000012800D112E033E1E068B8B10120C8F87B
:1013E0000000FFF7FBFD064605E000BFFFF7F6FD36
:1013F000801B0228C0D828688007F7D52868216993
:1014000020F0F80040EAC10028600DE0C8F800A014
:10141000FFF7E4FD064604E0FFF7E0FD801B02282D
:101420001FD828688007F7D42078000722D5864F78
:1014300087486169703771B101210160FFF7CEFD06
:10144000064604E0FFF7CAFD801B022809D8386869
:101450008007F7D50EE0C0F800A0FFF7BFFD0646F5
:1014600005E082E0FFF7BAFD801B02287DD83868CE
:101470008007F7D42078400768D5DFF8CCB1002783
:101480000BF13C0BDBF80000C0000BD4DBF80010C4
:1014900041F08051CBF80010DBF80000012700F08C
:1014A000805000906B4E3068C00510D4306840F416
:1014B00080703060FFF792FD009005E0FFF78EFD31
:1014C0000099401A022850D83068C005F6D55E4E03
:1014D000A0686C3601280FD00528306810D020F0A5
:1014E00001003060306820F004003060A068B8B1BE
:1014F000FFF774FD00900FE0306840F00100F4E762
:1015000040F004003060F7E7FFF768FD0099411AEA
:1015100041F28830814266D830688007F4D50EE009
:10152000FFF75CFD009007E0FFF758FD0099411AB6
:1015300041F28830814256D830688007F4D42FB108
:10154000DBF8001021F08051CBF80010A069C8B37F
:101550003D49091D0968C1F3810102294AD00228C9
:10156000504607D0C8F8600000E03CE0FFF736FDC9
:1015700004463BE04746C8F86000FFF72FFD0646EB
:1015800005E000BFFFF72AFD801B02282BD8286842
:101590008001F7D4D4E907010843A16A2E4A49081B
:1015A00002EB0141626A41EA8211084394F82C106F
:1015B00040EA0161C9F8001001203866FFF70EFD0E
:1015C000044606E03EE000BFFFF708FD001B0228CE
:1015D00009D828688001F7D534E000BFFFF7FEFC8A
:1015E000001B022802D90320BDE8F88F286880017B
:1015F000F4D427E00128F7D0D9F80000E26900F41C
:10160000800191421CD1226A00F03F01914217D122
:1016100047F6C071626A0140B1EB821F10D1A26A25
:101620004FF0FF3300F4403103EB5202B1EB024FB5
:1016300006D194F82C1000F07060B0EB016F01D06F
:101640000120D1E70020CFE70438024000004742E4
:10165000800E4742007000400000FFFF70B504009C
:1016600009D0606A002540B125616561A56294F8E2
:10167000510040B10CE0012070BD6068B0F5827F80
:10168000F4D0E561F2E784F85050204600F044F8C9
:10169000022084F851002068016821F040010160B7
:1016A000A088218900F4827001F404410843A189D3
:1016B00001F400610843217C01F002010843217D0F
:1016C00001F001010843218B01F400710843217FDF
:1016D00001F03801084394F8201001F0800108431C
:1016E000218D01F40051084321680860A06904219C
:1016F00001EA104094F8241001F010010843216819
:1017000048602068C16921F40061C16165650120FC
:1017100084F85100002070BD10B586B00446142135
:101720006846FEF737FE13492068884220D11248E8
:101730000021026842F480520260006800F4805088
:1017400005900D481438026842F0010202600068FA
:1017500000F001000590E02000900220CDE9010199
:10176000032003900520049069460448FFF738FBE6
:1017700006B010BD00300140443802400000024075
:1017800010B5401EB0F1807F01D3012010BD4FF095
:10179000E02460610F21601700F0E3FC0020A061ED
:1017A00007202061002010BD2DE9F84F044690F875
:1017B0004200DDF828901F4615460E46202802D02C
:1017C0000220BDE8F88FF6B1EDB14FF00008C4F883
:1017D0004480222184F8421001212163C4F834801E
:1017E000FFF7FCFBA5858246E585A0684FF4805B8A
:1017F000584501D1206940B135460026A7F8008040
:101800004FF020083AE00120DBE70025F6E72068EA
:101810000168C9060AD5016841680091398829B173
:101820000220606384F842800020CAE701688906CC
:1018300018D525B1A168594528D031B107E04068D5
:10184000C0F3080026F8020B06E02169F1B14068F8
:1018500000F07F0005F8010B3888401C3880E08DCF
:10186000401EE085B9F1FF3F08D0FFF7B7FBA0EBC2
:101870000A0149450CD8B9F1000F09D0E08D0028C4
:10188000C5D1A08DE18D401A3880CBE74068E1E7F3
:1018900084F84280032094E770B5040004D094F8E3
:1018A0004100002510B106E0012070BD84F84050D1
:1018B000204600F023F8242084F841002068C16805
:1018C00021F40051C160204600F04CFB2068016902
:1018D00021F4904101612068416921F02A014161B0
:1018E0002068C16841F40051C1606564202084F81B
:1018F000410084F842006563002070BDF0B587B0F8
:10190000044614216846FEF745FD304B2768002247
:101910002F490224032507262E489F4219D12C4B1C
:1019200014331F6847F010071F601B6803F0100393
:1019300005930B6843F001030B60096802AB01F0EB
:10194000010105916902CDE9001483E8640069464C
:101950001AE01F4BDFF880C01033674518D11F68AD
:1019600047F400371F601B6803F4003305930B68CE
:1019700043F001030B60096801F0010105910C219E
:10198000CDE9001469461CE0FFF72AFA07B0F0BD64
:1019900012488742FAD1186840F48020186018680D
:1019A00000F480200590086840F002000860086894
:1019B000694600F0020005904FF44060CDE9000454
:1019C000074802AF87E86400DEE70000001001402E
:1019D000303802400000024000440040004800400F
:1019E000000402402DE9F843044690F8410098466F
:1019F00016460D46202802D00220BDE8F88385B1A6
:101A00007EB100206064212084F84100FFF7E6FAEF
:101A1000A6848146E684A0682027B0F5805F02D0C6
:101A200003E00120E9E7206910B12E4600250EE011
:101A300000260CE08021204600F01AFBA8B9C6B1B0
:101A400016F8010B21684860E08C401EE084E08CB1
:101A50004B464FF00002CDF800800028EAD14FF04D
:101A60004001204600F004FB40B184F8417003209F
:101A7000C3E735F8020BC0F30800E3E784F84170D0
:101A80000020BAE770B516460C00054627D0082E90
:101A900025D30921012000F074FBA84206D132466B
:101AA0002146BDE87040012000F01EB80121084623
:101AB00000F067FBA84212D1204600F01DFD084946
:101AC0004860084920794870891D60794870891DEF
:101AD00001204870FFF782FA01491831486070BD53
:101AE000F80A00202600002070B50D46044606289E
:101AF0001ED2002D1CD0082A1AD3084600F0FCFC88
:101B000000F0BCFB0B4804EB440100EBC106281DB0
:101B100086ED000A00F0F0FC00F0B0FB064986ED0F
:101B2000010A01200855FFF759FA044941F8240039
:101B300070BD0000500A002020000020E00A0020B4
:101B40002DE9F0411E4614000D46074621D0022E15
:101B50001FD3FFF743FA204902460F611F480123B4
:101B60007D2D18D07C2D16D0082E12D37F2D1FD09E
:101B7000E32D0ED165886DBA0581A5886DBA4581C2
:101B8000E48864BA8481C373426182618868401CBE
:101B90008860BDE8F081248864BA04800024448011
:101BA0008480C4800481448184818373C4730CE085
:101BB00025886DBA058065886DBA4580A5886DBA9F
:101BC0008580E48864BAC48083730377026182618C
:101BD0004868401C4860DCE70C000020280B00200F
:101BE000FEE700000F4810B50D4901600321416078
:101BF00000214FF4E0228160C0E903124FF480021B
:101C000042610176012242768176C2760177417780
:101C1000FEF72BFF002802D0FEF720FCFCE710BDEA
:101C200000640040500000200F4810B50D490160CD
:101C30000321416000214FF4E0228160C0E90312DA
:101C40004FF4800242610176012242768176C276AB
:101C500001774177FEF709FF002802D0FEF7FEFB6F
:101C6000FCE710BD00680040780000202DE9F0433B
:101C700087B014216846FEF78DFB2E4800240168CA
:101C800041F010010160016801F010010591016847
:101C900041F080010160016801F080010591016857
:101CA00041F001010160016801F001010591016845
:101CB00041F00201016000681F4F00F00200059032
:101CC000012214213846FFF783F9DFF870800122E2
:101CD00003214046FFF77CF9DFF8649000220221DF
:101CE0004846FFF775F9142001250326CDE90005C4
:101CF000CDE9024669463846FFF772F82020CDE963
:101D00000004694638460294FFF76AF8CDE9006599
:101D1000CDE9024669464046FFF762F8022000908E
:101D2000CDE90154694648460394FFF759F807B0D6
:101D3000BDE8F0833038024000100240000002404D
:101D4000000402400F4810B50D4901604FF4827144
:101D5000416000218160C1604FF400720161C0E9FF
:101D600005123822C0E90721416281620A21C1625D
:101D7000FFF774FC002802D0FEF770FBFCE710BDF3
:101D800000300140A0000020FEE7FEE770470000A1
:101D90002DE9FC4106004FF000000D46ADF80400AF
:101DA00055D0002D53D0304600F0D2FA294C6FF0B8
:101DB0000F0720680760206800E041680168C94398
:101DC0008906FAD501684068DFF88C80009001220E
:101DD00002214046FFF7FCF80323112231461D483B
:101DE000FFF700FEFFF7FAF806460CE0FFF7F6F8FB
:101DF000801B032807D9002202214046FFF7E8F89C
:101E00000320BDE8FC8120680068C0434006EDD493
:101E1000002202214046FFF7DBF8206807602068B7
:101E200040680320009001AB102229460948FFF7C3
:101E3000BBFC0028E5D1BDF80400102807D12846D6
:101E400000F0C4F918B1102028610020D9E7012062
:101E5000D7E70000F8000020000402407047FFF7B9
:101E6000C3B8000030B593B030216846FEF792FA4F
:101E700014210CA8FEF78EFA20480025016841F0D5
:101E800080510160006800F0805011901C4801688A
:101E900041F4804101600068022400F48040119008
:101EA00001200090000401908001CDE90640082047
:101EB00008904FF4A870CDE9090404200B906846FF
:101EC000FFF716FA18B100BFFEF7C8FAFCE70CA935
:101ED0000F2081E831004FF4A0500F904FF4805054
:101EE000109005210CA8FFF719F9002803D000BFB6
:101EF000FEF7B4FAFCE713B030BD000040380240F2
:101F0000007000400248016841F4700101607047B0
:101F100088ED00E001680C3151E8002F22F4907246
:101F200041E80023002BF5D10168143151E8002F5E
:101F300022F0010241E80023002BF5D1016B0129B9
:101F400009D101680C3151E8002F22F0100241E85C
:101F50000023002BF5D1202180F8421000210163DD
:101F60007047000070B5044600680169E26821F41A
:101F70004051114301612169A068E2690843616928
:101F8000114308432168CA6849F20C639A4302432B
:101F9000CA6020684169A26921F44071114341611E
:101FA00031492068884202D03049884202D1FFF787
:101FB0005FF901E0FFF74CF9E2690023192164257C
:101FC0003226B2F5004F626828D0A0FB0101930FC2
:101FD0009200FEF749F90146B0FBF5F06FF01802E8
:101FE000504301EB800006EB0010B0FBF5F000F071
:101FF000F002B1FBF5F002EB0012B1FBF5F06FF06F
:102000001803584301EB800006EB0010B0FBF5F01D
:1020100000F00F0021681044886070BDA0FB010132
:1020200092185B41FEF720F90146B0FBF5F0020182
:10203000B1FBF5F06FF01803584301EB800006EB9D
:10204000C000B0FBF5F000F0F80002EB4002B1FB7D
:10205000F5F0584301EB800006EBC000B0FBF5F053
:1020600000F00700D6E70000001001400014014016
:102070002DE9F843984617460D460446089E24E08D
:10208000701C22D0FEF7AAFFA0EB0800B0421AD8BD
:10209000CEB12068C168490717D5802D15D0402DD5
:1020A00013D00168C94309070FD4016800254068AF
:1020B00000902046FFF72EFF0820606484F840500F
:1020C0000120BDE8F8830320FBE72068006835EABB
:1020D000000004D00020B842D2D00020F1E7012057
:1020E000F9E7000010B58AB004004FF0000000903E
:1020F00001902DD026E06B4602AA00212046FEF773
:102100003CFB002824D10498E0B90598D0B91149C6
:102110002068884206D106986946C2B20298FFF745
:10212000B1FC0FE00C4988420CD10C480168491CF5
:1021300001600299C16006986A46C3B20220029902
:10214000FFF7FEFC00212046FEF706FB0028D2D157
:102150000AB010BD00640040006800400C00002080
:10216000FEE70907090E002804DB00F1E02080F8F3
:102170000014704700F00F0000F1E02080F8141DFB
:10218000704741EA40107047B4EEE00AF1EE10FAF1
:1021900002D2B0EE600A7047B4EEC10AF1EE10FA56
:1021A000F9DDB0EE410A704710B5074C08E000BFFA
:1021B00011F8013B4340DBB234F8133083EA1020BE
:1021C000521EF5D210BD00000C25000810B5040009
:1021D00009D001460E220020FFF7E6FFE189884280
:1021E00003D000206061002010BDA07800F00F0136
:1021F0002176C0F30210607694F90B00E061207B39
:1022000000F0070084F82000B4F9050000EE100A81
:10221000F8EEC00A9FED160A20EE801ADFED150ACF
:1022200021EE201A84ED0A1AB4F9030001EE100A17
:10223000B8EEC11A21EE000A84ED090AD4F80700AD
:1022400000EE100AB8EEC00A20EE200ADFED0A0AFE
:1022500020EE200A84ED0B0AA089C0F3CB0000EE2B
:10226000100A0120B8EE400A84ED0C0A606110BD2E
:102270000000803BF90FC9400000003800EE100A52
:1022800070470000FEF7B8FEFFF7ECFDFFF7EEFC2D
:102290002B482A49002401602A49C0E901140C2571
:1022A000C460C0E904454FF40041C0E90641FFF7AE
:1022B000F3FA10B1FEF7D2F8FCE721482249483082
:1022C0004FF4E1360160C0E90164C460C0E904452F
:1022D0008461C461FFF7E0FA18B100BFFEF7BEF8F1
:1022E000FCE71748194990300160C0E90164C460F7
:1022F000C0E904458461C461FFF7CEFA18B100BF9C
:10230000FEF7ACF8FCE7FFF76DFCFFF78DFCFFF77D
:1023100019FD4FF47A7400BFF1EE040AB3EE0E0A11
:102320000120FEF7BFF8F1EE040AB2EE040A002025
:10233000FEF7B8F82046FEF741FDEDE7001001403A
:10234000F800002000093D00004400400048004023
:1023500010B5040014D011206061FE202070EE2022
:10236000607094ED0A0ADFED510A51489FED511A51
:10237000B5EEC00AF1EE10FA05D2C4ED0A0A08E083
:102380004FF0FF3010BD10EE101A814201DD84EDD8
:102390000A1A94ED0B0AB5EEC00AF1EE10FA02D259
:1023A000C4ED0B0A05E010EE101A814201DD84ED48
:1023B0000B1A4149E069884202D99FED400A04E0C6
:1023C0003F49884203DD9FED3F0A84ED070A3E49FD
:1023D000206A884202D99FED3D0A04E03C498842C8
:1023E00003DD9FED3C0A84ED080A3B49606A8842A0
:1023F00002D99FED3A0A04E03949884203DD9FED96
:10240000390A84ED090A217EA0789FED371A61F31D
:102410000300A17E0F2261F30610A07094ED0A0A5A
:102420002146C0EE010A9FED310A60EE800AFDEE02
:10243000E00A10EE900AA4F80B00D4ED0B0AC0EEEF
:10244000811A61EE800AFDEEE00A10EE900ADFEDDF
:10245000280AA4F80D00D4ED091A81EEA01A21EE85
:10246000000ABDEEC00A10EE100AC4F8070094ED91
:10247000081A81EE200ADFED1F0A20EE200ABDEEC9
:10248000C00A10EE100AA4F8050094ED070A20EE29
:10249000200ABDEEC00A10EE100AA4F803000020C6
:1024A000FFF782FEA4F80F00002010BD000000001E
:1024B000C1CACC41C1CACC41E1FAFFC2E1FAFFC2B4
:1024C000E1FAFF42E1FAFF42000049C4000049C4BA
:1024D0000000494400004944C00FC9C8C00FC9C822
:1024E000C00FC948C00FC948CDCCCC41000000473F
:1024F000F90FC94000008043C178006861F31F6094
:1025000070474FF04070E1EE100A704700008911EB
:1025100012239B322446AD573665BF74488CC19D4B
:102520005AAFD3BE6CCAE5DB7EE9F7F8811008012B
:1025300093331A22A5562C47B7753E64C99C408D2B
:10254000DBBF52AEEDDA64CBFFF976E802218B30C7
:10255000100299132667AF763444BD554AADC3BC0B
:10256000588ED19F6EEBE7FA7CC8F5D983310A20EB
:1025700091121803A7772E66B5543C45CBBD42ACEB
:10258000D99E508FEFFB66EAFDD874C904428D5383
:1025900016619F702004A9153227BB364CCEC5DFCB
:1025A0005EEDD7FC6888E1997AABF3BA85520C43AB
:1025B00097711E60A1142805B3373A26CDDE44CFAB
:1025C000DFFD56ECE9986089FBBB72AA06638F7247
:1025D00014409D512225AB343006B9174EEFC7FE8B
:1025E0005CCCD5DD6AA9E3B8788AF19B87730E626B
:1025F00095501C41A3352A24B1163807CFFF46EE6B
:10260000DDDC54CDEBB962A8F99A708B0884819512
:102610001AA793B62CC2A5D33EE1B7F04008C9195A
:10262000522BDB3A644EED5F766DFF7C899400851A
:102630009BB712A6ADD224C3BFF136E0C11848093A
:10264000D33B5A2AE55E6C4FF77D7E6C0AA583B4B6
:10265000188691972EE3A7F23CC0B5D14229CB381A
:10266000500AD91B666FEF7E744CFD5D8BB502A4DA
:1026700099961087AFF326E2BDD034C1C3394A28FA
:10268000D11A580BE77F6E6EF55C7C4D0CC685D772
:102690001EE597F42880A1913AA3B3B2444ACD5BDA
:1026A0005669DF78600CE91D722FFB3E8DD604C79A
:1026B0009FF516E4A9902081BBB332A2C55A4C4BBA
:1026C000D7795E68E11C680DF33F7A2E0EE787F636
:1026D0001CC495D52AA1A3B03882B193466BCF7A9A
:1026E0005448DD59622DEB3C700EF91F8FF706E65A
:1026F0009DD414C5ABB122A0B9923083C77B4E6A7A
:10270000D5585C49E33D6A2CF11E780F00000000AB
:102710000000000001020304060708090000000091
:1027200001020304442700080000002050000000BC
:10273000C40100089427000850000020582D000014
:10274000E0010008000000000000000000000000A0
:102750000000000000000000000000000000000079
:102760000000000000000000000000000000000069
:102770000000000000000000000000000000000059
:102780000000000001000000100000000000000038
:042790000024F4002D
:040000050800018965
:00000001FF
