:020000040800F2
:10000000802D0020D5020008BF4F000839470008A6
:10001000BD4F0008952A0008A55B000800000000FD
:10002000000000000000000000000000FD56000875
:100030000B2B00080000000005550008FF560008C3
:10004000EF020008EF020008EF020008EF020008CC
:10005000EF020008EF020008EF020008EF020008BC
:10006000EF020008EF020008EF020008EF020008AC
:10007000EF020008EF020008EF020008EF0200089C
:10008000EF020008EF020008EF020008BD2A000896
:10009000992A0008A52A0008B12A0008EF020008E2
:1000A000EF020008EF020008EF020008EF0200086C
:1000B000EF020008EF020008EF020008EF0200085C
:1000C000EF020008EF020008EF020008EF0200084C
:1000D000EF020008EF020008EF020008EF0200083C
:1000E000EF020008EF020008EF020008EF0200082C
:1000F000EF020008EF020008EF020008EF0200081C
:10010000EF020008EF020008EF020008EF0200080B
:10011000EF020008EF020008EF020008EF020008FB
:10012000EF020008EF020008EF020008EF020008EB
:10013000EF020008EF020008EF020008ED2A0008B5
:10014000C92A0008D52A0008E12A0008EF020008A1
:10015000EF020008EF020008EF020008EF020008BB
:10016000EF020008EF020008EF020008EF020008AB
:10017000EF020008EF020008EF0200080000000094
:10018000EF020008EF02000800F002F800F092F819
:100190000AA090E8000C82448344AAF10107DA45E2
:1001A00001D100F087F8AFF2090EBAE80F0013F0A2
:1001B000010F18BFFB1A43F001031847F86D000048
:1001C000186E0000103A24BF78C878C1FAD85207D8
:1001D00024BF30C830C144BF04680C6070470000C1
:1001E0000023002400250026103A28BF78C1FBD840
:1001F000520728BF30C148BF0B6070476E2900F01E
:10020000B283702900F0FD84662906F0AA8365296F
:1002100006F0A783672906F0A483612906F0A3836B
:1002200003681B0A28BF41F08001692900F0208182
:10023000642900F01D81752900F01A816F2900F0F2
:100240008A84782900F0C984E92900F02584E4290A
:1002500000F02284F52900F01F84EF2900F0878444
:10026000F82900F0C8840368DB0928BF41F0800149
:10027000632901F0AD80732901F0B280E32901F018
:10028000BD80F32901F0C280002070471FB506F041
:1002900063FB01F00DF904000020002106F046FB8D
:1002A000401C60600020002106F02AFBE0601FBDBA
:1002B00010B510BD01F0CEF81146FFF7E7FF06F0CC
:1002C00015FA01F0ABF903B4FFF7F2FF03BC01F03C
:1002D000F3F900000948804709480047FEE7FEE7B8
:1002E000FEE7FEE7FEE7FEE7FEE7FEE7FEE7FEE7E6
:1002F00004480549054A064B704700004D58000860
:1003000089010008800B0020802D0020800D002036
:10031000800D002053EA020C00F069802DE9F04BBB
:100320004FF00006002B1FBFB3FA83F503FA05F464
:1003300024FA05F65E4012BF1643B2FA82F502FABD
:1003400005F4C5F120051EBF22FA05FC44EA0C04A1
:10035000203556EA044C4FEA144418BF641C4FF091
:1003600000084FF00009904271EB030C39D30029CB
:1003700019BFB1FA81F701FA07F6B0FA80F700FA6F
:1003800007F6C7F120071EBF20FA07FC46EA0C0655
:100390002037B6FBF4FCA7EB0507103F07F01F0B57
:1003A000CBF120060CFA0BFB2CFA06F644BFB34641
:1003B0000026202FA4BF5E464FF0000B5BEA060C20
:1003C00008BF4FF0010B19EB0B09ABFB027C48EBAC
:1003D0000608C01B06FB02CC0BFB03CC71EB0C0127
:1003E000C1E70B46024641464846BDE8F08B13B5CF
:1003F0004FF000004FF00001AFF30080BDE81C405B
:10040000704700007CB51D4616460C00009001D0D8
:100410002044401E074B7B442A46694601903046E3
:1004200000F0BBFA05461CB10020694600F0C8FA8E
:1004300028467CBDB10500000FB47CB50C0009AAAC
:10044000009001D02044401E084B7B446946019037
:10045000089800F0A2FA05461CB10020694600F099
:10046000AFFA28467CBC5DF814FB00007D05000057
:100470002DE9F0410646002410687529314616A57D
:1004800010D000F0DCF9002802DA404213A507E0A2
:1004900031688A0701D512A502E0490704D511A5E4
:1004A000012401E000F0D4F900210A2206F124071A
:1004B00009E0B0FBF2FCB0FBF2F302FB1C003030B1
:1004C00078541846491C0028F3D123462A46304662
:1004D000BDE8F04100F0EEB9000000002D00000082
:1004E0002B000000200000002DE9F05F8946044643
:1004F0004FF0000ADFF874B1FB44C0F820A020469A
:10050000E1688847002874D0252806D0D4E9012165
:100510009047206A401C2062F1E700265F46204693
:10052000E16888472028054607DB312D05D2781978
:1005300010F8200C08B10643F1E7B00701D526F00A
:100540000406C4F81CA00027C4F818A02A2D09D05E
:10055000284605F0DDFC38B304EB8708303DC8F8C9
:10056000185019E059F8041B204604EB87029161EA
:10057000E1688847012F054618D1E069002820DA94
:1005800026F020061DE0D8F8180000EB800005EBEF
:1005900040003038C8F818002046E1688847054612
:1005A00005F0B6FC0028EED1012F0AD02E2D08D17F
:1005B0002046E16888477F1C0546022F46F020064A
:1005C000C4DBA069002803DA404246F00106A061BE
:1005D000F00701D026F010066C2D0BD0682D09D045
:1005E0004C2D39D06A2D35D0742D35D07A2D33D09D
:1005F00016E038E0E1682F4620468847B8420546B5
:1006000009D16C2F26D04FF48060E1680643204664
:100610008847054604E06C2F1AD04FF480700643DB
:100620000DB3A5F14100192802D8203546F4006623
:100630004A462946204626604E46FFF7DFFD80B138
:1006400001280BD0F61D26F0070000F1080956E737
:100650004020E4E78020D8E70020D6E706F104092F
:100660004DE7284652E7206ABDE8F09F2868000061
:1006700010B5431C02E010F8011B71B18107FAD1DB
:100680004FF0013202C88C1A8C4314EAC211F9D01F
:10069000C01A0A0603D0C01E10BDC01A10BD0A043D
:1006A00001D0801E10BD0902FCD0401E10BD032ADF
:1006B00040F2308010F0030C00F0158011F8013B7F
:1006C000BCF1020F624498BF11F801CB00F8013B66
:1006D00038BF11F8013BA2F1040298BF00F801CB2A
:1006E00038BF00F8013B11F0030300F02580083A01
:1006F000C0F0088051F8043B083A51F804CBA0E858
:100700000810F5E7121D5CBF51F8043B40F8043BAC
:10071000AFF30080D20724BF11F8013B11F801CBE1
:1007200048BF11F8012B24BF00F8013B00F801CBB2
:1007300048BF00F8012B704710B5203AC0F00B807D
:10074000B1E81850203AA0E81850B1E81850A0E8D5
:100750001850BFF4F5AF5FEA027C24BFB1E818502F
:10076000A0E8185044BF18C918C0BDE810405FEA9F
:10077000827C24BF51F8043B40F8043B08BF70471B
:10078000D20728BF31F8023B48BF11F8012B28BF20
:1007900020F8023B48BF00F8012B70474FF00002E1
:1007A00000B5134694469646203922BFA0E80C5067
:1007B000A0E80C50B1F12001BFF4F7AF090728BF42
:1007C000A0E80C5048BF0CC05DF804EB890028BFBE
:1007D00040F8042B08BF704748BF20F8022B11F0E7
:1007E000804F18BF00F8012B704770477047704763
:1007F00070B5044685690068C10601D5302600E061
:100800002026C00707D070BDD4E9012130469047AB
:10081000206A401C20626D1EF6D570BD70B504467E
:1008200085690078C00707D170BDD4E90121202077
:100830009047206A401C20626D1EF6D570BD096885
:100840004A0501D540B27047C905FCD500B27047D2
:1008500009684A0501D5C0B27047C905FCD580B208
:10086000704770B50C460546012A05D028788006E9
:1008700000D5EA69002302E0012305E05B1C9342F6
:1008800002D2E05C0028F9D1A869E618C01AA86174
:10089000286A184428622846FFF7AAFF04E0D5E931
:1008A000012114F8010B9047B442F8D32846FFF712
:1008B000B5FF70BD2DE9F0470D46994692460446B6
:1008C00000F124080168880604D5E06921F01001D0
:1008D000216000E00120A84201DD471B00E0002765
:1008E000A1697A1902EB0900081AA0612078C006F4
:1008F00002D42046FFF77CFF002608E0D4E901215E
:100900001AF806009047206A401C761C20624E456B
:10091000F4DB2078C0060AD52046FFF769FF06E021
:10092000D4E9012130209047206A401C2062381E03
:10093000A7F10107F4DC07E0D4E9012118F805006C
:100940009047206A401C2062281EA5F10105F3DCB7
:100950002046FFF763FF2078000602D50220BDE89D
:10096000F0870120FBE711680268006A530501D592
:1009700008700AE0D30501D5088006E0130603D508
:10098000C217C1E9000200E00860012070470000C2
:1009900001694A1C02610878704700B58FB0CDE943
:1009A00001310021059105497944CDE90310114633
:1009B0006846FFF799FD0FB000BD0000E5FFFFFF9F
:1009C0000A6802F8010B0A607047D1E900239A42D5
:1009D00002D2531C0B601070704700002DE9FF5FBE
:1009E00015468A460446DFF8AC80F8440027D8E96B
:1009F00000103E46CDE9001010E03AF816106A46A5
:100A000002A800F007FD411C07D02178890603D514
:100A1000E269391891420DD80744761C2078800687
:100A200002D5E069B84205DDAE42E6DB3AF81600D1
:100A30000028E2D1A069C01BA0612046FFF7D8FEC4
:100A4000D8E90010CDE90010002017E03AF818109E
:100A50006A4602A800F0DEFCB0F1FF3F81460BD0F1
:100A600000250DF1080B05E0D4E901211BF8050074
:100A700090476D1C4D45F7D308F10100B042804608
:100A8000E4DB206A384420622046FFF7C7FEBDE859
:100A9000FF9F00004A6300002DE9F0418046D21D0F
:100AA00022F007020025D2E90002F52915A614D08C
:100AB000011E72F1000106DA0023D0EB030063EBA4
:100AC000020211A608E0D8F800108B0701D50FA686
:100AD00002E0490701D50EA601251146002408F1C0
:100AE000240704E000F098F830323A55641C50EACC
:100AF0000102F7D12B46324621464046BDE8F0417F
:100B0000FFF7D8BE000000002D0000002B00000001
:100B10002000000030B4002100F1240408E002F0BD
:100B20000705D208303542EA4372DB086554491C98
:100B300052EA0305F3D10468002310A2250707D564
:100B4000A40600D421B1C46901230DA2641EC461AE
:100B500030BCFFF7AFBE10B5044621461068FFF762
:100B600077FE02462046BDE810400023D2E7D21DA2
:100B700022F00701D1E90023CCE7000000000000CB
:100B800030000000F0B40D460188090502D5214C63
:100B90007C4402E01F4C7C440E34002100F124060A
:100BA00008E002F00F071209E75D42EA03721B0931
:100BB0007754491C52EA0307F3D102780023120745
:100BC00004D5702D06D009B1022311342246F0BCA1
:100BD000FFF770BE01231034F8E770B504460D46E8
:100BE00021461068FFF734FE024629462046BDE83C
:100BF00070400023C6E7D21D22F00703D3E900238B
:100C0000C0E70368126843F0200303600823C36150
:100C10000023B7E7AC61000030B5B0F10A024FEA3B
:100C2000900E71F100034EEA817EB0EB0E0061EB95
:100C300091014FEA101E4EEA017E10EB0E0041EBCF
:100C400011114FEA102E4EEA016E10EB0E0041EB2F
:100C500011214FEA104E4EEA014E10EB0E0041EB0F
:100C60001141401841F100014FEAD00040EA4170C3
:100C70004FEAD10110EB80054FEA810444EA9074F9
:100C800044EB01046D1944EB0404521BA3414FF0E3
:100C9000000348BF0A3200D530BD401C41F10001BD
:100CA00030BD70472DE9FF4F0C461E464FF0FF3711
:100CB0008BB0D2E90001DDF860800A908A46C1F36A
:100CC0000A5505B93D46002108464FF00000BAF12B
:100CD000000F00F4400005DA00EB80004FF4400103
:100CE00001EA50004FEA9059B9F1010F00DDB94611
:100CF0000A9850EA4A000ED044F61050A5F2FF358B
:100D000045432F14B8F1000F1ED07542291E1EDD79
:100D1000C9F100021CE0B8F1010F4FF0000001D052
:100D2000302103E0F24305E02154401CB042FBDBDC
:100D300030460022002121540B99C1F80880C1E9F6
:100D400000200FB0BDE8F08FBD1B6D1CDEE74A46EA
:100D500000DA694206A800F0EFFB06AB93E8070053
:100D600003AB83E8070050460A9900F0ACFC8DE81D
:100D70000700A0F500501F3800900398002D0ADDF1
:100D800042F21F014A460844002303A90390684623
:100D900000F015FF09E0A0F500504A461F38002377
:100DA00003A90390684600F01FFF8DE807000004C8
:100DB000000C03D04FF0FF30410800E01046B8F1BE
:100DC000000F03D00022009215461EE0751E05D4C8
:100DD000FFF722FF303262556D1EF9D5B34601226E
:100DE000084302D000227F1C04E02078302801D183
:100DF00000227F1E002A099784D01DE0112D07DAFA
:100E0000FFF70AFF303262556D1C50EA0102F5D13E
:100E1000084302D00098C8B10EE00021681E05E02A
:100E2000235C625C63542254401E491C8142F7DB00
:100E3000AB46A81B401E0990002004F80B000B983D
:100E4000099AC0F80880C0E9002B7AE711264FF014
:100E5000000857E72DE9F04F88460446D21D22F0DE
:100E6000070191B0D1E90001CDE90A0105F028F8A8
:100E700002460B98C00F01D02D2007E020688107A3
:100E800001D52B2002E0202101EAC000032A0990AD
:100E900001D0072A05DB03464146204600F00CFB43
:100EA0000BE12078800601D5E06900E00620B8F16A
:100EB000650F814606D0B8F1660F18D0B8F1670FFC
:100EC00070D131E00020B9F1110F009001DB112346
:100ED00001E009F101030AAA01A90CA8FFF7E2FE4B
:100EE000DDE90C70002609F10105834647E0012089
:100EF0004B4600904FF000470AAA01A90CA8FFF743
:100F0000D1FEDDE90DB00C995D46002610B909F15E
:100F100001000D18B9EB050003D4C0F1FF3609F14B
:100F20000105A5EB09002BE0B9F1010F01DA4FF043
:100F300001090020B9F1110F0090484601DD11238D
:100F400000E003460AAA01A90CA8FFF7ABFEDDE901
:100F50000C704D4600268346207800070AD4AB4526
:100F600000DA5D4601A8012D04DD411911F8011CCC
:100F7000302907D04F4502DA17F1040F04DA0120B7
:100F800082460FE06D1EEEE7002F02DCED1B3E44B3
:100F900003E0781CA84200DD7D1CB81B00F1010AAB
:100FA0004FF000472078000703D4AA4501DB4FF03B
:100FB000FF3A0021B7F1004F0DF143088DF84310BF
:100FC00024D002202B23002F01DA7F422D230A2177
:100FD000021EA0F1010000DC5FB197FBF1FC97FB62
:100FE000F1F201FB1C7C17460CF1300C08F801CD26
:100FF000EEE7A8F1010003702188090501D545211C
:1010000000E06521A0F1010800F8011C09980FA972
:10101000A1EB0807FF1D00B10120411901EBEA70A7
:10102000A1693844081A401EA0612078C00602D485
:101030002046FFF7DDFB099828B1D4E9012190474C
:10104000206A401C20622078C00622D52046FFF787
:10105000CFFB1EE0002E04DBB34502DD01A8805D5E
:1010600000E03020D4E901219047206A401C206232
:10107000761CAAF101005FEA000A0AD100F018FA12
:10108000C0680168405CD4E901219047206A401C97
:101090002062281EA5F10105DCDC07E0D4E901216E
:1010A00018F8010B9047206A401C2062381EA7F1F7
:1010B0000107F3DC2046FFF7B1FB032011B041E646
:1010C0002DE9F04F04460D46D21D22F0070089B0ED
:1010D000D0E900974846394604F0F2FE0246F80F80
:1010E00001D02D2307E02068810701D52B2302E0E2
:1010F000202101EAC0038DF820300BB1012000E06F
:101100000020032A824601D0072A04DB2946204614
:1011100000F0D2F93FE12078800601D40D2500E0EF
:10112000E569C7F30A560D2D49DA00214FEA175B2E
:1011300008464FF00000002F00F4400007DA00EBF3
:1011400080004FF4400100EBD07001EA600081158F
:10115000012901DD4FF0FF3100224FEA850CBCF17F
:10116000180F06D31346ACF118004FF08052C2405E
:1011700003E04FF4801323FA0CF30CF10C0CBCF1D8
:10118000200F04D3ACF1200C09FA0CF001E007FAAF
:101190000CF000294FF0004801DD18B90FE00ED126
:1011A00040450CD319EB02095F4121B9404502D1FA
:1011B0009F4329EA0209BBEB175F00D0761C208809
:1011C000000502D57B48784402E07A487844193813
:1011D00008AA302302F80A30037C0AF10101002E2C
:1011E0000AF1020A53546A4602DC4FF0300101E072
:1011F0004FF031014FF001088DF8001002D0A6F237
:10120000FF3603E059EA470100D06B4E002D02DCA7
:101210002178090704D54FF002082E218DF801101E
:10122000C44600210BE0C7F303433F01C35C491CE4
:101230006D1E02F80830052908F1010801DA002DB9
:10124000F1DC00210CE000EB1973491C1B786D1ECA
:10125000082902F808304FEA091908F1010801DAF3
:10126000002DF0DC21688B0602D516E0A8F10108FC
:10127000E04505DD02EB080313F8013C302BF5D007
:10128000B8F1000F09DD02EB080313F8013C2E2B27
:1012900003D1090701D4A8F10108002D05DD3E2185
:1012A00002F808106D1E08F10108407C002E02F8BB
:1012B000080008F1010804DA2D20764202F808003F
:1012C00002E02B2002F808000A214FF47A708642CF
:1012D00008F101080BDB96FBF0F3303302F808301D
:1012E00096FBF0F308F1010800FB136601E0642EA1
:1012F0000CDB642096FBF0F3303302F8083096FBE9
:10130000F0F308F1010800FB136601E00A2E06DB8A
:1013100096FBF1F0303002F8080008F1010896FB66
:10132000F1F001FB1060303002F80800A16908F10B
:10133000010808EB050202EB0A00081AA0612078F8
:10134000C00602D42046FFF753FA216A08AE01EB2B
:101350000A00206204E0D4E9012116F8010B90474D
:10136000BAF1010AF7D22078C00602D52046FFF76D
:101370003FFA6E4609E016F8010B3E280FD0D4E97B
:1013800001219047206A401C2062B8F10108F2D286
:101390002046FFF743FA09B00320BDE8F08F206A2A
:1013A0002844206203E0D4E90121302090476D1EDB
:1013B000EBD3F8E7B15B000002FCFFFF10B5436917
:1013C00013B1AFF3008001E0FFF74BFA012010BD2D
:1013D000127800F124010A7000224A700122EDE720
:1013E00011684FF0FF32E9E710B5436913B1AFF36D
:1013F000008001E0FFF7F2FA012010BD128800F131
:10140000240182840022C2840122EDE711684FF09A
:10141000FF32E9E770B516460C46054600F040F885
:10142000036893F80101012806D0FF2C0FD8185D3E
:1014300068B101202C7070BDD3F8070132462146F7
:1014400003F2071303442846BDE8704018474FF0E5
:10145000FF3070BD754600F0EBF8AE4605006946FA
:10146000534620F00700854618B020B5FEF740FF30
:10147000BDE820404FF000064FF000074FF0000895
:101480004FF0000B21F00701AC46ACE8C009ACE816
:10149000C009ACE8C009ACE8C0098D46704700003F
:1014A00010B500F005F8001D10BD00BF815400000C
:1014B00000487047400B00202DE9F0411F460446CC
:1014C00003260168072A01F4006004DB08B116A5B1
:1014D00005E016A503E008B115A500E015A521F06B
:1014E00010002060A069C01EA0610FB1401EA06165
:1014F0002046FFF77DF94FB1D4E9012138469047E6
:10150000206A401C2062C01C206206E0206AFAE7C4
:10151000D4E9012115F8010B9047761EF8D2204638
:10152000FFF77CF9BDE8F0814E414E006E616E0020
:10153000494E4600696E66002DE9F0478146164621
:101540008AB0354878440DC88DE80D00324878449B
:10155000801C03AC0DC884E80D0041F69B300844A4
:10156000372190FBF1F290FBF1F5A5F1800501FB2D
:1015700012041B3C02D56442012000E00020DFF889
:1015800098A080460027FA44AAF1BE0A0EE0E007C0
:101590000AD03246684607EB470101230AEB810176
:1015A00000F022FB8DE8070064107F1C002CEED1B8
:1015B000194F7F44AE3F19E0E80715D007EB041040
:1015C0000DF1180A90E80E008AE80E00C068F0429B
:1015D00001D1981908903246012306A903A800F00A
:1015E00003FB03AB83E807006D10641C002DE3D1FF
:1015F0004FF0010332466946B8F1000F03A802D04C
:1016000000F0DDFA01E000F0EFFAC9E90001C9F8E5
:1016100008200AB0BDE8F087C458000010B50446A1
:10162000AFF300802046BDE81040FEF74CBE00003E
:1016300000487047200B00204FF0013C50F8042B6D
:1016400051F8043B9A4221D1A2EB0C03934313EAD5
:10165000CC1317D150F8042B51F8043B9A4215D102
:10166000A2EB0C03934313EACC130BD150F8042BD9
:1016700051F8043B9A4209D1A2EB0C03934313EABD
:10168000CC13DBD04FF00000704700BFD01A01BA76
:10169000B1FA81F101F0180122FA01F0CB40C1F159
:1016A0002001DBB2C0B2C01A2CFA01F3D11A914367
:1016B00011EAC311E6D1704701491820ABBEFEE71D
:1016C0002600020070475FEA400C08BF91F0000F4F
:1016D0004FEA8C234FEAC12243EA51514FEA1C5092
:1016E00018BF00F5F0404FEA300018BF41F000414C
:1016F0005FEA6C5C00F02980BCF1FF3F08BF40F05E
:1017000080407047130C06BF12044FF0100C4FF0CE
:10171000000C130E04BF12020CF1080C130F04BFCF
:1017200012010CF1040C930F04BF92000CF1020C97
:10173000D30F04BF52000CF1010C11464FF0000210
:10174000A0F11F00A0EB0C00704711F0004F08BF84
:10175000704731F000413FF4D5AF0B0C06BF0904D0
:101760004FF0100C4FF0000C0B0E04BF09020CF1EF
:10177000080C0B0F04BF09010CF1040C8B0F04BF04
:1017800089000CF1020CCB0F04BF49000CF1010CD5
:10179000CCF12003A0EB0C0022FA03F302FA0CF2C6
:1017A00041EA030100F10100704720F07F4C80EA1C
:1017B000030023F07F47ACEB070303F57C5300F0F5
:1017C000004003F1FF032DE980494FEA154B09B4AE
:1017D0004FEA144325EA0B4E24EA03480FF204268D
:1017E00006EB132749083E785FEA320203FB0667DF
:1017F000C7F5000707FB06F64FEA54374FEAD6460F
:1018000006F1020607FB066CCCF1005C4FEA1C47B0
:101810002CEA074C07FB06F40CFB06F504EB154617
:101820004FEA961634BF00204FF000404FEAD13700
:1018300006FB07FC4FEA1C4C0CFB0BF7D21B03FB0F
:101840000CF761EB07010CFB0EF7B0EB074072EBF6
:1018500017420CFB08F734BFA2EB0742B2EB07427A
:1018600061EB17414FEA0C444FEA910706FB07FC76
:101870004FEA1C4C0CFB0BF7B0EBC74072EB573236
:1018800003FB0CF734BFA2EBC742B2EBC74261EBDC
:1018900057310CFB0EF7B0EBC70072EB57720CFB25
:1018A00008F734BFA2EBC702B2EBC70261EB577176
:1018B000039F4FEA816141EA921104EBCC044FEAA5
:1018C000D1374FEA826206FB07FC42EA90124FEAE8
:1018D00080604FEA1C4C0CFB0BF7D21B03FB0CF790
:1018E00061EB07010CFB0EF7B0EB074072EB174200
:1018F0000CFB08F734BFA2EB0742B2EB074261EBE7
:1019000017414FEA8C554FEA910704EB9C2406FBE4
:1019100007FC4FEA1C4C0CFB0BF7B0EBC74072EB1B
:10192000573203FB0CF734BFA2EBC742B2EBC742FE
:1019300061EB57310CFB0EF7B0EBC70072EB57723F
:101940000CFB08F734BFA2EBC702B2EBC70261EB96
:10195000577115EB4C254FEA816141EA92114FEA2C
:1019600082624FEAD13742EA901206FB07FC44F14B
:1019700000044FEA80604FEA1C4C0CFB0BF7D21BB3
:1019800003FB0CF761EB07010CFB0EF7B0EB074014
:1019900072EB17420CFB08F734BFA2EB0742B2EB25
:1019A000074261EB174115EB1C154FEA813141EA03
:1019B00092414FEA823242EA90424FEA80304FEA47
:1019C0000C7644F1000448EA03434EEA0B484FF01A
:1019D000000EB2EB080C71EB030724BF62463946D8
:1019E0004EEB0E0E4FF0000B0018524149414BEBED
:1019F0000B0BB2EB080C71EB03077BF1000B24BF60
:101A0000624639464EEB0E0E4FF0000B0018524165
:101A100049414BEB0B0BB2EB080C71EB03077BF16D
:101A2000000B24BF624639464EEB0E0E51EA020708
:101A300018BF46F0010616EB0E7655F1000254F180
:101A4000000103D5BDE88901BDE80088BDE8890132
:101A5000BDE80048B619524141EB0101A3F1010371
:101A6000704780807F7E7D7C7B7A7978777676750B
:101A70007473727171706F6E6E6D6C6C6B6A6A6983
:101A80006868676666656464636362616160605F1D
:101A90005F5E5E5D5D5C5C5B5B5A5A595958585796
:101AA00057565655555554545353525252515150FE
:101AB00050504F4F4F4E4E4D4D4D4C4C4C4B4B4B51
:101AC0004A4A4A4949494848484747474746464697
:101AD00045454544444444434343434242424241D2
:101AE0004141002B9C4630D477002BD01CB54FEAE7
:101AF000370703B44FF010004FF01001BAF1000F98
:101B000006D0BCF1000FDCBF40F0080040F0080137
:101B10004FF000000FBCBDE810400BF1010BBBF112
:101B2000010F08BF5FEA170722BF12F1010211F18E
:101B300001014FF0004143F1000300F0004043EA8F
:101B400000007047F9D35708D0E746EA064613F17C
:101B5000400F4FEA16461FDD13F1200FDFBF16437B
:101B60000A46002120335B42BED0C3F1200746EA7B
:101B7000064602FA07F74FEA164646EA0706C3F199
:101B8000200722FA03F201FA07F721FA03F14FF0D6
:101B9000000342EA0702A7E746EA020646EA0646CB
:101BA0004FEA164646EA0106BCBF46EA0646360C30
:101BB0004FF000034FF000024FF0000194E72DE9D1
:101BC000804C9A46934670B491E8380007C831EAD1
:101BD000400C48BF34EA430C03D5FFF7E6FDFFF79E
:101BE00080FFF0BCBDE8008C2DE9804C9A469346FE
:101BF00070B491E8380007C810F0804F08BF13F0A8
:101C0000804F03D100F005F8FFF76BFFF0BCBDE893
:101C1000008C20F07F4780EA030023F07F4C07EB25
:101C20000C03A3F57C5300F00040A3F1FE0392F0F7
:101C3000000F00F0B38095F0000F00F077802DE9E1
:101C400001494FEA11404FEA144621EA004800FBDF
:101C500006FC24EA064708FB06F607FB08F800FB2B
:101C600007F718EB06484CEB164C4FEA124B18EBF3
:101C700007484FEA15464CEB174022EA0B4E0BFB88
:101C800006FC25EA06470EFB06F607FB0EFE0BFBDD
:101C900007F71EEB064E4CEB164C4FF000061EEB02
:101CA000074E4CEB174B18EB0B0840F1000018EBFC
:101CB0000E0B58EB000840F100008F1A4FF00001A6
:101CC0003CBFC943661B14BFB5EB040C00213CBFED
:101CD000C943F61B4FEA17444EEA8E0E27EA044525
:101CE0004FEA1C4704FB07622CEA074C05FB07F789
:101CF0000CFB05F604FB0CFC16EB074642EB174207
:101D000016EB0C4642EB1C421BEB060658EB02029C
:101D1000414146EA9E0601D5BDE80189B619524106
:101D200041EB0101A3F10103BDE801894FEA14452C
:101D30004FEA114724EA054621EA074C05FB07F460
:101D400006FB07F70CFB06F105FB0CFC11EB07414A
:101D500044EB17444FEA124711EB0C4144EB1C448F
:101D600022EA074C05FB07F206FB07F70CFB06F619
:101D700005FB0CFC16EB074642EB174216EB0C4634
:101D800042EB1C456A1854F1000148BF7047B61970
:101D9000524141EB0101A3F10103704795F0000F9F
:101DA00037D04FEA11424FEA144721EA024624EAAB
:101DB000074C02FB07F106FB07F70CFB06F402FBDE
:101DC0000CFC14EB074441EB17414FEA154714EBA9
:101DD0000C4441EB1C4125EA074C02FB07F506FBCE
:101DE00007F70CFB06F602FB0CFC16EB074645EB6F
:101DF000174516EB0C4645EB1C42121951F1000138
:101E000048BF7047B619524141EB0101A3F10103EC
:101E100070474FEA14454FEA114724EA054621EA84
:101E2000074C05FB07F106FB07F70CFB06F24FF02A
:101E3000000605FB0CFC12EB074241EB174112EBCD
:101E40000C4251EB1C4148BF7047921841EB010115
:101E5000A3F1010370470000062807D2044951F896
:101E6000201019B90349085C000700D00120704711
:101E7000D00A0020B000002070B5044606284CD2DD
:101E800001F0ACFC254904EB440551F82420831AE9
:101E9000234AB3F5967F02EBC50529D341F8240008
:101EA0002048005D082806D01F48005D18B195ED58
:101EB000000A85ED030A1D49082008700322114617
:101EC000204604F031F91A4E3070012001F072FB07
:101ED000002295ED030A1146204604F03AF93070CD
:101EE000012001F067FB0821204604F00DF9307055
:101EF00011489FED100A012180ED020A95ED030AB9
:101F000080ED030A80ED040A417000210170204633
:101F1000BDE870400A4604F01CB970BDE003002023
:101F2000280A0020AA000020A4000020BC000020F5
:101F3000BE000020000000000400002010B5044690
:101F4000062829D201F04AFC14490A5D144972B1ED
:101F5000144A04EB440302EBC30292ED000A82ED43
:101F6000030A81ED040A01224A7081ED030A9FED04
:101F70000E0A002281ED020A0A700C4951F8242051
:101F8000821AB2F5FA7F07D341F824002046BDE853
:101F90001040012104F0B8B810BD0000A4000020DA
:101FA00004000020280A002000000000F8030020A0
:101FB0002DE9F05F714D0446062801D30A20C9E0DF
:101FC00000202870DFF8B8A14FF0010957468AF8C1
:101FD0000090DFF8B0B15E468BF800006A49085502
:101FE0006A4908556A4941F824006A4908556A490E
:101FF000085502208AF80000204604F079F8307075
:10200000142001F0D7FA032038700121204604F093
:102010007BF83070322001F0CDFA04203870F1EEF8
:10202000040AB1EE000A204604F0B7F830700A2026
:1020300001F0C0FAB2EE000A204604F0CBF830708E
:102040000A2001F0B7FA9FED550A2046F0EE400A4B
:1020500004F0D0F830700A2001F0ACFA0520387096
:102060004FF47A7701F0BAFB064646E001F0B6FB82
:10207000804603F04BFD4A490A68A8EB020002289B
:1020800003D3C1F8008003F031F93F48005D98B3F5
:10209000444804EB440200EBC207414897ED000AB4
:1020A000803887ED030A80ED030A80ED040A80F88A
:1020B00001900621D0468AF80010032211462046DE
:1020C00004F032F8DA465E468BF80000142001F086
:1020D00071FA072188F80010002297ED030A1146D3
:1020E000204604F036F83070142001F063FAC3463D
:1020F0000026DFF8988007E0FFE701F06FFB801B08
:10210000B842B3D3142025E008208BF80000014624
:10211000204603F0F9FF8AF80000192001F04AFA7E
:10212000002297ED030A1146204604F012F84B20D6
:1021300001F040FA18F8040090B11748005D082833
:1021400003D12046FFF788FE40B12046FFF784FE0A
:1021500030B11E2028700020BDE8F09F484607E0FF
:10216000761CF6B2142ECFD318F8040018B1202034
:1021700028700120F0E71F20FAE70000BD000020D2
:10218000BC000020BE000020A4000020B6000020FB
:10219000D00A0020B0000020AA000020CDCC4C3D89
:1021A00084000020280A00202DED068B86B0012532
:1021B000FC4C656101F020FB0220606103F0A2FA93
:1021C000032060612C21F848FEF7E8FAF648142154
:1021D0002C30FEF7E3FA02F017FE0420606102F0F3
:1021E000D9FE02F0C3FE05206061F0A63046FEF77E
:1021F0003FFA81B26422304600F0A4FC01F038FCC2
:10220000064601F025FC0246F84833460168F8A06E
:1022100000F07CFC02F092FE0620606102F072FE8B
:1022200007206061322001F0C5F902F0A5FD082009
:10223000606102F0C5FD0920606103F02FFC0A20F7
:10224000606103F0F3FB0B206061F34800F05EFC7B
:10225000F2490120086001F0C1FA0A2100F09AFC5D
:10226000D14800F02FFB0C20606101F0B7FA0B2180
:1022700000F090FCCC4D14212C352846FEF78EFA48
:1022800002F0D0FC02F0D6FC052001F093F92846BC
:1022900002F0E8FC0D25A346656101F09FFA0C21D0
:1022A00000F078FC322001F085F90120FFF780FE74
:1022B00004900E206061DA48049A0178D9A000F0F9
:1022C00025FCE24B10209FEDE28A0090B7EE000A59
:1022D000F0EE480A0022DFA1E04802F095FADB4B5D
:1022E000B1488033F0EE480AB7EE000A0122DCA1C3
:1022F000D438009502F088FA01F070FA02F02EFF4F
:1023000001F06CFA07463E464FF0000A3546D046CB
:102310009FEDD48ADFEDD49AD049B6EE089A01F148
:102320004C001C31CDE9021001F1B80000F14C0164
:10233000DFEDCE8A1C30CDE9000100BF01F04EFA7E
:102340000446A0EB0709A0EB0800C82804D3A04668
:102350001421404600F01EFC03F0D8FB601B02284D
:1023600002D3254602F0C2FFA01B0A28E6D340F2A2
:10237000DC50264681451DD2B8484FF00009A0F830
:102380003690DDE9020103F0BFF80146B34802F0E0
:1023900017FA8548D438A0F83690DDE9000103F03B
:1023A000B3F801468048D43802F00AFA04980028AD
:1023B00079D1B1E1304602F0B5FF059088B39BEDCD
:1023C0000D0ADBED0C0AB5EE001A20EE090A00EE4C
:1023D000810AB7EE001AF0EE680A03F028FFB0EEAB
:1023E00040AA9FEDA31AF0EE480AB0EE600A0AEE8A
:1023F000010AB7EE001A03F01AFF9FED9E1ADBEDFB
:10240000130A5846F4EEC00AF1EE10FA0AD270EE42
:10241000810AC0ED130AF4EEC00AF1EE10FA0ADCEC
:102420000BE041E041EE480AC0ED130AF4EEC00AA9
:10243000F1EE10FA01D28BED130A9FED8F0ADFED5A
:102440008F0A4AEE000A90ED140A10EE101AB1F14C
:102450007E5F02DCC0ED140A07E070EEC00A9FED5B
:10246000881A00EE810A80ED140A9BED120A9BED9A
:10247000141AF0EE690A01EE200A04F029FA8BED35
:10248000120A764802F03AFADDE9020103F03CF85C
:102490000146724802F094F943489BED120AD43881
:1024A00002F02CFA2DE050E09FED760ADBED130AE6
:1024B0005846F4EEC00AF1EE10FA04DD30EEC00A20
:1024C00080ED130A01E0C0ED138A90ED140A20EEAE
:1024D000090A10EE101A80ED140AB1F17E5F01DADC
:1024E000CBED148A5D4802F0D1F9DDE9020103F079
:1024F0000BF80146594802F063F92B48D43802F032
:10250000C5F9DDE9000102F0FFFF01462648D43895
:1025100002F056F90498002809D00120FFF79CFC2E
:1025200030B10121084603F0EFFD00200490F3E0F4
:102530009BF80410059A5846114306D0B9F5E16F8F
:1025400007D20120FFF798FCE6E00120FFF7F6FC38
:10255000E2E04D49497819B14C4949780829F0D150
:10256000F2B1D9469BED120A03F0E2FCB0EE40AAAC
:10257000B0EE680A03F0DCFCD9ED130A9FED441AB3
:102580003AEE400A434860EE810A60EE800A90ED20
:10259000090AB0EE401ADFED401A00EEA10A7DE014
:1025A000A5E0000004000020B8050020424F4F5471
:1025B000303A20646562756720616C697665206FCA
:1025C0006E20555341525433205042313020616EB9
:1025D0006420555341525432205041322C20313125
:1025E000353230302C20384E310D0A000C010020DD
:1025F000424F4F54313A20535953434C4B3D256C75
:10260000752050434C4B313D256C752050434C4B4D
:10261000323D256C750D0A00246E0008F000002084
:10262000BD000020424F4F543A20616E6B6C652014
:10263000696E697420726573756C743D25752C2004
:1026400072656164793D25750D0A00009C6900087A
:102650005C8FCA406B6E65650000000010040020AE
:10266000686970003333B33E0BD7233C0000000091
:102670006666263F5939B43C0000E6420000B44289
:102680000AD7A33E6F12833CB6000020AA000020A8
:102690003333733F280A0020D50BDC3CDFED281ACA
:1026A00099F8010020B989ED041A012189F8011077
:1026B00099ED042A484632EE211AB4EEC01AF1EE22
:1026C00010FA06D332EE611AB4EEC01AF1EE10FA27
:1026D00001DDB0EE410A80ED040AC0ED020A80ED92
:1026E000030A0121017000221146012012E0417805
:1026F000012311B190ED040A06E0124991ED090A97
:10270000012180ED040A41700021017080ED030A6F
:102710000A46184603F01DFDA4EB0A003228FFF418
:102720000DAEA246084800F04DF907482C3002F0E3
:1027300099FA054904482C3103F036FAFEE5000009
:102740007709303D280A0020B805002070B58CB00C
:102750000D4606461446142101A8FEF71FF8142161
:1027600006A8FEF71BF815B10CB10E2C02D90120FA
:102770000CB070BD46F080000022FF268DF80400EA
:10278000631C01A998B203E08B18521C5E7092B2D0
:102790009042F9D800F006F90A200090A01C83B2FC
:1027A00006AA01A9084801F09EFC064600F024F89C
:1027B0000EB13046DCE722460DF11A012846FDF73E
:1027C00076FF0020D4E700008809002038B500F02B
:1027D0007F008DF800008DF8011000F0E3F80A2367
:1027E00002226946034801F0CBFB044600F004F8DE
:1027F000204638BD8809002001220221014800F04E
:10280000E8BF00000000024001221146014800F02C
:10281000E0BF00000000024070B50D008AB0014624
:102820004FF0000001900290039014460490059030
:1028300006900790089002D00CB10E2C02D901200E
:102840000AB070BD41F080008DF80400002201A89C
:10285000FF2103E08318521C597092B2A242F9D3AF
:1028600000F0A8F80A200090601C83B205AA01A914
:10287000084801F038FC0646FFF7C6FF0EB13046A7
:10288000DEE722460DF115012846FDF710FF002076
:10289000D6E700008809002038B500F07F008DF8E9
:1028A00000008DF8011000F085F80A230222694625
:1028B000034801F065FB0446FFF7A6FF204638BD3C
:1028C0008809002038B504004FF000008DF80000A2
:1028D00066D02C212046FDF761FFFFF795FFFFF73B
:1028E0008BFF052000F066FE012269460020FFF7FD
:1028F0002DFF012000F05EFE012221460020FFF79F
:1029000025FF0122611C0020FFF786FF20781E288A
:102910003AD00020A07061780F2937D00021E170F3
:10292000C0B100217C20FFF751FF012000F042FEE2
:1029300004217D20FFF74AFF022000F03BFEA82182
:102940004020FFF743FF01214120FFF73FFF022016
:1029500000F030FEE07888B11E2000F02BFE002150
:102960000F20FFF799FF02211020FFF795FF0021AC
:102970001120FFF791FF022000F01CFEA07838B173
:10298000E07828B1012004E00120C3E70121C6E777
:102990000020207120B1204600F014F8002038BD3E
:1029A000012038BD00220221014800F012BF0000C2
:1029B0000000024000220121014800F00ABF00008F
:1029C000000002401CB504004FF000000090019090
:1029D0000AD0207940B1E07858B306226946022037
:1029E000FFF71AFF10B124E001201CBDBDF9001053
:1029F000A18100EE101ABDF90200E081F8EEC00AD4
:102A00009FED220ABDF90420228280EE801A00EE9A
:102A1000900AF8EEE00A84ED081A80EE801A00EEC3
:102A2000902AF8EEE00A84ED091A80EE801A84ED0F
:102A30000A1AA07840B3062269461220FFF786FEE4
:102A400010BBBDF90020E28000EE102ABDF9021093
:102A50002181F8EEC00A9FED0E0ABDF904006081E5
:102A600080EE801A00EE901AF8EEE00A84ED051A66
:102A700080EE801A00EE900AF8EEE00A84ED061A65
:102A800080EE801A84ED071A00201CBD6F1283416E
:102A900000A0AA45FEE70000014800F0F4BA0000DB
:102AA00010010020014800F0EEBA000010010020E3
:102AB000014800F0E8BA000010010020014800F0D1
:102AC000E2BA000010010020014800F0DCBA00006A
:102AD00038010020014800F0D6BA0000380100207B
:102AE000014800F0D0BA000038010020014800F091
:102AF000CABA000038010020042141604FF4C0210F
:102B000001614FF480114161704770470FB410B5F7
:102B1000029A002A10D04FF4807403AB2146084873
:102B2000FDF770FC002807DDA04200DD204681B2E1
:102B30006422034800F006F810BC5DF814FB0000A6
:102B4000E002002070B50C46050016461BD0002C94
:102B500019D00D480D490068884205D11346224618
:102B60002946094801F0EAFC074809494838006845
:102B7000884208D1334622462946BDE870400248C3
:102B8000483801F0DBBC70BD40090020004800401F
:102B900000440040F0B5074639480E4639490268FE
:102BA00099B08A4202D13849096801E04FF000012A
:102BB000364A116002D13649096801E04FF0000140
:102BC000344A116090F82000334D286000F050FF27
:102BD000044600F03DFF0146304882794379D0F841
:102BE00018C0CDE91632CDE9144C2D4A406912685F
:102BF0002C4B1B7810931391CDE911022A4B1B78B3
:102C00002A4A12682A4909682A4800680CAC84E8F4
:102C10000F00294B1B68294A12682949096828684E
:102C200008AC84E80F00274B1B68274A1278274915
:102C300009682748006804AC84E80F00254800684C
:102C400025490968254A126803900096CDE90121BB
:102C50004FF4C0743B46224A21462248FDF7ECFB64
:102C600000280ADDA04200DD204619B081B2BDE88F
:102C7000F04032221B48FFF765BF19B0F0BD0000DD
:102C8000380100200068004018680040E40000207F
:102C900004680040E8000020EC0000200400002050
:102CA0000C010020BD000020BC000020C40000205A
:102CB000E0000020DC000020D4000020D80000202C
:102CC000D0000020C0000020CC0000209C0000208C
:102CD000980000209400002090000020C8000020F0
:102CE0004C6F00086001002090F82020012A07D0D6
:102CF000022A05D0416A41F48021416201207047D7
:102D0000006842690A43426100207047F0B590F8BC
:102D100020500468A468012D05D0022D03D0416A1B
:102D200041F480214DE014F0406F01D1E50045D51C
:102D3000C4F301640125A5401D608D684FF4C07384
:102D40009DB1CE6835434E6845EAC605066803EB7B
:102D50000417F5514FF4C275076805EB04150E69A9
:102D60007E51097D012905D009E00E88CD6845EA2C
:102D70004655EBE701684E5946F480764E5111797D
:102D8000D2F805504FF4C67641EA0521056806EBF6
:102D90000416A9511178D2F801204FF4C47541EA04
:102DA0000221026805EB04155151006803EB041180
:102DB000425842F0010242500020F0BD416A41F405
:102DC000001141620120F0BD10B590F82020012AC9
:102DD00007D0022A05D0416A41F4802141620120D6
:102DE00010BD3B48D0F8002242F00102C0F800229A
:102DF000D0F8002222F47C52C0F80022D0F8002241
:102E00004B6A42EA0322C0F800220A7D02F01F0347
:102E100001229A40D0F81C329343C0F81C32CB698F
:102E2000B3B9D0F80C329343C0F80C328C894B689C
:102E300064F31F434C6900EBC404C4F840320C89AE
:102E40000B6864F31F434C6900EBC404C4F84432BC
:102E5000CB69012B16D1D0F80C321343C0F80C32D9
:102E60000C884B6864F31F434C6900EBC404C4F83E
:102E700040320C89CB6864F31F434C6900EBC404F7
:102E8000C4F844328B69002BD0F804320ED01343BF
:102E9000C0F804320B69002BD0F8143208D0134369
:102EA000C0F81432096A012904D008E09343EFE71F
:102EB0009343F5E7D0F81C121143C0F81C12D0F868
:102EC000001221F00101C0F80012002010BD000026
:102ED0000064004010B5040024D000F031F8124A1C
:102EE0002168914213D11149086040071AD54868FA
:102EF000401C48600E4800F025FB0D4800F0F6FA33
:102F0000BDE8104048F20E410948FFF7EDBE094AFE
:102F1000914207D108490860400703D50748016876
:102F2000491C016010BD00000064004088000020C2
:102F30001001002000680040C0000020C4000020F4
:102F4000406A70470246002092F82030012B01D0E1
:102F5000022B05D1106821B1D0F8100000F0030059
:102F60007047C068FAE770B590F82040012C05D092
:102F7000022C03D0416A41F4802128E0046809B39F
:102F80002469A40720D04FF4D874056804EB011419
:102F90002D5915F00405956005682D591AD0ED08D6
:102FA000556005682C5904F00204D4604FF4DA74BB
:102FB000056804EB01142E5906F00F06082E0CD3F9
:102FC00008250DE0E468DCE7416A41F40011416244
:102FD000012070BD6D0D1560E3E72D5905F00F055B
:102FE000156105682D59C5F30725956105682C59AC
:102FF000240C54614FF4DC72046802EB0112A458F3
:103000001C700468A458240A5C700468A458240C3A
:103010009C700468A258120EDA704FF4DE720468D5
:1030200002EB0112A4581C710468A458240A5C71B4
:103030000468A458240C9C710468A258120EDA711A
:10304000006829B1016941F020010161002070BDD3
:10305000C16841F02001C160F8E70246002092F803
:103060002010012901D002290CD111688A6852016F
:1030700000D501208A68120100D5401C8968C9006A
:1030800000D5401C70472DE9F05F0546006800241C
:103090004669D0F804908768D0F80CB0D0F810A03A
:1030A000D0F81880F10748D0F90714D001218160C9
:1030B000B80703D5284600F076FA0CE0780702D569
:1030C0004FF4006407E0380702D54FF4805402E063
:1030D000284600F067FAF80516D529684FF4807085
:1030E0008860B80503D5284600F05FFA0CE0780543
:1030F00002D544F4005407E0380502D544F4804476
:1031000002E0284600F050FAF80316D529684FF47B
:1031100080308860B80303D5284600F048FA0CE0F8
:10312000780302D544F4004407E0380302D544F4A0
:10313000803402E0284600F039FA300707D55FEA0C
:10314000CB6004D52968102044F40074C86070076F
:103150004FF0080707D55FEA0B7004D52868C760F1
:10316000284600F0BDF9B00706D52868C06880077A
:1031700002D0284600F0B5F9700607D55FEACA60AC
:1031800004D52968102044F480640861B00607D58E
:103190005FEA0A7004D528680761284600F0A3F9A1
:1031A000F00606D528680069800702D0284600F09E
:1031B0009BF9B00308D55FEAC96005D529681020DE
:1031C0004860284600F091F9F00307D55FEA0970DE
:1031D00004D528684760284600F0EAF9300446D54F
:1031E0005FEA497040D5F00504D55FEAC87001D0A8
:1031F00044F00104B00504D55FEA887001D544F0BD
:103200000204700504D55FEA487001D544F0040457
:10321000300529D518F0700F26D008F0700040282E
:1032200015D006DC102809D020280AD0302816D165
:103230000AE050280ED0602811D10EE044F00804B6
:103240000DE044F010040AE044F0200407E044F0EC
:10325000400404E044F0800401E044F480742868F1
:10326000816921F070018161296804204860002C87
:1032700005D0686A204368622846FFF72BFEBDE848
:10328000F09F70B5040003D094F8200010B104E062
:10329000012070BD204600F081F82068016841F0EF
:1032A0000101016000F09AFA0546052604E000F0ED
:1032B00095FA401B0A2811D820684068C007F6D04C
:1032C0002068016821F00201016000F087FA0546DC
:1032D0000BE000F083FA401B0A2806D9606A40F42C
:1032E0000030606284F82060D2E720684068800780
:1032F000EFD4207E0128206801683DD021F08001B4
:103300000160607E01282068016838D021F040010A
:103310000160A07E01282068016833D021F02001DF
:103320000160E07E0128206801682ED041F0100184
:103330000160207F01282068016829D021F0080160
:103340000160607F01282068016824D021F0040119
:103350000160D4E902010843D4E90412114308438F
:103360006168491E08432168C8610020606201202D
:1033700084F82000002070BD41F08001C0E741F0DA
:103380004001C5E741F02001CAE721F01001CFE775
:1033900041F00801D4E741F00401D9E72DE9F043F9
:1033A00087B0044614216846FDF7F8F9484B4948B0
:1033B000DFF818811968D4F800C0464A02250326B0
:1033C0000927DFF8149110300024491CC4453CD172
:1033D0001960012907D1016841F00071016000689E
:1033E00000F000700590106840F002001060106856
:1033F00002AB00F0020005904FF44070CDE90005EB
:1034000083E8D0006946484600F0E6F800221146FD
:10341000132000F051FA132000F040FA0022114668
:10342000142000F049FA142000F038FA0022114666
:10343000152000F041FA152000F030FA0022114664
:10344000162000F039FA16203AE0DFF89080C445E3
:1034500038D1D0F800C04CF0806CC0F800C0D0F873
:1034600000C001290CF0806CCDF814C0196007D1A0
:10347000016841F000710160006800F00070059083
:10348000106840F002001060106802AB00F002000B
:1034900005906020CDE9000583E8D00069464846E4
:1034A00000F09AF8002211463F2000F005FA3F2074
:1034B00000F0F4F900221146402000F0FDF9402010
:1034C00000F0ECF907B0BDE8F083000000640040B4
:1034D0000000002030380240000402400068004034
:1034E000704702F021BB70477047704770B50446C3
:1034F00090F82000012804D0606A40F40020606247
:1035000018E0022084F820002068016821F0010101
:10351000016000F063F905460EE000BF00F05EF9BF
:10352000401B0A2808D9606A40F400306062052018
:1035300084F82000012070BD20684068C007EDD1EC
:10354000606270BD70B5044690F82000022804D077
:10355000606A40F48010606214E02068016841F005
:103560000101016000F03AF905460DE000F036F97E
:10357000401B0A2808D9606A40F4003060620520C8
:1035800084F82000012070BD20684068C007EDD09D
:103590002068016821F002010160012084F8200008
:1035A000002070BD70477047704770477047704784
:1035B0007047000070B5044600F010F90546601C25
:1035C00002D004480078044400F008F9401BA042EF
:1035D000FAD370BD000100202DE9F84FDFF8BCA13F
:1035E0000022012503264FF00F090AF1040BAAF16E
:1035F000040E00BF0B6805FA02F42340A34270D109
:103600000F7907F00307012F01D0022F16D1876829
:103610004FEA420806FA08FC27EA0C07D1F80CC06A
:103620000CFA08FC4CEA070CC0F808C04768A7432E
:103630000C79C4F3001494403C4344600C79E44397
:10364000A4070AD0C4684FEA420C06FA0CF7BC4340
:103650008F6807FA0CF72743C7600C7904F003045E
:10366000022C12D1D40800EB840CDCF82040570760
:10367000FF0E09FA07F824EA0804D1F8108008FAC6
:1036800007F848EA0408CCF8208004684FEA420CA6
:1036900006FA0CF7BC430F7907F0030707FA0CF79B
:1036A000274307604C6814F4403F70D03C4C2768B7
:1036B00047F480472760246822F0030704F480441D
:1036C0000094384C07EB040CDCF8084897074FEAE5
:1036D000177809FA08F7BC43334FB84202D10027E4
:1036E00024E054E0314FB84201D101271EE0304FB1
:1036F000B84201D1022719E02E4FB84201D1032769
:1037000014E02D4FB84201D104270FE02B4FB842EF
:1037100001D105270AE02A4FB84201D1062705E06A
:10372000284FB84201D1072700E0082707FA08F719
:103730002743CCF80878DAF800405746D1F804C09F
:103740009C435FEACC2C00D51C433C60DBF8004076
:103750005F46D1F804C09C435FEA8C2C00D51C4323
:103760003C60DEF800407746D1F804C09C435FEA35
:103770008C3C00D51C433C60084F083F3C68D1F8A6
:1037800004C09C435FEACC3C00D51C433C60521C07
:10379000102AFFF42FAFBDE8F88F0000083C01406D
:1037A0004438024000300140000002400004024062
:1037B00000080240000C02400010024000140240C9
:1037C00000180240001C02400069084000D001209F
:1037D00070470AB1816170470904FBE701488068BE
:1037E00070470000000100200248816802781144FF
:1037F00081607047000100200B4810B5016841F45A
:1038000000710160016841F480610160016841F468
:1038100080710160032000F06FF80F2000F006F8BF
:1038200000F024F8002010BD003C024070B50D4DA2
:1038300004464FF47A712878B1FBF0F00A49096820
:10384000B1FBF0F000F047FD48B9102C07D2002280
:103850002146501E00F030F800206C6070BD012041
:1038600070BD0000000100200C0100200A4808B5CE
:10387000016841F480410160006800F480400090DC
:103880000548001F016841F080510160006800F0A8
:103890008050009008BD000044380240002809DB39
:1038A00000F01F02012191404009800000F1E0205A
:1038B000C0F8001170470000F0B40E4B1B680C46B6
:1038C000C3F30223C3F10705042D00D90425191DF4
:1038D000072901D2002300E0DB1E012606FA05F1CC
:1038E000491E214099409E40761E16403143F0BC4F
:1038F00002F0FEBA0CED00E0064900F0070208688D
:103900004FF6FF03184040EA0220034A10430860C4
:10391000704700000CED00E00000FA052DE9F047CB
:103920000E46050065D0DFF81481D8F80000F7B224
:1039300000F00700B04207D288F80070D8F8000005
:1039400000F00700B04254D128683D4C810712D5E1
:10395000400703D5206840F4E05020602878000735
:1039600003D5206840F4604020602068A96820F0FA
:10397000F000084320602878C0072DD030496868DF
:103980000839012812D0022813D0032811D0096861
:10399000890700292DDA216821F003010143216004
:1039A000FFF71CFF814641F2883A0EE0096889035F
:1039B000EFE709688901ECE7FFF710FFA0EB0901C9
:1039C000514502D90320BDE8F0872068696800F0FE
:1039D0000C00B0EB810FEFD1D8F80010404601F099
:1039E0000701B14207D90770006800F00700B04234
:1039F00001D00120E7E72878400705D52068E9686D
:103A000020F4E050084320602878000706D520689D
:103A1000296920F4604040EAC100206000F038F8D5
:103A20002168084AC1F30311515CC8400649086087
:103A300006480068FFF7FAFE0020C4E7003C024099
:103A4000083802400C6D00080C0100200401002021
:103A50000448054900680968044AC1F38221515CA1
:103A6000C84070470C010020083802401C6D000857
:103A70000448054900680968044AC1F34231515CB1
:103A8000C84070470C010020083802401C6D000837
:103A9000154810B5006810F00C02144813D04110FE
:103AA000042A0FD0082A0ED10F4C241F2268236845
:103AB00002F03F025B0207D52068C0F38810A0FB2C
:103AC000010106E0084610BD2168C1F38811A1FB81
:103AD00000010023FCF71EFC2168C1F30141491CD1
:103AE0004900B0FBF1F010BD083802400024F4009A
:103AF0002DE9F84F04006ED02078DFF84C93C00712
:103B0000A9F104054AD009F104000168C1F381015B
:103B1000012908D00068C0F3810002280AD1D9F831
:103B20000000400206D52868800337D56068002869
:103B3000E1D033E06068B0F5803F10D0B0F5A02F41
:103B4000286810D020F480302860286820F4802075
:103B500028606068A8B1FFF741FE06460DE02868BE
:103B600040F48030F4E740F480202860F7E700BF9D
:103B7000FFF734FE801B642873D828688003F7D5CC
:103B80000CE0FFF72BFE064605E000BFFFF726FE20
:103B9000801B6428F0D828688003F7D42078DFF8E9
:103BA000AC8280074FF0000A3ED5A748001D01688F
:103BB00011F00C0F08D00068C0F3810002280BD16F
:103BC000D9F80000400207D42868800716D5E068BD
:103BD000012800D112E033E1E068B8B10120C8F853
:103BE0000000FFF7FBFD064605E000BFFFF7F6FD0E
:103BF000801B0228C0D828688007F7D5286821696B
:103C000020F0F80040EAC10028600DE0C8F800A0EC
:103C1000FFF7E4FD064604E0FFF7E0FD801B022805
:103C20001FD828688007F7D42078000722D5864F50
:103C300087486169703771B101210160FFF7CEFDDE
:103C4000064604E0FFF7CAFD801B022809D8386841
:103C50008007F7D50EE0C0F800A0FFF7BFFD0646CD
:103C600005E082E0FFF7BAFD801B02287DD83868A6
:103C70008007F7D42078400768D5DFF8CCB100275B
:103C80000BF13C0BDBF80000C0000BD4DBF800109C
:103C900041F08051CBF80010DBF80000012700F064
:103CA000805000906B4E3068C00510D4306840F4EE
:103CB00080703060FFF792FD009005E0FFF78EFD09
:103CC0000099401A022850D83068C005F6D55E4EDB
:103CD000A0686C3601280FD00528306810D020F07D
:103CE00001003060306820F004003060A068B8B196
:103CF000FFF774FD00900FE0306840F00100F4E73A
:103D000040F004003060F7E7FFF768FD0099411AC2
:103D100041F28830814266D830688007F4D50EE0E1
:103D2000FFF75CFD009007E0FFF758FD0099411A8E
:103D300041F28830814256D830688007F4D42FB1E0
:103D4000DBF8001021F08051CBF80010A069C8B357
:103D50003D49091D0968C1F3810102294AD00228A1
:103D6000504607D0C8F8600000E03CE0FFF736FDA1
:103D700004463BE04746C8F86000FFF72FFD0646C3
:103D800005E000BFFFF72AFD801B02282BD828681A
:103D90008001F7D4D4E907010843A16A2E4A4908F3
:103DA00002EB0141626A41EA8211084394F82C1047
:103DB00040EA0161C9F8001001203866FFF70EFDE6
:103DC000044606E03EE000BFFFF708FD001B0228A6
:103DD00009D828688001F7D534E000BFFFF7FEFC62
:103DE000001B022802D90320BDE8F88F2868800153
:103DF000F4D427E00128F7D0D9F80000E26900F4F4
:103E0000800191421CD1226A00F03F01914217D1FA
:103E100047F6C071626A0140B1EB821F10D1A26AFD
:103E20004FF0FF3300F4403103EB5202B1EB024F8D
:103E300006D194F82C1000F07060B0EB016F01D047
:103E40000120D1E70020CFE70438024000004742BC
:103E5000800E4742007000400000FFFF70B5040074
:103E600009D0606A002540B125616561A56294F8BA
:103E7000510040B10CE0012070BD6068B0F5827F58
:103E8000F4D0E561F2E784F85050204600F044F8A1
:103E9000022084F851002068016821F0400101608F
:103EA000A088218900F4827001F404410843A189AB
:103EB00001F400610843217C01F002010843217DE7
:103EC00001F001010843218B01F400710843217FB7
:103ED00001F03801084394F8201001F080010843F4
:103EE000218D01F40051084321680860A069042174
:103EF00001EA104094F8241001F0100108432168F1
:103F000048602068C16921F40061C16165650120D4
:103F100084F85100002070BD10B586B0044614210D
:103F20006846FCF73BFC13492068884220D11248C0
:103F30000021026842F480520260006800F4805060
:103F400005900D481438026842F0010202600068D2
:103F500000F001000590E02000900220CDE9010171
:103F6000032003900520049069460448FFF734FBC2
:103F700006B010BD0030014044380240000002404D
:103F80002DE9F84F984616468A460446FFF726FC68
:103F9000814694F8510001281ED1BAF1000F73D068
:103FA000002E71D094F85000012815D0012784F814
:103FB0005070032084F8510000256565C4F830A0D6
:103FC000A686E686A563A587E58765642564A0685F
:103FD000B0F5004F03D00CE00220BDE8F88F206858
:103FE000016821F0400101602068016841F48041CE
:103FF000016020680168490603D4016841F040016E
:104000000160E068B0F5006F606803D048B3012E2E
:1040100027D047E008B1012E1FD1206B216800880E
:10402000C86006E020688168890709D5216B098886
:10403000C160206B801C2063E08E401EE0860CE097
:10404000FFF7CCFBA0EB0901414503D3B8F1FF3FDB
:1040500003D035E0B8F1000F32D0E08E0028E1D176
:1040600023E0206B21680078087306E020688168EF
:1040700089070AD5216B09780173206B401C2063E6
:10408000E08E401EE0860DE02BE0FFF7A7FBA0EBE3
:104090000901414503D3B8F1FF3F03D010E0B8F167
:1040A000000F0DD0E08E0028E0D14A464146204660
:1040B00001F090FA08B120206065A06830B109E0F5
:1040C00084F8517084F85050032086E72068C16856
:1040D0008068009084F8517004F8505F6068002890
:1040E000F3D0012079E72DE9FF4F81B01D469346BB
:1040F00004464FF001090E9EFFF770FB074694F847
:1041000051006168012806D0B1F5827F3CD1A168D9
:10411000C9BB042838D10298002871D0BBF1000F28
:10412000FBD0002DF9D094F8500001282CD04FF08E
:10413000010A84F850A094F85100042802D0052008
:1041400084F851004FF00008C4F85480C4F838B027
:10415000E587A58702992163E586A586C4F8408096
:10416000C4F8448020680168490603D4016841F01E
:1041700040010160E068B0F5006F606808D0F0B3FE
:10418000012D49D081E0FFE7022005B0BDE8F08FA6
:1041900008B1012D39D1206B21680088C860206BDF
:1041A000801C2063E08E401EE0862EE0206881683F
:1041B00089070FD5E18E69B1B9F1010F0AD1216BE1
:1041C0000988C160206B801C2063E08E401EE08661
:1041D0004FF0000920688168C9070CD0E18F51B108
:1041E000C068A16B0880A06B801CA063E08F401E9C
:1041F000E0874FF00109FFF7F1FAC01B01E00BE087
:1042000067E0B04201D3701C50D1E08E0028CDD1C0
:10421000E08F0028CAD13EE0206B21680078087347
:10422000206B401C2063E08E401EE0862DE020685D
:10423000816889070FD5E18E69B1B9F1010F0AD103
:10424000216B09780173206B401C2063E08E401EB7
:10425000E0864FF0000920688168C9070CD0E18F23
:1042600051B1C068A16B0870A06B401CA063E08FC7
:10427000401EE0874FF00109FFF7B0FAC01BB042C3
:1042800002D3701C01D011E086B1E08E0028CED19F
:10429000E08F0028CBD13A463146204601F09AF90A
:1042A00050B12020606584F8508012E084F851A05D
:1042B00084F85080032068E7A06818B92068C168B6
:1042C0008068009084F851A084F85080606D0028C8
:1042D000F1D0012059E710B5401EB0F1807F01D325
:1042E000012010BD4FF0E02460610F21601701F044
:1042F000FFFD0020A06107202061002010BD2DE9F6
:10430000F84F044690F84200DDF828901F46154605
:104310000E46202802D00220BDE8F88FF6B1EDB19C
:104320004FF00008C4F84480222184F84210012193
:104330002163C4F83480FFF751FAA5858246E585EC
:10434000A0684FF4805B584501D1206940B13546E3
:104350000026A7F800804FF020083AE00120DBE7B4
:104360000025F6E720680168C9060AD5016841689A
:104370000091398829B10220606384F842800020CE
:10438000CAE70168890618D525B1A168594528D022
:1043900031B107E04068C0F3080026F8020B06E0E0
:1043A0002169F1B1406800F07F0005F8010B388801
:1043B000401C3880E08D401EE085B9F1FF3F08D0F9
:1043C000FFF70CFAA0EB0A0149450CD8B9F1000F30
:1043D00009D0E08D0028C5D1A08DE18D401A38802C
:1043E000CBE74068E1E784F84280032094E770B5AA
:1043F000040004D094F84100002510B106E001202B
:1044000070BD84F84050204600F024F8242084F841
:1044100041002068C16821F40051C160204601F0CC
:1044200045FA2068016921F49041016120684169E1
:1044300021F02A0141612068C16841F40051C16046
:104440006564202084F8410084F842006563002000
:1044500070BD0000F0B587B0044614216846FCF733
:104460009DF9304B276800222F4902240325072697
:104470002E489F4219D12C4B14331F6847F0100768
:104480001F601B6803F0100305930B6843F00103E2
:104490000B60096802AB01F0010105916902CDE9E9
:1044A000001483E8640069461AE01F4BDFF880C0FF
:1044B0001033674518D11F6847F400371F601B6829
:1044C00003F4003305930B6843F001030B600968A4
:1044D00001F0010105910C21CDE9001469461CE0B1
:1044E000FFF77AF807B0F0BD12488742FAD1186892
:1044F00040F480201860186800F480200590086857
:1045000040F0020008600868694600F0020005906B
:104510004FF44060CDE90004074802AF87E864002B
:10452000DEE7000000100140303802400000024089
:104530000044004000480040000402402DE9F843D8
:10454000044690F84100984616460D46202802D0B1
:104550000220BDE8F88385B17EB10020606421208F
:1045600084F84100FFF73AF9A6848146E684A06802
:104570002027B0F5805F02D003E00120E9E7206941
:1045800010B12E4600250EE000260CE080212046CA
:1045900001F012FAA8B9C6B116F8010B21684860FB
:1045A000E08C401EE084E08C4B464FF00002CDF8DA
:1045B00000800028EAD14FF04001204601F0FCF9CC
:1045C00040B184F841700320C3E735F8020BC0F313
:1045D0000800E3E784F841700020BAE770B516469A
:1045E0000C00054627D0082E25D30921012001F013
:1045F000CDFCA84206D132462146BDE870400120DC
:1046000000F01EB80121084601F0C0FCA84212D1FA
:10461000204602F057F90849486008492079487057
:10462000891D60794870891D01204870FFF7D6F810
:1046300001491831486070BDD00A0020AA0000204E
:1046400070B50D46044606281ED2002D1CD0082A3F
:104650001AD3084602F036F901F09AFE0B4804EB33
:10466000440100EBC106281D86ED000A02F02AF97C
:1046700001F08EFE064986ED010A01200855FFF77C
:10468000ADF8044941F8240070BD0000280A00205C
:10469000A4000020B80A00202DE9F0411E461400B5
:1046A0000D46074621D0022E1FD3FFF797F8204969
:1046B00002460F611F4801237D2D18D07C2D16D096
:1046C000082E12D37F2D1FD0E32D0ED165886DBA31
:1046D0000581A5886DBA4581E48864BA8481C37375
:1046E000426182618868401C8860BDE8F08124884E
:1046F00064BA0480002444808480C480048144819E
:1047000084818373C4730CE025886DBA0580658845
:104710006DBA4580A5886DBA8580E48864BAC48086
:1047200083730377026182614868401C4860DCE75C
:1047300090000020000B0020164886B00168491C3C
:104740000160154D154E164FDFF85880164C4FF08E
:104750000009142215A16846FBF7EEFF2868B04255
:1047600005D13223102269460B48FFF7E7FE39686E
:10477000414505D13223102269460948FFF7DEFE84
:104780004846CDF8149000BF401C0590A042FAD3D3
:10479000DFE700001C000020400900200048004026
:1047A000F80800200044004000350C003939393841
:1047B0002C484152444641554C540D0A000000001B
:1047C00000281DD080F8C110002919D1016E0029E0
:1047D00016D090ED1E0A012180ED2F0A80F8C0103E
:1047E00090F8D020002A0BD180ED200A9FED050A19
:1047F00080ED240A80ED310A80ED320A80F8D01075
:1048000070470000000000002DE9F0411E462DED2C
:10481000028BB0EE608ADDF82080F0EE408A15460B
:104820000F46040027D0D421FBF7B8FF2760A580EE
:10483000C4ED028A84ED048AC4E905689FED100A7C
:10484000DFED100A84ED2E0AB1EE080A84ED280A85
:104850009FED0D0AC4ED290A84ED210AC4ED220A58
:10486000B7EE000A84ED230A002084F8C100A58673
:10487000E08684F8D000BDEC028BBDE8F08100003A
:1048800000000000EC51383EB81E053F002824D03F
:104890008188818690F8D0200021FAB1134A9FEDDB
:1048A000140A1279E2B10121DFED120AC186C0EDCE
:1048B000110ADFED110AC0ED120A90F8C220002A99
:1048C0000BD180ED310A80ED320A80ED240A90EDA3
:1048D000200A80ED100A80F8C2107047C186704728
:1048E000C18680ED110A80ED120A70470400002095
:1048F00000000000B81E053FEC51383E7CB50400B6
:104900007ED0606900287BD0A169002978D0D4EDE1
:104910002E0A6A4630EE800A01F008FD94ED2E0A58
:10492000D4E9050101AA01F001FD4C4D606905F1D2
:104930008006A84202D19FED4A0A06E0B04202D1A9
:104940009FED480A01E0B7EE000ADDEC020AA8423A
:10495000454970EEC10A20EE200AD1ED130A20EE7F
:10496000200A04D19FED411AF9EE040A05E0B04295
:1049700005D1B3EE081AFBEE080A01F058FC606995
:10498000A84202D1DFED3A0A06E0B04202D1DFEDE3
:10499000390A01E0DFED380A9FED381A94F8C200B9
:1049A000012160EE810A28B99FED351A84ED241AA1
:1049B00084F8C210D4ED241A31EEA01AB4EEC01A55
:1049C000F1EE10FA02D284ED241A0BE071EEE00A47
:1049D000F4EEC00AF1EE10FA02DDC4ED240A01E0A3
:1049E00084ED240AD4ED210A264A10EE900A904262
:1049F00005DA9FED251A70EE810AC4ED210A00E068
:104A00002AE010EE900A904203DDDFED200AC4EDAB
:104A1000210AA088A086E186C4ED110ADFED1C0AF8
:104A2000C4ED120ADDEC020A70EEC10A9FED191AFC
:104A3000C4ED320A84ED310AD4ED240A94ED020A61
:104A400060EE810A94ED041A60EE200A94ED200ACB
:104A500000EE810A84ED100A7CBD00009C6900080C
:104A60001F856B3F9A99593F040000200000844243
:104A70000000A04300007043000070420BD7233CAD
:104A800000000000B81E053F6F12033BB81E053F33
:104A9000EC51383E35FA8E3C2DE9F04FC0F3404BD7
:104AA000C0F3004290B08BEA0201C0F3C03359401A
:104AB000C0F3003503916940C0F3802A81EA0A01FE
:104AC000C0F3801981EA0901C0F3401C81EA0C019E
:104AD00000F001046140CDE90B19C0F3403883EACE
:104AE00008016940C0F3C0267140C0F3C01781EAD5
:104AF0000A01794081EA0C01C0F3400E81EA0E01FF
:104B00006140C0F380340A9782EA04070E9187EA75
:104B100008076F40C0F3002177404F400D91DDF84A
:104B200030908BEA030187EA0907C0F380096140EE
:104B300087EA090781EA080187EA0E0E6940C0F397
:104B4000402B0A9F81EA0B017940C0F3C005694000
:104B50005A4081EA0907624082EA08020D9982EA16
:104B60000A024A400399C0F300106140714081EA93
:104B70000B01424081EA0C016A4041404801CDF8F6
:104B8000309040EA021040EAC7000E9940EA8E00D9
:104B900040EA41000B9910B00843BDE8F08F0000D7
:104BA0002DE9F0410C00074628D0C7F3911606F016
:104BB0000F0507F03F083046FFF76EFF310900EEA2
:104BC000101ADFED110A2760B8EE400AA18005F047
:104BD000030120EE200ADFED0D0A20EE200A84ED0D
:104BE000020A2173C5F380016173E908A17384F897
:104BF0000F802074804504D1012003E00020BDE82F
:104C0000F08100206074FAE70000B44300008038AF
:104C100008B50020009000BF401C00903028FAD357
:104C200008BD0000012210210148FEF7D2BD00009E
:104C300000100240012204210148FEF7CABD000015
:104C400000100240002204210148FEF7C2BD00000E
:104C500000100240002210210148FEF7BABD0000FA
:104C6000001002402DE9F04106007DD00024FFF73E
:104C7000E1FFFFF7CDFFFFF7EDFFFFF7C9FF3D4D68
:104C8000002700BFFFF7DEFFFFF7C2FF640020210F
:104C90002846FEF799FD012801D144F00104FFF7F1
:104CA000C9FFFFF7B5FF7F1CFFB2182FEAD3FFF74C
:104CB000B9FFFFF7ADFF20463146FFF771FF00282F
:104CC00051D10024FFF7B6FFFFF7A2FFFFF7C2FFA5
:104CD000FFF79EFF0027640020212846FEF774FDA1
:104CE000012801D144F00104FFF7ACFFFFF790FF6A
:104CF000FFF7A0FFFFF78CFF7F1CFFB2182FEAD34E
:104D0000FFF790FFFFF784FF20463146FFF748FF8B
:104D100048BB0024FFF78EFFFFF77AFFFFF79AFFEB
:104D2000FFF776FF5FF00007FFF78CFFFFF770FFDC
:104D3000FFF780FFFFF76CFF640020212846FEF795
:104D400043FD012801D144F001047F1CFFB2182F5C
:104D5000EAD3FFF767FFFFF75BFF20463146FFF717
:104D60001FFF707C00B100E002E00020BDE8F08190
:104D70000120FBE70010024010B50F4C0D482060E9
:104D80002046FDF7B9FE0020A060E06020760121FA
:104D90006176A076E176207760772046FEF771FA9B
:104DA000002806D02046FEF7CBF8044940F04140E9
:104DB000086010BD00640040100100208800002041
:104DC00010B50F4C0D4820602046FDF795FE0020E1
:104DD000A060E060207601216176A076E176207700
:104DE00060772046FEF74DFA002806D02046FEF7F1
:104DF000A7F8044940F04240086010BD0068004038
:104E000038010020C00000202DE9F043394887B068
:104E10000024016841F001010160016801F0010115
:104E20000591016841F002010160016801F0020191
:104E30000591016841F008010160016801F0080175
:104E40000591016841F0100101600068142100F033
:104E5000100005906846FBF7A1FC274F00220221B5
:104E60003846FEF7B6FCDFF8948001221146404632
:104E7000FEF7AFFC012202214046FEF7AAFCDFF854
:104E80008090012210214846FEF7A3FC0122042154
:104E90004846FEF79EFC02200126CDE900060325C8
:104EA00069463846CDE90245FEF796FBCDE9005646
:104EB00069464046CDE90245FEF78EFB0C20CDE960
:104EC0000004694640460294FEF786FB1420CDE9B3
:104ED000000669464846CDE90245FEF77DFB2020E5
:104EE000CDE90004694648460294FEF775FB07B019
:104EF000BDE8F08330380240000402400000024068
:104F0000001002400C480B494FF4007201604FF44E
:104F10008271416000218160C1600161C0E90512B8
:104F20003822C0E90721416281620721C162FEF790
:104F300095BF000000300140880900200948084959
:104F4000016009494160002181600C22C160C0E913
:104F5000041281614FF40041C161FFF748BA0000BB
:104F600000100140E009002000093D000848074901
:104F700001604FF4E1314160002181600C22C16089
:104F8000C0E904128161C161FFF731BA00440040F9
:104F9000F80800200848074901604FF4E1314160FA
:104FA000002181600C22C160C0E904128161C161ED
:104FB000FFF71DBA0048004040090020FEE7704797
:104FC00005498A7B2AB10969401AFA2801D80120CB
:104FD0007047002070470000000B0020324910B5D8
:104FE0008A7B324CDFED320A94ED080A1AB10A6965
:104FF000801AB42808D9C4ED090ADFED2E0A20EE84
:10500000200A84ED080A10BD088801EE100AA07875
:10501000F8EE411A40B194ED072AE07871EEC22A09
:10502000B0EEE21A48B117E0C4ED071AC4ED080A61
:10503000C4ED090A0120A07010BD11EE100A1E492E
:10504000884209DA9FED1D1A02EE812A84ED072AB3
:1050500031EEC21AB0EEC11A84ED0A1AB4EEC01ACB
:10506000F1EE10FA02DDDFED161A01E0DFED151AA0
:1050700031EE401A01EE810AB1EE081A84ED080AF9
:1050800030EE411AB5EEC01AF1EE10FA01D2B0EED0
:10509000601AF3EE091A81EE210AB7EE001A01F048
:1050A000C6F884ED090A10BD000B002004000020A2
:1050B0000000000085EB513F0000C84117B7513A8E
:1050C000CDCC4C3FCDCCCC3D2048B0F90210B0F94E
:1050D000042000EE101A1E49B8EEC00AD1ED1A0ADB
:1050E00030EE600A00EE902A91ED1B1AB0F906002E
:1050F000F8EEE00A30EEC11A00EE900AD1ED1C1A6B
:10510000B0EEC00AF8EEE00AB0EEC11AB4EEC01A72
:1051100070EEE10AF0EEE00AF1EE10FA01DDB0EE19
:10512000410AF4EEC00AF1EE10FA01DDB0EE600AB9
:1051300010EE100A0749884201DD9FED070ABDEE17
:10514000C00A10EE100A00B270470000000B0020E9
:105150000400002000FEFF4600FEFF461A49002220
:105160009FED1A0A8A71C1E91502CA650A664A6684
:1051700081ED1A0A81ED1B0A81ED1C0A8A7081ED0E
:10518000070A81ED080A81ED090A81ED0A0ACA7051
:1051900081ED0C0A81ED0D0A81ED0E0A81ED0F0AF9
:1051A000A0F28B230B6400F596634B640A7181EDCA
:1051B000130A81ED140A81ED120A4A67C1E91E2023
:1051C000012048717047000004000020000000002A
:1051D0002DE9F041414C0546606D10B92846FFF7B6
:1051E000BDFF2846FFF7ECFE00286DD0012262715A
:1051F0003B49B1F90200E36DC618E665B1F9040058
:10520000236E03442366B1F90600676E07446766A0
:10521000A06D401CA06594F802C00988BCF1000F85
:1052200000EE101A54D0F8EE400A94ED070A9FEDF4
:105230002D1A70EEC00A00EE810A84ED070A616D36
:10524000691AB1F5967F41D314283FD300EE106A56
:10525000F8EEC00A00EE100AB8EE400A80EE801A9E
:1052600000EE103AF8EEC00A00EE100AB8EE400A5E
:1052700084ED1A1A80EE801A00EE107AF8EEC00A59
:1052800000EE100A0220B8EE400A84ED1B1A80EEF0
:10529000801A84ED1C1AA271607100209FED120A21
:1052A000E07084ED0C0A84ED0D0A84ED0F0AA5F27E
:1052B0008B21216405F5966161642071E562C4E982
:1052C0001D500120BDE8F081052060710020F9E744
:1052D000B8EE400A84ED070AA270B0E7040000208F
:1052E000000B00200AD7A33C000000001CB50020E2
:1052F00000900190FEF772FA0446082269461020D9
:1053000000F07AFE0449087004480168491C0160F5
:10531000034804601CBD0000CC000020C800002031
:10532000F40000202DE9F04105462DED028BFFF73A
:1053300047FE00269FED638A634C28B3A0790028BE
:1053400028462CD0FFF74AFEFFF7BEFE00EE100AFB
:10535000B8EEC00ADFED5D0A70EE600A9FED5C1AE0
:1053600080EE810AB7EE001AF0EE480A00F05FFF07
:105370005848F0EE401A817B19B10269A91AB42984
:1053800010D9B0EE480A0FE005206071E67084ED98
:105390000C8A84ED0D8A84ED0E8AA6678FE0FFF7F4
:1053A00017FF8CE094ED090A0088C4ED0E1A00EE98
:1053B000900A606CF8EE600A281A0AD584ED0F0A8C
:1053C000A5F28B252564E67084ED0C8A84ED0D8AA8
:1053D00073E094ED0F1A10EE903A3F4A30EE411A06
:1053E00000203E490127934203DB10EE103A8B4226
:1053F0000DDA10EE903A93420DDB10EE102A384B86
:105400009A4208DB11EE102A364B9A4203DB2564E0
:10541000277101206667226C40F28A23AA1A9A42F9
:1054200003D80122F0EE400A02E00022F0EE480A22
:1054300028B110EE900A884201DADFED2B0A94EDD4
:105440000D1AB4EEE01AF1EE10FA70EEC10A02D2B3
:105450009FED262A01E09FED262A00EE821A84EDB8
:105460000D1A84ED0F0AFAB1DFED220A234921EE6D
:10547000200ADFED210A01EEA00A10EE100A884290
:1054800001DA9FED1F0AB7EE001AF0EE480A00F0AD
:10549000CEFE84ED0C0AE7700320E5626071012006
:1054A000BDEC028BBDE8F081E67084ED0C8AC4E9A6
:1054B0001E65207908B1042000E002206071002000
:1054C000EEE70000000000000400002000007A4326
:1054D00000C05A45000B0020000060417B142E3EA6
:1054E000295C0F3E9A99993D7B142E3ECDCC4C3FC2
:1054F000295C8F3E6666663FCDCCCC3D3333B33EF0
:105500003333B33E704700002DE9FC4106004FF0F5
:1055100000000D46ADF8040055D0002D53D03046A4
:1055200001F0EAF8294C6FF00F0720680760206847
:1055300000E041680168C9438906FAD501684068FE
:10554000DFF88C800090012202214046FEF741F9ED
:105550000323112231461D48FEF7F0FFFEF73EF906
:1055600006460CE0FEF73AF9801B032807D9002213
:1055700002214046FEF72DF90320BDE8FC8120689A
:105580000068C0434006EDD4002202214046FEF7E9
:1055900020F920680760206840680320009001AB74
:1055A000102229460948FEF7AAFE0028E5D1BDF8D9
:1055B0000400102807D1284600F05CFE18B1102026
:1055C00028610020D9E70120D7E70000E00900208A
:1055D00000040240F8B515460E460B4600920446FC
:1055E0000122022100F02CF8A0B9134813490068E9
:1055F000B0FBF1F04FF47A71484300906068B0F569
:10560000827F0DD13346002280212046009500F094
:1056100017F870B1606D40F0200060650320F8BDA0
:10562000009830B1401E009020688068C04300069A
:10563000F6D50020F8BD00000C01002000366E01F8
:105640002DE9F8431E46914688460446089DFEF71C
:10565000C5F8401B351AFEF7C1F807462648006812
:10566000C0F3CB3068430AE0701C09D0FEF7B6F8EF
:10567000C01BA8420FD275B10098B8B3401E00906D
:105680002068816838EA010033D000214945EBD118
:105690000020BDE8F8832068416821F0E001416006
:1056A0006068B0F5827F0BD1A068B0F5004F02D0E2
:1056B000B0F5806F04D12068016821F040010160DD
:1056C000A06AB0F5005F09D12068016821F400519B
:1056D00001602068016841F400510160012084F8F4
:1056E0005100002084F850000320D2E7FFE7002596
:1056F000C6E70121CAE700000C0100207047FEF751
:1057000073B8000070B59EB030216846FBF746F8CC
:1057100014210CA8FBF742F82B480025016841F042
:1057200080510160006800F08050119027480168A6
:1057300041F4804101600068012600F4804011902E
:105740003004CDE9006002248001CDE90640082044
:1057500008904FF4A070CDE9090404200B9068462E
:10576000FEF7C6F9E8B1302111A8FBF717F830228F
:10577000174911A8FAF7E0FF302211A96846FAF795
:10578000DBFF102000940694CDE90360CDE90750BB
:105790004FF4A870CDE9090407200B906846FEF786
:1057A000A7F90CA90F2081E831004FF4A0500F9009
:1057B0004FF48050109005210CA8FEF7AFF800F0D0
:1057C00009F81EB070BD0000403802400070004073
:1057D0006C69000870B5194C2068194A10F00C016A
:1057E000184804D05510042903D0082903D00260BA
:1057F0001BE0056019E01149091F0B68C3F38056CF
:105800000B6803F03F0316B1B5FBF3F201E0B2FB06
:10581000F3F20B680968C3F388135A43C1F30141DB
:10582000491C4900B2FBF1F101602168064AC1F34D
:105830000311515C0268CA40026070BD0838024022
:105840000024F4000C0100200C6D000802480168DF
:1058500041F470010160704788ED00E001680C318F
:1058600051E8002F22F4907241E80023002BF5D17B
:105870000168143151E8002F22F0010241E80023B1
:10588000002BF5D1016B012909D101680C3151E8D8
:10589000002F22F0100241E80023002BF5D1202137
:1058A00080F84210002101637047000070B5044683
:1058B00000680169E26821F44051114301612169E6
:1058C000A068E26908436169114308432168CA6816
:1058D00049F20C639A430243CA6020684169A26995
:1058E00021F440711143416131492068884202D05E
:1058F0003049884202D1FEF7BBF801E0FEF7A8F874
:10590000E2690023192164253226B2F5004F62684E
:1059100028D0A0FB0101930F9200FAF7FBFC01468F
:10592000B0FBF5F06FF01802504301EB800006EB7E
:105930000010B0FBF5F000F0F002B1FBF5F002EB67
:105940000012B1FBF5F06FF01803584301EB800033
:1059500006EB0010B0FBF5F000F00F0021681044DA
:10596000886070BDA0FB010192185B41FAF7D2FC80
:105970000146B0FBF5F00201B1FBF5F06FF0180342
:10598000584301EB800006EBC000B0FBF5F000F0DF
:10599000F80002EB4002B1FBF5F0584301EB800048
:1059A00006EBC000B0FBF5F000F00700D6E7000002
:1059B00000100140001401402DE9F84398461746B5
:1059C0000D460446089E24E0701C22D0FDF706FF19
:1059D000A0EB0800B0421AD8CEB12068C1684907D0
:1059E00017D5802D15D0402D13D00168C943090764
:1059F0000FD401680025406800902046FFF72EFF75
:105A00000820606484F840500120BDE8F88303203A
:105A1000FBE72068006835EA000004D00020B842A7
:105A2000D2D00020F1E70120F9E7000010B58AB0DC
:105A30000020059006900090019002900390049041
:105A40000120079008900E20099069460F48FDF745
:105A5000BBF90F4C10B14CF2011014E00B48FDF7EC
:105A600045FD20B10948FDF76BFA0A490AE048F202
:105A70000E410648FDF738F9002805D00348FDF728
:105A80005FFA0549084320600AB010BD10010020EC
:105A900088000020000002C1000003C110B58AB0D8
:105AA0000E210020CDE90510009001900290039096
:105AB00004900120CDE90801079069460F48FDF7E1
:105AC00083F90F4C10B14CF2012013E00B48FDF7A5
:105AD0000DFD20B10948FDF733FA0A4909E002211A
