:020000040800F2
:10000000202C0020D5020008274F0008AD4700082B
:10001000254F0008C52A0008115D000800000000F7
:10002000000000000000000000000000115900085E
:10003000292B000800000000195700081359000878
:10004000EF020008EF020008EF020008EF020008CC
:10005000EF020008EF020008EF020008EF020008BC
:10006000EF020008EF020008EF020008EF020008AC
:10007000EF020008EF020008EF020008EF0200089C
:10008000EF020008EF020008EF020008ED2A000866
:10009000C92A0008D52A0008E12A0008EF02000852
:1000A000EF020008EF020008EF020008EF0200086C
:1000B000EF020008EF020008EF020008EF0200085C
:1000C000EF020008EF020008EF020008EF0200084C
:1000D000EF020008EF020008EF020008EF0200083C
:1000E000EF020008EF020008EF020008EF0200082C
:1000F000EF020008EF020008EF020008EF0200081C
:10010000EF020008EF020008EF020008EF0200080B
:10011000EF020008EF020008EF020008EF020008FB
:10012000EF020008EF020008EF020008EF020008EB
:10013000EF020008EF020008EF0200081D2B000884
:10014000F92A0008052B0008112B0008EF0200080F
:10015000EF020008EF020008EF020008EF020008BB
:10016000EF020008EF020008EF020008EF020008AB
:10017000EF020008EF020008EF0200080000000094
:10018000EF020008EF02000800F002F800F092F819
:100190000AA090E8000C82448344AAF10107DA45E2
:1001A00001D100F087F8AFF2090EBAE80F0013F0A2
:1001B000010F18BFFB1A43F001031847A86C000099
:1001C000C86C0000103A24BF78C878C1FAD852072A
:1001D00024BF30C830C144BF04680C6070470000C1
:1001E0000023002400250026103A28BF78C1FBD840
:1001F000520728BF30C148BF0B6070476E2900F01E
:100200008B83702900F0D584662906F08C836529DC
:1002100006F08983672906F08683612906F08583C5
:1002200003681B0A28BF41F08001692900F0208182
:10023000642900F01D81752900F01A816F2900F0F2
:100240006284782900F0A184E92900F0FD83E42983
:1002500000F0FA83F52900F0F783EF2900F05F84BE
:10026000F82900F0A0840368DB0928BF41F0800171
:10027000632901F0BB80732901F0C080E32901F0FC
:10028000CB80F32901F0D080002070471FB506F025
:1002900045FB01F01FF904000020002106F028FBB7
:1002A000401C60600020002106F00CFBE0601FBDD8
:1002B00010B510BD01F0E0F81146FFF7E7FF06F0BA
:1002C000A5F901F0BDF903B4FFF7F2FF03BC01F09B
:1002D00001FA00000948804709480047FEE7FEE7A9
:1002E000FEE7FEE7FEE7FEE7FEE7FEE7FEE7FEE7E6
:1002F00004480549054A064B70470000B9590008F3
:1003000089010008200A0020202C0020200C002059
:10031000200C002053EA020C00F069802DE9F04B1C
:100320004FF00006002B1FBFB3FA83F503FA05F464
:1003300024FA05F65E4012BF1643B2FA82F502FABD
:1003400005F4C5F120051EBF22FA05FC44EA0C04A1
:10035000203556EA044C4FEA144418BF641C4FF091
:1003600000084FF00009904271EB030C39D30029CB
:1003700019BFB1FA81F701FA07F6B0FA80F700FA6F
:1003800007F6C7F120071EBF20FA07FC46EA0C0655
:100390002037B6FBF4FCA7EB0507103F07F01F0B57
:1003A000CBF120060CFA0BFB2CFA06F644BFB34641
:1003B0000026202FA4BF5E464FF0000B5BEA060C20
:1003C00008BF4FF0010B19EB0B09ABFB027C48EBAC
:1003D0000608C01B06FB02CC0BFB03CC71EB0C0127
:1003E000C1E70B46024641464846BDE8F08B13B5CF
:1003F0004FF000004FF00001AFF30080BDE81C405B
:10040000704700007CB51D4616460C00009001D0D8
:100410002044401E074B7B442A46694601903046E3
:1004200000F093FA05461CB10020694600F0A0FADE
:1004300028467CBD610500000FB47CB50C0009AAFC
:10044000009001D02044401E084B7B446946019037
:10045000089800F07AFA05461CB10020694600F0C1
:1004600087FA28467CBC5DF814FB00002D050000CF
:100470002DE9F0410646002410687529314616A57D
:1004800010D000F0B5F9002802DA404213A507E0C9
:1004900031688A0701D512A502E0490704D511A5E4
:1004A000012401E000F0ADF900210A2206F1240741
:1004B00009E0B0FBF2FCB0FBF2F302FB1C003030B1
:1004C00078541846491C0028F3D123462A46304662
:1004D000BDE8F04100F0C7B9000000002D000000A9
:1004E0002B000000200000002DE9F05F8946044643
:1004F0004FF0000ADFF874B1FB44C0F820A020469A
:10050000E1688847002874D0252806D0D4E9012165
:100510009047206A401C2062F1E700265F46204693
:10052000E16888472028054607DB312D05D2781978
:1005300010F8200C08B10643F1E7B00701D526F00A
:100540000406C4F81CA00027C4F818A02A2D09D05E
:10055000284605F06EFC38B304EB8708303DC8F838
:10056000185019E059F8041B204604EB87029161EA
:10057000E1688847012F054618D1E069002820DA94
:1005800026F020061DE0D8F8180000EB800005EBEF
:1005900040003038C8F818002046E1688847054612
:1005A00005F047FC0028EED1012F0AD02E2D08D1EE
:1005B0002046E16888477F1C0546022F46F020064A
:1005C000C4DBA069002803DA404246F00106A061BE
:1005D000F00701D026F010066C2D0BD0682D09D045
:1005E0004C2D39D06A2D35D0742D35D07A2D33D09D
:1005F00016E038E0E1682F4620468847B8420546B5
:1006000009D16C2F26D04FF48060E1680643204664
:100610008847054604E06C2F1AD04FF480700643DB
:100620000DB3A5F14100192802D8203546F4006623
:100630004A462946204626604E46FFF7DFFD80B138
:1006400001280BD0F61D26F0070000F1080956E737
:100650004020E4E78020D8E70020D6E706F104092F
:100660004DE7284652E7206ABDE8F09FBC670000CE
:1006700010B5431C02E010F8011B71B18107FAD1DB
:100680004FF0013202C88C1A8C4314EAC211F9D01F
:10069000C01A0A0603D0C01E10BDC01A10BD0A043D
:1006A00001D0801E10BD0902FCD0401E10BD032ADF
:1006B00040F2308010F0030C00F0158011F8013B7F
:1006C000BCF1020F624498BF11F801CB00F8013B66
:1006D00038BF11F8013BA2F1040298BF00F801CB2A
:1006E00038BF00F8013B11F0030300F06D82083AB7
:1006F000C0F0088051F8043B083A51F804CBA0E858
:100700000810F5E7121D5CBF51F8043B40F8043BAC
:10071000AFF30080D20724BF11F8013B11F801CBE1
:1007200048BF11F8012B24BF00F8013B00F801CBB2
:1007300048BF00F8012B70474FF0000200B5134688
:1007400094469646203922BFA0E80C50A0E80C50F1
:10075000B1F12001BFF4F7AF090728BFA0E80C50A2
:1007600048BF0CC05DF804EB890028BF40F8042B9B
:1007700008BF704748BF20F8022B11F0804F18BF08
:1007800000F8012B704770477047704710B500F0B4
:100790004DFA006810BD10B5044600F047FA046039
:1007A00010BD70B5044685690068C10601D53026C4
:1007B00000E02026C00707D070BDD4E901213046F3
:1007C0009047206A401C20626D1EF6D570BD70B542
:1007D000044685690078C00707D170BDD4E90121BE
:1007E00020209047206A401C20626D1EF6D570BD07
:1007F00009684A0501D540B27047C905FCD500B269
:10080000704709684A0501D5C0B27047C905FCD5D3
:1008100080B2704770B50C460546012A05D028788D
:10082000800600D5EA69002302E0012305E05B1C95
:10083000934202D2E05C0028F9D1A869E618C01AF8
:10084000A861286A184428622846FFF7AAFF04E036
:10085000D5E9012114F8010B9047B442F8D328469A
:10086000FFF7B5FF70BD2DE9F0470D46994692465A
:10087000044600F124080168880604D5E06921F0E7
:100880001001216000E00120A84201DD471B00E0CB
:100890000027A1697A1902EB0900081AA0612078E3
:1008A000C00602D42046FFF77CFF002608E0D4E90A
:1008B00001211AF806009047206A401C761C20622D
:1008C0004E45F4DB2078C0060AD52046FFF769FFC5
:1008D00006E0D4E9012130209047206A401C2062C4
:1008E000381EA7F10107F4DC07E0D4E9012118F86C
:1008F00005009047206A401C2062281EA5F10105D2
:10090000F3DC2046FFF763FF2078000602D50220C3
:10091000BDE8F0870120FBE711680268006A530513
:1009200001D508700AE0D30501D5088006E013065A
:1009300003D5C217C1E9000200E00860012070473A
:1009400001694A1C02610878704700B58FB0CDE993
:1009500001310021059105497944CDE90310114683
:100960006846FFF7C1FD0FB000BD0000E5FFFFFFC7
:100970000A6802F8010B0A607047D1E900239A4225
:1009800002D2531C0B601070704700002DE9FF5F0E
:1009900015468A460446DFF8AC80F8440027D8E9BB
:1009A00000103E46CDE9001010E03AF816106A46F5
:1009B00002A800F03DFD411C07D02178890603D52F
:1009C000E269391891420DD80744761C20788006D8
:1009D00002D5E069B84205DDAE42E6DB3AF8160022
:1009E0000028E2D1A069C01BA0612046FFF7D9FE14
:1009F000D8E90010CDE90010002017E03AF81810EF
:100A00006A4602A800F014FDB0F1FF3F81460BD00A
:100A100000250DF1080B05E0D4E901211BF80500C4
:100A200090476D1C4D45F7D308F10100B042804658
:100A3000E4DB206A384420622046FFF7C8FEBDE8A8
:100A4000FF9F00002E6300002DE9F0418046D21D7B
:100A500022F007020025D2E90002F52915A614D0DC
:100A6000011E72F1000106DA0023D0EB030063EBF4
:100A7000020211A608E0D8F800108B0701D50FA6D6
:100A800002E0490701D50EA601251146002408F110
:100A9000240704E000F0CEF830323A55641C50EAE6
:100AA0000102F7D12B46324621464046BDE8F041CF
:100AB000FFF7D9BE000000002D0000002B00000051
:100AC0002000000030B4002100F1240408E002F00E
:100AD0000705D208303542EA4372DB086554491CE9
:100AE00052EA0305F3D10468002310A2250707D5B5
:100AF000A40600D421B1C46901230DA2641EC461FF
:100B000030BCFFF7B0BE10B5044621461068FFF7B1
:100B100078FE02462046BDE810400023D2E7D21DF1
:100B200022F00701D1E90023CCE70000000000001B
:100B300030000000F0B40D460188090502D5214CB3
:100B40007C4402E01F4C7C440E34002100F124065A
:100B500008E002F00F071209E75D42EA03721B0981
:100B60007754491C52EA0307F3D102780023120795
:100B700004D5702D06D009B1022311342246F0BCF1
:100B8000FFF771BE01231034F8E770B504460D4637
:100B900021461068FFF735FE024629462046BDE88B
:100BA00070400023C6E7D21D22F00703D3E90023DB
:100BB000C0E70368126843F0200303600823C361A1
:100BC0000023B7E79061000010B5203AC0F00B8019
:100BD000B1E81850203AA0E81850B1E81850A0E841
:100BE0001850BFF4F5AF5FEA027C24BFB1E818509B
:100BF000A0E8185044BF18C918C0BDE810405FEA0B
:100C0000827C24BF51F8043B40F8043B08BF704786
:100C1000D20728BF31F8023B48BF11F8012B28BF8B
:100C200020F8023B48BF00F8012B7047004870478E
:100C3000BC09002030B5B0F10A024FEA900E71F104
:100C400000034EEA817EB0EB0E0061EB91014FEAAA
:100C5000101E4EEA017E10EB0E0041EB11114FEA1F
:100C6000102E4EEA016E10EB0E0041EB11214FEAFF
:100C7000104E4EEA014E10EB0E0041EB11414018B0
:100C800041F100014FEAD00040EA41704FEAD10142
:100C900010EB80054FEA810444EA907444EB0104B0
:100CA0006D1944EB0404521BA3414FF0000348BFED
:100CB0000A3200D530BD401C41F1000130BD704703
:100CC0002DE9FF4F0C461E464FF0FF378BB0D2E99F
:100CD0000001DDF860800A908A46C1F30A5505B923
:100CE0003D46002108464FF00000BAF1000F00F425
:100CF000400005DA00EB80004FF4400101EA5000AB
:100D00004FEA9059B9F1010F00DDB9460A9850EA4F
:100D10004A000ED044F61050A5F2FF3545432F147B
:100D2000B8F1000F1ED07542291E1EDDC9F1000268
:100D30001CE0B8F1010F4FF0000001D0302103E0BA
:100D4000F24305E02154401CB042FBDB3046002258
:100D5000002121540B99C1F80880C1E900200FB08F
:100D6000BDE8F08FBD1B6D1CDEE74A4600DA694224
:100D700006A800F0F3FB06AB93E8070003AB83E89B
:100D8000070050460A9900F0ACFC8DE80700A0F57A
:100D900000501F3800900398002D0ADD42F21F0119
:100DA0004A460844002303A90390684600F015FF53
:100DB00009E0A0F500504A461F38002303A903901C
:100DC000684600F01FFF8DE807000004000C03D008
:100DD0004FF0FF30410800E01046B8F1000F03D09B
:100DE0000022009215461EE0751E05D4FFF722FF73
:100DF000303262556D1EF9D5B3460122084302D048
:100E000000227F1C04E02078302801D100227F1EC0
:100E1000002A099784D01DE0112D07DAFFF70AFF99
:100E2000303262556D1C50EA0102F5D1084302D000
:100E30000098C8B10EE00021681E05E0235C625CEA
:100E400063542254401E491C8142F7DBAB46A81B69
:100E5000401E0990002004F80B000B98099AC0F876
:100E60000880C0E9002B7AE711264FF0000857E709
:100E70002DE9F04F88460446D21D22F0070191B0BB
:100E8000D1E90001CDE90A0104F08EFF02460B987A
:100E9000C00F01D02D2007E02068810701D52B204D
:100EA00002E0202101EAC000032A099001D0072AAC
:100EB00005DB03464146204600F010FB0BE120789D
:100EC000800601D5E06900E00620B8F1650F814693
:100ED00006D0B8F1660F18D0B8F1670F70D131E0C5
:100EE0000020B9F1110F009001DB112301E009F19D
:100EF00001030AAA01A90CA8FFF7E2FEDDE90C70C4
:100F0000002609F10105834647E001204B46009089
:100F10004FF000470AAA01A90CA8FFF7D1FEDDE9AE
:100F20000DB00C995D46002610B909F101000D18AD
:100F3000B9EB050003D4C0F1FF3609F10105A5EBBB
:100F400009002BE0B9F1010F01DA4FF0010900208F
:100F5000B9F1110F0090484601DD112300E003466E
:100F60000AAA01A90CA8FFF7ABFEDDE90C704D46FB
:100F700000268346207800070AD4AB4500DA5D4698
:100F800001A8012D04DD411911F8011C302907D0F9
:100F90004F4502DA17F1040F04DA012082460FE010
:100FA0006D1EEEE7002F02DCED1B3E4403E0781CD3
:100FB000A84200DD7D1CB81B00F1010A4FF000477C
:100FC0002078000703D4AA4501DB4FF0FF3A002147
:100FD000B7F1004F0DF143088DF8431024D00220E3
:100FE0002B23002F01DA7F422D230A21021EA0F1BC
:100FF000010000DC5FB197FBF1FC97FBF1F201FB14
:101000001C7C17460CF1300C08F801CDEEE7A8F176
:10101000010003702188090501D5452100E0652103
:10102000A0F1010800F8011C09980FA9A1EB08071D
:10103000FF1D00B10120411901EBEA70A16938449C
:10104000081A401EA0612078C00602D42046FFF78F
:10105000A8FB099828B1D4E901219047206A401CD7
:1010600020622078C00622D52046FFF79AFB1EE0BA
:10107000002E04DBB34502DD01A8805D00E03020D6
:10108000D4E901219047206A401C2062761CAAF115
:1010900001005FEA000A0AD100F01CFAC06801688A
:1010A000405CD4E901219047206A401C2062281E40
:1010B000A5F10105DCDC07E0D4E9012118F8010BFA
:1010C0009047206A401C2062381EA7F10107F3DC1C
:1010D0002046FFF77CFB032011B041E62DE9F04FDD
:1010E00004460D46D21D22F0070089B0D0E90097D2
:1010F0004846394604F058FE0246F80F01D02D2329
:1011000007E02068810701D52B2302E0202101EAB6
:10111000C0038DF820300BB1012000E00020032A2D
:10112000824601D0072A04DB2946204600F0D6F982
:101130003FE12078800601D40D2500E0E569C7F382
:101140000A560D2D49DA00214FEA175B08464FF089
:101150000000002F00F4400007DA00EB80004FF49D
:10116000400100EBD07001EA60008115012901DD2A
:101170004FF0FF3100224FEA850CBCF1180F06D367
:101180001346ACF118004FF08052C24003E04FF418
:10119000801323FA0CF30CF10C0CBCF1200F04D3D8
:1011A000ACF1200C09FA0CF001E007FA0CF0002970
:1011B0004FF0004801DD18B90FE00ED140450CD3C7
:1011C00019EB02095F4121B9404502D19F4329EA49
:1011D0000209BBEB175F00D0761C2088000502D502
:1011E0007B48784402E07A487844193808AA3023CA
:1011F00002F80A30037C0AF10101002E0AF1020A0A
:1012000053546A4602DC4FF0300101E04FF03101E7
:101210004FF001088DF8001002D0A6F2FF3603E06F
:1012200059EA470100D06B4E002D02DC21780907F6
:1012300004D54FF002082E218DF80110C44600217C
:101240000BE0C7F303433F01C35C491C6D1E02F86A
:101250000830052908F1010801DA002DF1DC002130
:101260000CE000EB1973491C1B786D1E082902F86D
:1012700008304FEA091908F1010801DA002DF0DC05
:1012800021688B0602D516E0A8F10108E04505DDCE
:1012900002EB080313F8013C302BF5D0B8F1000F36
:1012A00009DD02EB080313F8013C2E2B03D10907DB
:1012B00001D4A8F10108002D05DD3E2102F8081037
:1012C0006D1E08F10108407C002E02F8080008F1AC
:1012D000010804DA2D20764202F8080002E02B20F3
:1012E00002F808000A214FF47A70864208F10108DA
:1012F0000BDB96FBF0F3303302F8083096FBF0F38B
:1013000008F1010800FB136601E0642E0CDB642089
:1013100096FBF0F3303302F8083096FBF0F308F157
:10132000010800FB136601E00A2E06DB96FBF1F0D4
:10133000303002F8080008F1010896FBF1F001FBDB
:101340001060303002F80800A16908F1010808EBCC
:10135000050202EB0A00081AA0612078C00602D438
:101360002046FFF71EFA216A08AE01EB0A00206250
:1013700004E0D4E9012116F8010B9047BAF1010A03
:10138000F7D22078C00602D52046FFF70AFA6E464B
:1013900009E016F8010B3E280FD0D4E9012190474F
:1013A000206A401C2062B8F10108F2D22046FFF703
:1013B0000EFA09B00320BDE8F08F206A28442062AD
:1013C00003E0D4E90121302090476D1EEBD3F8E70C
:1013D000295B000002FCFFFF10B5436913B1AFF3B6
:1013E000008001E0FFF716FA012010BD127800F12D
:1013F00024010A7000224A700122EDE711684FF0C3
:10140000FF32E9E710B5436913B1AFF3008001E0A3
:10141000FFF7BCFA012010BD128800F1240182847C
:101420000022C2840122EDE711684FF0FF32E9E7A4
:1014300070B516460C46054600F044F8036893F86C
:101440000101012806D0FF2C0FD8185D68B10120DA
:101450002C7070BDD3F807013246214603F2071302
:1014600003442846BDE8704018474FF0FF3070BD78
:1014700000487047BC0900207546FFF7F9FFAE46EB
:1014800005006946534620F00700854618B020B590
:10149000FEF72EFFBDE820404FF000064FF000079A
:1014A0004FF000084FF0000B21F00701AC46ACE80C
:1014B000C009ACE8C009ACE8C009ACE8C0098D4679
:1014C0007047000010B500F005F8001D10BD00BF0A
:1014D0002154000000487047DC0900202DE9F0414C
:1014E0001F46044603260168072A01F4006004DB56
:1014F00008B116A505E016A503E008B115A500E0A2
:1015000015A521F010002060A069C01EA0610FB1D8
:10151000401EA0612046FFF744F94FB1D4E90121F4
:1015200038469047206A401C2062C01C206206E0BA
:10153000206AFAE7D4E9012115F8010B9047761EDD
:10154000F8D22046FFF743F9BDE8F0814E414E0046
:101550006E616E00494E4600696E66002DE9F047E7
:10156000814616468AB0354878440DC88DE80D008E
:1015700032487844801C03AC0DC884E80D0041F665
:101580009B300844372190FBF1F290FBF1F5A5F177
:10159000800501FB12041B3C02D56442012000E0DF
:1015A0000020DFF898A080460027FA44AAF1BE0A7E
:1015B0000EE0E0070AD03246684607EB47010123F8
:1015C0000AEB810100F01EFB8DE8070064107F1C10
:1015D000002CEED1194F7F44AE3F19E0E80715D03B
:1015E00007EB04100DF1180A90E80E008AE80E00CF
:1015F000C068F04201D1981908903246012306A92B
:1016000003A800F0FFFA03AB83E807006D10641C29
:10161000002DE3D14FF0010332466946B8F1000FC7
:1016200003A802D000F0D9FA01E000F0EBFAC9E912
:101630000001C9F808200AB0BDE8F087345800005E
:1016400010B50446AFF300802046BDE81040FEF719
:101650003ABE00004FF0013C50F8042B51F8043B17
:101660009A4221D1A2EB0C03934313EACC1317D176
:1016700050F8042B51F8043B9A4215D1A2EB0C030D
:10168000934313EACC130BD150F8042B51F8043BCD
:101690009A4209D1A2EB0C03934313EACC13DBD09B
:1016A0004FF00000704700BFD01A01BAB1FA81F1C3
:1016B00001F0180122FA01F0CB40C1F12001DBB2A8
:1016C000C0B2C01A2CFA01F3D11A914311EAC31126
:1016D000E6D1704701491820ABBEFEE726000200A4
:1016E00070475FEA400C08BF91F0000F4FEA8C236F
:1016F0004FEAC12243EA51514FEA1C5018BF00F58E
:10170000F0404FEA300018BF41F000415FEA6C5CE6
:1017100000F02980BCF1FF3F08BF40F080407047D7
:10172000130C06BF12044FF0100C4FF0000C130EF8
:1017300004BF12020CF1080C130F04BF12010CF1CC
:10174000040C930F04BF92000CF1020CD30F04BFE2
:1017500052000CF1010C11464FF00002A0F11F00E5
:10176000A0EB0C00704711F0004F08BF704731F03C
:1017700000413FF4D5AF0B0C06BF09044FF0100C2D
:101780004FF0000C0B0E04BF09020CF1080C0B0FFC
:1017900004BF09010CF1040C8B0F04BF89000CF18C
:1017A000020CCB0F04BF49000CF1010CCCF120035B
:1017B000A0EB0C0022FA03F302FA0CF241EA030157
:1017C00000F10100704720F07F4C80EA030023F015
:1017D0007F47ACEB070303F57C5300F0004003F1B7
:1017E000FF032DE980494FEA154B09B44FEA144332
:1017F00025EA0B4E24EA03480FF2042606EB1327D2
:1018000049083E785FEA320203FB0667C7F5000726
:1018100007FB06F64FEA54374FEAD64606F10206B2
:1018200007FB066CCCF1005C4FEA1C472CEA074C26
:1018300007FB06F40CFB06F504EB15464FEA96167B
:1018400034BF00204FF000404FEAD13706FB07FCC1
:101850004FEA1C4C0CFB0BF7D21B03FB0CF761EBA4
:1018600007010CFB0EF7B0EB074072EB17420CFBC5
:1018700008F734BFA2EB0742B2EB074261EB174116
:101880004FEA0C444FEA910706FB07FC4FEA1C4C59
:101890000CFB0BF7B0EBC74072EB573203FB0CF7B6
:1018A00034BFA2EBC742B2EBC74261EB57310CFB2E
:1018B0000EF7B0EBC70072EB57720CFB08F734BFA2
:1018C000A2EBC702B2EBC70261EB5771039F4FEA6D
:1018D000816141EA921104EBCC044FEAD1374FEA1F
:1018E000826206FB07FC42EA90124FEA80604FEAF0
:1018F0001C4C0CFB0BF7D21B03FB0CF761EB070135
:101900000CFB0EF7B0EB074072EB17420CFB08F72D
:1019100034BFA2EB0742B2EB074261EB17414FEA3B
:101920008C554FEA910704EB9C2406FB07FC4FEA19
:101930001C4C0CFB0BF7B0EBC74072EB573203FBB0
:101940000CF734BFA2EBC742B2EBC74261EB573191
:101950000CFB0EF7B0EBC70072EB57720CFB08F7ED
:1019600034BFA2EBC702B2EBC70261EB577115EBB4
:101970004C254FEA816141EA92114FEA82624FEAB7
:10198000D13742EA901206FB07FC44F100044FEA0B
:1019900080604FEA1C4C0CFB0BF7D21B03FB0CF7CF
:1019A00061EB07010CFB0EF7B0EB074072EB17423F
:1019B0000CFB08F734BFA2EB0742B2EB074261EB26
:1019C000174115EB1C154FEA813141EA92414FEA6C
:1019D000823242EA90424FEA80304FEA0C7644F17C
:1019E000000448EA03434EEA0B484FF0000EB2EB06
:1019F000080C71EB030724BF624639464EEB0E0E0E
:101A00004FF0000B0018524149414BEB0B0BB2EB6E
:101A1000080C71EB03077BF1000B24BF62463946CB
:101A20004EEB0E0E4FF0000B0018524149414BEBAC
:101A30000B0BB2EB080C71EB03077BF1000B24BF1F
:101A4000624639464EEB0E0E51EA020718BF46F0C9
:101A5000010616EB0E7655F1000254F1000103D594
:101A6000BDE88901BDE80088BDE88901BDE80048FE
:101A7000B619524141EB0101A3F101037047808087
:101A80007F7E7D7C7B7A79787776767574737271D8
:101A900071706F6E6E6D6C6C6B6A6A696868676690
:101AA00066656464636362616160605F5F5E5E5D22
:101AB0005D5C5C5B5B5A5A59595858575756565596
:101AC00055555454535352525251515050504F4FF8
:101AD0004F4E4E4D4D4D4C4C4C4B4B4B4A4A4A4948
:101AE000494948484847474747464646454545448B
:101AF0004444444343434342424242414141002B18
:101B00009C4630D477002BD01CB54FEA370703B47E
:101B10004FF010004FF01001BAF1000F06D0BCF1E9
:101B2000000FDCBF40F0080040F008014FF000005B
:101B30000FBCBDE810400BF1010BBBF1010F08BF5A
:101B40005FEA170722BF12F1010211F101014FF004
:101B5000004143F1000300F0004043EA00007047F9
:101B6000F9D35708D0E746EA064613F1400F4FEA8B
:101B700016461FDD13F1200FDFBF16430A46002172
:101B800020335B42BED0C3F1200746EA064602FA84
:101B900007F74FEA164646EA0706C3F1200722FA7E
:101BA00003F201FA07F721FA03F14FF0000342EACA
:101BB0000702A7E746EA020646EA06464FEA164645
:101BC00046EA0106BCBF46EA0646360C4FF0000363
:101BD0004FF000024FF0000194E72DE9804C9A4647
:101BE000934670B491E8380007C831EA400C48BF0A
:101BF00034EA430C03D5FFF7E6FDFFF780FFF0BCA6
:101C0000BDE8008C2DE9804C9A46934670B491E86B
:101C1000380007C810F0804F08BF13F0804F03D181
:101C200000F005F8FFF76BFFF0BCBDE8008C20F07A
:101C30007F4780EA030023F07F4C07EB0C03A3F5FA
:101C40007C5300F00040A3F1FE0392F0000F00F07F
:101C5000B38095F0000F00F077802DE901494FEA3D
:101C600011404FEA144621EA004800FB06FC24EA32
:101C7000064708FB06F607FB08F800FB07F718EB1A
:101C800006484CEB164C4FEA124B18EB07484FEA4C
:101C900015464CEB174022EA0B4E0BFB06FC25EADF
:101CA00006470EFB06F607FB0EFE0BFB07F71EEBC7
:101CB000064E4CEB164C4FF000061EEB074E4CEB5D
:101CC000174B18EB0B0840F1000018EB0E0B58EB0C
:101CD000000840F100008F1A4FF000013CBFC943DB
:101CE000661B14BFB5EB040C00213CBFC943F61BB7
:101CF0004FEA17444EEA8E0E27EA04454FEA1C4786
:101D000004FB07622CEA074C05FB07F70CFB05F602
:101D100004FB0CFC16EB074642EB174216EB0C4695
:101D200042EB1C421BEB060658EB0202414146EA1D
:101D30009E0601D5BDE80189B619524141EB01016A
:101D4000A3F10103BDE801894FEA14454FEA1147A9
:101D500024EA054621EA074C05FB07F406FB07F7D2
:101D60000CFB06F105FB0CFC11EB074144EB17449F
:101D70004FEA124711EB0C4144EB1C4422EA074C9A
:101D800005FB07F206FB07F70CFB06F605FB0CFC50
:101D900016EB074642EB174216EB0C4642EB1C458E
:101DA0006A1854F1000148BF7047B619524141EB1F
:101DB0000101A3F10103704795F0000F37D04FEAFE
:101DC00011424FEA144721EA024624EA074C02FB7B
:101DD00007F106FB07F70CFB06F402FB0CFC14EB07
:101DE000074441EB17414FEA154714EB0C4441EB14
:101DF0001C4125EA074C02FB07F506FB07F70CFB25
:101E000006F602FB0CFC16EB074645EB174516EBF6
:101E10000C4645EB1C42121951F1000148BF7047B6
:101E2000B619524141EB0101A3F1010370474FEA9A
:101E300014454FEA114724EA054621EA074C05FB01
:101E400007F106FB07F70CFB06F24FF0000605FB57
:101E50000CFC12EB074241EB174112EB0C4251EB29
:101E60001C4148BF7047921841EB0101A3F10103E7
:101E700070470000062807D2044951F8201019B90C
:101E80000349085C000700D001207047600900206A
:101E9000B800002070B5044606284CD201F0AEFC14
:101EA000254904EB440551F82420831A234AB3F54D
:101EB000967F02EBC50529D341F824002048005D38
:101EC000082806D01F48005D18B195ED000A85ED81
:101ED000030A1D490820087003221146204604F019
:101EE000B3F81A4E3070012001F074FB002295ED1A
:101EF000030A1146204604F0BCF83070012001F0BE
:101F000069FB0821204604F08FF8307011489FEDDE
:101F1000100A012180ED040A95ED030A80ED050AFF
:101F200080ED060A4170002101702046BDE8704036
:101F30000A4604F09EB870BD58050020B80800207D
:101F4000B2000020AC000020C4000020C600002029
:101F5000000000000400002010B50446062829D225
:101F600001F04CFC14490A5D144972B1144A04EBA7
:101F7000440302EBC30292ED000A82ED030A81EDF5
:101F8000060A01224A7081ED050A9FED0E0A002221
:101F900081ED040A0A700C4951F82420821AB2F526
:101FA000FA7F07D341F824002046BDE81040012104
:101FB00004F03AB810BD0000AC000020040000207E
:101FC000B808002000000000700500202DE9F05F37
:101FD000704D0446062801D30A20C8E0002028706E
:101FE000DFF8B4B14FF0010A5F468BF800A06B4EEA
:101FF00030706B4908556B4908556B4941F824000E
:102000006A4908556A49085502208BF800002046A5
:1020100003F0FEFF3070142001F0DCFA032038706A
:102020000121204604F000F83070322001F0D2FA8D
:1020300004203870F1EE040AB1EE000A204604F0E4
:102040003CF830700A2001F0C5FAB2EE000A2046D2
:1020500004F050F830700A2001F0BCFA9FED550AE8
:102060002046F0EE400A04F055F830700A2001F0E6
:10207000B1FA052038704FF47A7701F0BFFB0646BD
:10208000DFF8348146E000BF01F0B8FB814603F081
:10209000F3FDD8F86820A9EB02000A2803D3C8F89A
:1020A000689003F0C5F93E48005D90B3434804EBE7
:1020B000440200EBC207062097ED000A5E4687ED5A
:1020C000030A88ED050A88ED060A88F801A0D846BB
:1020D0008BF8000003221146204603F0B5FFDFF81D
:1020E000BC9089F80000142001F074FA07203070C9
:1020F000002297ED030A1146204603F0BAFF89F843
:102100000000142001F066FAC3460026DFF8948030
:1021100007E0FFE701F072FB801BB842B4D3142044
:1021200025E008208BF800000146204603F07CFFE4
:1021300089F80000192001F04DFA002297ED030AFA
:102140001146204603F095FF4B2001F043FA18F8A2
:10215000040090B11648005D082803D12046FFF71F
:1021600089FE40B12046FFF785FE30B11E20287061
:102170000020BDE8F09F504607E0761CF6B2142E12
:10218000CFD318F8040018B1202028700120F0E700
:102190001F20FAE7C5000020C4000020C600002070
:1021A000AC000020BE00002060090020B800002024
:1021B000B2000020CDCC4C3D04000020B808002027
:1021C000094810B500680949884208D108A420468A
:1021D000FEF74EFA81B23222204600F0C3FCBDE881
:1021E0001040C82001F0F6B9480200200048004025
:1021F000393939392C4552524F525F48414E444C7F
:1022000045525C725C6E000030B52C212DED028BC6
:1022100081B04848FEF790FA464814212C30FEF76A
:102220008BFA454C0520E06144A52846FEF720FACC
:1022300081B26422284600F095FC01F029FC054695
:1022400001F016FC02464D482B4601684CA000F0F8
:102250006DFC322001F0BEF903F0D6FC0A20E061EB
:1022600003F09AFC0B20E0614F4800F05FFC4F49FF
:102270000120086001F0C2FA0A2100F08BFC2D4811
:1022800000F038FB0C20E06101F0B8FA0B2100F0FF
:1022900081FC284D14212C352846FEF74DFA02F01A
:1022A000C5FC02F0CBFC052001F094F9284602F0B1
:1022B000DDFC0D25E56101F0A1FA0C2100F06AFCBE
:1022C000322001F087F90120FFF780FEE07202461C
:1022D0000E20E0613648017836A000F027FC3F4B25
:1022E00010209FED3F8A0090B7EE000AF0EE480AFA
:1022F00000223CA13D4802F07FFA384B0D48803364
:10230000F0EE480AB7EE000A012239A1D438009550
:1023100002F072FA01F072FA02F01CFF01F06EFA9C
:1023200000216067C4E91B01C4E91E0101B0BDECD6
:10233000028B30BD9007002004000020424F4F5414
:10234000303A20646562756720616C697665206F3C
:102350006E20555341525433205042313020616E2B
:102360006420555341525432205041322C20313197
:10237000353230302C20384E310D0A000C0100204F
:10238000424F4F54313A20535953434C4B3D256CE7
:10239000752050434C4B313D256C752050434C4BC0
:1023A000323D256C750D0A00B86D0008F80000205C
:1023B000C5000020424F4F543A20616E6B6C65207F
:1023C000696E697420726573756C743D25752C2077
:1023D00072656164793D25750D0A00003069000859
:1023E0005C8FCA406B6E656500000000E805002048
:1023F000686970002DE9F04F2DED028B81B001F07E
:10240000FDF9CD4C0546616F471AE16F401AC828A7
:1024100004D314212846E56700F0BCFB03F02CFC34
:10242000A06F281A0A2802D3A56703F001F8E06E0E
:10243000281A0A287ED3C149E56601F14C000090B4
:10244000883040F2DC524FF0000801F11C0B00F123
:102450004C0A00F11C0997421BD2D4384646A0F81A
:1024600036805846009903F059F90146B34802F006
:102470009FF9B2485146D430C686484603F04EF91B
:102480000146AE48D43002F093F9E07A00287DD1BD
:1024900039E1284602F0E8FF0600DFEDA98A76D090
:1024A00094ED0D0AF6EE080AB5EE001A20EE200AA9
:1024B000D4ED0C0A00EE810AB7EE001AF0EE680ABD
:1024C00003F045FEB0EE401ADFED9E1A9FED9E8AA6
:1024D000F0EE480AB0EE600A01EE210AB7EE001AEB
:1024E00003F035FE9FED991AD4ED100AF4EEC00A00
:1024F000F1EE10FA09D270EE810AC4ED100AF4EE82
:10250000C00AF1EE10FA09DC0AE041EE480AC4ED17
:10251000100AF4EEC00AF1EE10FA01D284ED100AAE
:102520008B48B0F90A10D4ED120A00EE101AB8EE7A
:10253000C00A00E0FAE030EE600ADFED860A0089AA
:1025400020EE208AA18988421FD094ED130A824987
:1025500038EE400AB0EEC00A10EE100AB0F1824F19
:1025600002DDB2EE000A03E010EE100A884207DB3B
:10257000D4ED0F0A30EE800A04F08CF984ED0F0AD6
:10258000734884ED138A0089A08101E053E013E0D1
:1025900094ED0F0A694802F03FFA5846009903F09B
:1025A000BDF80146654802F003F96448B0EE480AF8
:1025B000D43002F063F91EE09FED680AD4ED100AF2
:1025C000F4EEC00AF1EE10FA04DD30EEC00A84ED3C
:1025D000100A01E0C4ED108A584802F0E5F95846A7
:1025E000009903F09BF80146544802F0E1F8534883
:1025F000D43002F0D9F95146484603F08FF801462D
:102600004E48D43002F0D4F8E07AE8B30120FFF766
:1026100031FC30B10121084603F006FD84F80B803F
:1026200071E0207A304306D0B7F5E16F07D2012080
:10263000FFF730FC67E00120FFF78EFC63E04848BD
:10264000407818B1474840780828F0D10127E6B310
:1026500094ED0F0A03F0FCFBF0EE400AB0EE680ABE
:10266000B0EE608A03F0F4FBD4ED100A9FED3E1A41
:1026700038EE400A3D4860EE810A20EE801A90ED67
:10268000090AF0EE400A00E03DE0DFED391A60781B
:1026900001EE210ADFED371A10B9C4ED060A6770A2
:1026A00094ED062A72EE210AF4EEC00AF1EE10FA59
:1026B00006D372EE610AF4EEC00AF1EE10FA01DD03
:1026C000B0EE600A84ED060A00E008E084ED041A2A
:1026D00084ED050A277000221146012011E061787F
:1026E000012011B194ED060A05E0204991ED090A97
:1026F00084ED060A677084F80080002284ED050AE4
:10270000114603F0B6FC206F281A0A280ED31A4887
:10271000256700F06FF918482C3002F0A7FA01B0D5
:10272000BDEC028BBDE8F04F03F0F4BA01B0BDEC94
:10273000028BBDE8F08F000004000020E8050020B7
:10274000000000006666263F3333B33E5939B43C7F
:10275000900900200000803C0AD7A33D6F12833C03
:10276000BE000020B20000203333733FB8080020C1
:10277000D50BDC3C7709303D9007002070B58CB05C
:102780000D4606461446142101A8FDF7D5FF142175
:1027900006A8FDF7D1FF15B10CB10E2C02D901200E
:1027A0000CB070BD46F080000022FF268DF80400BA
:1027B000631C01A998B203E08B18521C5E7092B2A0
:1027C0009042F9D800F006F90A200090A01C83B2CC
:1027D00006AA01A9084801F096FC064600F024F874
:1027E0000EB13046DCE722460DF11A012846FDF70E
:1027F0005EFF0020D4E700006001002038B500F043
:102800007F008DF800008DF8011000F0E3F80A2336
:1028100002226946034801F0C3FB044600F004F8B5
:10282000204638BD6001002001220221014800F04D
:10283000E0BF00000000024001221146014800F004
:10284000D8BF00000000024070B50D008AB00146FC
:102850004FF0000001900290039014460490059000
:1028600006900790089002D00CB10E2C02D90120DE
:102870000AB070BD41F080008DF80400002201A86C
:10288000FF2103E08318521C597092B2A242F9D37F
:1028900000F0A8F80A200090601C83B205AA01A9E4
:1028A000084801F030FC0646FFF7C6FF0EB130467F
:1028B000DEE722460DF115012846FDF7F8FE00205F
:1028C000D6E700006001002038B500F07F008DF8E9
:1028D00000008DF8011000F085F80A2302226946F5
:1028E000034801F05DFB0446FFF7A6FF204638BD14
:1028F0006001002038B504004FF000008DF80000A2
:1029000066D02C212046FDF717FFFFF795FFFFF754
:102910008BFF052000F05EFE012269460020FFF7D4
:102920002DFF012000F056FE012221460020FFF776
:1029300025FF0122611C0020FFF786FF20781E285A
:102940003AD00020A07061780F2937D00021E170C3
:10295000C0B100217C20FFF751FF012000F03AFEBA
:1029600004217D20FFF74AFF022000F033FEA8215A
:102970004020FFF743FF01214120FFF73FFF0220E6
:1029800000F028FEE07888B11E2000F023FE002130
:102990000F20FFF799FF02211020FFF795FF00217C
:1029A0001120FFF791FF022000F014FEA07838B14B
:1029B000E07828B1012004E00120C3E70121C6E747
:1029C0000020207120B1204600F014F8002038BD0E
:1029D000012038BD00220221014800F00ABF00009A
:1029E0000000024000220121014800F002BF000067
:1029F000000002401CB504004FF000000090019060
:102A00000AD0207940B1E07858B306226946022006
:102A1000FFF71AFF10B124E001201CBDBDF9001022
:102A2000A18100EE101ABDF90200E081F8EEC00AA3
:102A30009FED220ABDF90420228280EE801A00EE6A
:102A4000900AF8EEE00A84ED081A80EE801A00EE93
:102A5000902AF8EEE00A84ED091A80EE801A84EDDF
:102A60000A1AA07840B3062269461220FFF786FEB4
:102A700010BBBDF90020E28000EE102ABDF9021063
:102A80002181F8EEC00A9FED0E0ABDF904006081B5
:102A900080EE801A00EE901AF8EEE00A84ED051A36
:102AA00080EE801A00EE900AF8EEE00A84ED061A35
:102AB00080EE801A84ED071A00201CBD6F1283413E
:102AC00000A0AA45FEE70000014800F0DCBA0000C3
:102AD00010010020014800F0D6BA000010010020CB
:102AE000014800F0D0BA000010010020014800F0B9
:102AF000CABA000010010020014800F0C4BA00006A
:102B000038010020014800F0BEBA00003801002062
:102B1000014800F0B8BA000038010020014800F078
:102B2000B2BA000038010020704700000FB410B5A1
:102B3000029A002A10D04FF4807403AB2146084853
:102B4000FDF760FC002807DDA04200DD204681B2D1
:102B50006422034800F006F810BC5DF814FB000086
:102B60005804002030B400280DD000290BD0074BAA
:102B7000074C1B68A34206D113460A46014630BCE7
:102B8000024801F0EBBC30BC70470000000200209E
:102B900000440040F0B5074639480E4639490268FE
:102BA00099B08A4202D13849096801E04FF000012A
:102BB000364A116002D13649096801E04FF0000140
:102BC000344A116090F82000334D286000F060FF17
:102BD000044600F04DFF01463048827A437AD0F82F
:102BE00020C0CDE91632CDE9144C2D4AC0691268D7
:102BF0002C4B1B7810931391CDE911022A4B1B78B3
:102C00002A4A12682A4909682A4800680CAC84E8F4
:102C10000F00294B1B68294A12682949096828684E
:102C200008AC84E80F00274B1B68274A1278274915
:102C300009682748006804AC84E80F00254800684C
:102C400025490968254A126803900096CDE90121BB
:102C50004FF4C0743B46224A21462248FDF7ECFB64
:102C600000280ADDA04200DD204619B081B2BDE88F
:102C7000F04032221B48FFF775BF19B0F0BD0000CD
:102C8000380100200068004018680040EC00002077
:102C900004680040F0000020F40000200400002040
:102CA0000C010020C5000020C4000020CC00002042
:102CB000E8000020E4000020DC000020E00000200C
:102CC000D8000020C8000020D4000020A40000206C
:102CD000A00000209C00002098000020D0000020D0
:102CE000FC6D0008D802002090F82020012A07D0AF
:102CF000022A05D0416A41F48021416201207047D7
:102D0000006842690A43426100207047F0B590F8BC
:102D100020500468A468012D05D0022D03D0416A1B
:102D200041F480214DE014F0406F01D1E50045D51C
:102D3000C4F301640125A5401D608D684FF4C07384
:102D40009DB1CE6835434E6845EAC605066803EB7B
:102D50000417F5514FF4C275076805EB04150E69A9
:102D60007E51097D012905D009E00E88CD6845EA2C
:102D70004655EBE701684E5946F480764E5111797D
:102D8000D2F805504FF4C67641EA0521056806EBF6
:102D90000416A9511178D2F801204FF4C47541EA04
:102DA0000221026805EB04155151006803EB041180
:102DB000425842F0010242500020F0BD416A41F405
:102DC000001141620120F0BD10B590F82020012AC9
:102DD00007D0022A05D0416A41F4802141620120D6
:102DE00010BD3B48D0F8002242F00102C0F800229A
:102DF000D0F8002222F47C52C0F80022D0F8002241
:102E00004B6A42EA0322C0F800220A7D02F01F0347
:102E100001229A40D0F81C329343C0F81C32CB698F
:102E2000B3B9D0F80C329343C0F80C328C894B689C
:102E300064F31F434C6900EBC404C4F840320C89AE
:102E40000B6864F31F434C6900EBC404C4F84432BC
:102E5000CB69012B16D1D0F80C321343C0F80C32D9
:102E60000C884B6864F31F434C6900EBC404C4F83E
:102E700040320C89CB6864F31F434C6900EBC404F7
:102E8000C4F844328B69002BD0F804320ED01343BF
:102E9000C0F804320B69002BD0F8143208D0134369
:102EA000C0F81432096A012904D008E09343EFE71F
:102EB0009343F5E7D0F81C121143C0F81C12D0F868
:102EC000001221F00101C0F80012002010BD000026
:102ED0000064004010B5040024D000F031F8124A1C
:102EE0002168914213D11149086040071AD54868FA
:102EF000401C48600E4800F035FB0D4800F006FB12
:102F0000BDE8104048F20E410948FFF7EDBE094AFE
:102F1000914207D108490860400703D50748016876
:102F2000491C016010BD00000064004084000020C6
:102F30001001002000680040C8000020CC000020E4
:102F4000406A70470246002092F82030012B01D0E1
:102F5000022B05D1106821B1D0F8100000F0030059
:102F60007047C068FAE770B590F82040012C05D092
:102F7000022C03D0416A41F4802128E0046809B39F
:102F80002469A40720D04FF4D874056804EB011419
:102F90002D5915F00405956005682D591AD0ED08D6
:102FA000556005682C5904F00204D4604FF4DA74BB
:102FB000056804EB01142E5906F00F06082E0CD3F9
:102FC00008250DE0E468DCE7416A41F40011416244
:102FD000012070BD6D0D1560E3E72D5905F00F055B
:102FE000156105682D59C5F30725956105682C59AC
:102FF000240C54614FF4DC72046802EB0112A458F3
:103000001C700468A458240A5C700468A458240C3A
:103010009C700468A258120EDA704FF4DE720468D5
:1030200002EB0112A4581C710468A458240A5C71B4
:103030000468A458240C9C710468A258120EDA711A
:10304000006829B1016941F020010161002070BDD3
:10305000C16841F02001C160F8E70246002092F803
:103060002010012901D002290CD111688A6852016F
:1030700000D501208A68120100D5401C8968C9006A
:1030800000D5401C70472DE9F05F0546006800241C
:103090004669D0F804908768D0F80CB0D0F810A03A
:1030A000D0F81880F10748D0F90714D001218160C9
:1030B000B80703D5284600F086FA0CE0780702D559
:1030C0004FF4006407E0380702D54FF4805402E063
:1030D000284600F077FAF80516D529684FF4807075
:1030E0008860B80503D5284600F06FFA0CE0780533
:1030F00002D544F4005407E0380502D544F4804476
:1031000002E0284600F060FAF80316D529684FF46B
:1031100080308860B80303D5284600F058FA0CE0E8
:10312000780302D544F4004407E0380302D544F4A0
:10313000803402E0284600F049FA300707D55FEAFC
:10314000CB6004D52968102044F40074C86070076F
:103150004FF0080707D55FEA0B7004D52868C760F1
:10316000284600F0CDF9B00706D52868C06880076A
:1031700002D0284600F0C5F9700607D55FEACA609C
:1031800004D52968102044F480640861B00607D58E
:103190005FEA0A7004D528680761284600F0B3F991
:1031A000F00606D528680069800702D0284600F09E
:1031B000ABF9B00308D55FEAC96005D529681020CE
:1031C0004860284600F0A1F9F00307D55FEA0970CE
:1031D00004D528684760284600F0FAF9300446D53F
:1031E0005FEA497040D5F00504D55FEAC87001D0A8
:1031F00044F00104B00504D55FEA887001D544F0BD
:103200000204700504D55FEA487001D544F0040457
:10321000300529D518F0700F26D008F0700040282E
:1032200015D006DC102809D020280AD0302816D165
:103230000AE050280ED0602811D10EE044F00804B6
:103240000DE044F010040AE044F0200407E044F0EC
:10325000400404E044F0800401E044F480742868F1
:10326000816921F070018161296804204860002C87
:1032700005D0686A204368622846FFF72BFEBDE848
:10328000F09F70B5040003D094F8200010B104E062
:10329000012070BD204600F081F82068016841F0EF
:1032A0000101016000F0AAFA0546052604E000F0DD
:1032B000A5FA401B0A2811D820684068C007F6D03C
:1032C0002068016821F00201016000F097FA0546CC
:1032D0000BE000F093FA401B0A2806D9606A40F41C
:1032E0000030606284F82060D2E720684068800780
:1032F000EFD4207E0128206801683DD021F08001B4
:103300000160607E01282068016838D021F040010A
:103310000160A07E01282068016833D021F02001DF
:103320000160E07E0128206801682ED041F0100184
:103330000160207F01282068016829D021F0080160
:103340000160607F01282068016824D021F0040119
:103350000160D4E902010843D4E90412114308438F
:103360006168491E08432168C8610020606201202D
:1033700084F82000002070BD41F08001C0E741F0DA
:103380004001C5E741F02001CAE721F01001CFE775
:1033900041F00801D4E741F00401D9E72DE9F043F9
:1033A00087B0044614216846FDF7C6F9504B5148D2
:1033B000DFF838811968D4F800C04E4A0225032688
:1033C0000927DFF8349110300024491CC4453CD152
:1033D0001960012907D1016841F00071016000689E
:1033E00000F000700590106840F002001060106856
:1033F00002AB00F0020005904FF44070CDE90005EB
:1034000083E8D0006946484600F0F6F800221146ED
:10341000132000F061FA132000F050FA0022114648
:10342000142000F059FA142000F048FA0022114646
:10343000152000F051FA152000F040FA0022114644
:10344000162000F049FA16204AE0DFF8B080C445A3
:1034500048D1D0F800C04CF0806CC0F800C0D0F863
:1034600000C001290CF0806CCDF814C0196007D1A0
:10347000016841F000710160006800F00070059083
:10348000106840F002001060106802AB00F002000B
:1034900005906020CDE9000583E8D00069464846E4
:1034A00000F0AAF8002211463F2000F015FA3F2054
:1034B00000F004FA00221146402000F00DFA4020EE
:1034C00000F0FCF900221146412000F005FA4120ED
:1034D00000F0F4F900221146422000F0FDF94220EC
:1034E00000F0ECF907B0BDE8F08300000064004094
:1034F0000000002030380240000402400068004014
:10350000704702F0C7BB70477047704770B50446FC
:1035100090F82000012804D0606A40F40020606226
:1035200018E0022084F820002068016821F00101E1
:10353000016000F063F905460EE000BF00F05EF99F
:10354000401B0A2808D9606A40F4003060620520F8
:1035500084F82000012070BD20684068C007EDD1CC
:10356000606270BD70B5044690F82000022804D057
:10357000606A40F48010606214E02068016841F0E5
:103580000101016000F03AF905460DE000F036F95E
:10359000401B0A2808D9606A40F4003060620520A8
:1035A00084F82000012070BD20684068C007EDD07D
:1035B0002068016821F002010160012084F82000E8
:1035C000002070BD70477047704770477047704764
:1035D0007047000070B5044600F010F90546601C05
:1035E00002D004480078044400F008F9401BA042CF
:1035F000FAD370BD000100202DE9F84FDFF8BCA11F
:103600000022012503264FF00F090AF1040BAAF14D
:10361000040E00BF0B6805FA02F42340A34270D1E8
:103620000F7907F00307012F01D0022F16D1876809
:103630004FEA420806FA08FC27EA0C07D1F80CC04A
:103640000CFA08FC4CEA070CC0F808C04768A7430E
:103650000C79C4F3001494403C4344600C79E44377
:10366000A4070AD0C4684FEA420C06FA0CF7BC4320
:103670008F6807FA0CF72743C7600C7904F003043E
:10368000022C12D1D40800EB840CDCF82040570740
:10369000FF0E09FA07F824EA0804D1F8108008FAA6
:1036A00007F848EA0408CCF8208004684FEA420C86
:1036B00006FA0CF7BC430F7907F0030707FA0CF77B
:1036C000274307604C6814F4403F70D03C4C276897
:1036D00047F480472760246822F0030704F48044FD
:1036E0000094384C07EB040CDCF8084897074FEAC5
:1036F000177809FA08F7BC43334FB84202D10027C4
:1037000024E054E0314FB84201D101271EE0304F90
:10371000B84201D1022719E02E4FB84201D1032748
:1037200014E02D4FB84201D104270FE02B4FB842CF
:1037300001D105270AE02A4FB84201D1062705E04A
:10374000284FB84201D1072700E0082707FA08F7F9
:103750002743CCF80878DAF800405746D1F804C07F
:103760009C435FEACC2C00D51C433C60DBF8004056
:103770005F46D1F804C09C435FEA8C2C00D51C4303
:103780003C60DEF800407746D1F804C09C435FEA15
:103790008C3C00D51C433C60084F083F3C68D1F886
:1037A00004C09C435FEACC3C00D51C433C60521CE7
:1037B000102AFFF42FAFBDE8F88F0000083C01404D
:1037C0004438024000300140000002400004024042
:1037D00000080240000C02400010024000140240A9
:1037E00000180240001C02400069084000D001207F
:1037F00070470AB1816170470904FBE7014880689E
:1038000070470000000100200248816802781144DE
:1038100081607047000100200B4810B5016841F439
:1038200000710160016841F480610160016841F448
:1038300080710160032000F06FF80F2000F006F89F
:1038400000F024F8002010BD003C024070B50D4D82
:1038500004464FF47A712878B1FBF0F00A49096800
:10386000B1FBF0F000F047FD48B9102C07D2002260
:103870002146501E00F030F800206C6070BD012021
:1038800070BD0000000100200C0100200A4808B5AE
:10389000016841F480410160006800F480400090BC
:1038A0000548001F016841F080510160006800F088
:1038B0008050009008BD000044380240002809DB19
:1038C00000F01F02012191404009800000F1E0203A
:1038D000C0F8001170470000F0B40E4B1B680C4696
:1038E000C3F30223C3F10705042D00D90425191DD4
:1038F000072901D2002300E0DB1E012606FA05F1AC
:10390000491E214099409E40761E16403143F0BC2E
:1039100002F062BA0CED00E0064900F00702086808
:103920004FF6FF03184040EA0220034A10430860A4
:10393000704700000CED00E00000FA052DE9F047AB
:103940000E46050065D0DFF81481D8F80000F7B204
:1039500000F00700B04207D288F80070D8F80000E5
:1039600000F00700B04254D128683D4C810712D5C1
:10397000400703D5206840F4E05020602878000715
:1039800003D5206840F4604020602068A96820F0DA
:10399000F000084320602878C0072DD030496868BF
:1039A0000839012812D0022813D0032811D0096841
:1039B000890700292DDA216821F0030101432160E4
:1039C000FFF71CFF814641F2883A0EE0096889033F
:1039D000EFE709688901ECE7FFF710FFA0EB0901A9
:1039E000514502D90320BDE8F0872068696800F0DE
:1039F0000C00B0EB810FEFD1D8F80010404601F079
:103A00000701B14207D90770006800F00700B04213
:103A100001D00120E7E72878400705D52068E9684C
:103A200020F4E050084320602878000706D520687D
:103A3000296920F4604040EAC100206000F038F8B5
:103A40002168084AC1F30311515CC8400649086067
:103A500006480068FFF7FAFE0020C4E7003C024079
:103A600008380240A06C00080C010020040100206E
:103A70000448054900680968044AC1F38221515C81
:103A8000C84070470C01002008380240B06C0008A4
:103A90000448054900680968044AC1F34231515C91
:103AA000C84070470C01002008380240B06C000884
:103AB000154810B5006810F00C02144813D04110DE
:103AC000042A0FD0082A0ED10F4C241F2268236825
:103AD00002F03F025B0207D52068C0F38810A0FB0C
:103AE000010106E0084610BD2168C1F38811A1FB61
:103AF00000010023FCF70EFC2168C1F30141491CC1
:103B00004900B0FBF1F010BD083802400024F40079
:103B10002DE9F84F04006ED02078DFF84C93C007F1
:103B2000A9F104054AD009F104000168C1F381013B
:103B3000012908D00068C0F3810002280AD1D9F811
:103B40000000400206D52868800337D56068002849
:103B5000E1D033E06068B0F5803F10D0B0F5A02F21
:103B6000286810D020F480302860286820F4802055
:103B700028606068A8B1FFF741FE06460DE028689E
:103B800040F48030F4E740F480202860F7E700BF7D
:103B9000FFF734FE801B642873D828688003F7D5AC
:103BA0000CE0FFF72BFE064605E000BFFFF726FE00
:103BB000801B6428F0D828688003F7D42078DFF8C9
:103BC000AC8280074FF0000A3ED5A748001D01686F
:103BD00011F00C0F08D00068C0F3810002280BD14F
:103BE000D9F80000400207D42868800716D5E0689D
:103BF000012800D112E033E1E068B8B10120C8F833
:103C00000000FFF7FBFD064605E000BFFFF7F6FDED
:103C1000801B0228C0D828688007F7D5286821694A
:103C200020F0F80040EAC10028600DE0C8F800A0CC
:103C3000FFF7E4FD064604E0FFF7E0FD801B0228E5
:103C40001FD828688007F7D42078000722D5864F30
:103C500087486169703771B101210160FFF7CEFDBE
:103C6000064604E0FFF7CAFD801B022809D8386821
:103C70008007F7D50EE0C0F800A0FFF7BFFD0646AD
:103C800005E082E0FFF7BAFD801B02287DD8386886
:103C90008007F7D42078400768D5DFF8CCB100273B
:103CA0000BF13C0BDBF80000C0000BD4DBF800107C
:103CB00041F08051CBF80010DBF80000012700F044
:103CC000805000906B4E3068C00510D4306840F4CE
:103CD00080703060FFF792FD009005E0FFF78EFDE9
:103CE0000099401A022850D83068C005F6D55E4EBB
:103CF000A0686C3601280FD00528306810D020F05D
:103D000001003060306820F004003060A068B8B175
:103D1000FFF774FD00900FE0306840F00100F4E719
:103D200040F004003060F7E7FFF768FD0099411AA2
:103D300041F28830814266D830688007F4D50EE0C1
:103D4000FFF75CFD009007E0FFF758FD0099411A6E
:103D500041F28830814256D830688007F4D42FB1C0
:103D6000DBF8001021F08051CBF80010A069C8B337
:103D70003D49091D0968C1F3810102294AD0022881
:103D8000504607D0C8F8600000E03CE0FFF736FD81
:103D900004463BE04746C8F86000FFF72FFD0646A3
:103DA00005E000BFFFF72AFD801B02282BD82868FA
:103DB0008001F7D4D4E907010843A16A2E4A4908D3
:103DC00002EB0141626A41EA8211084394F82C1027
:103DD00040EA0161C9F8001001203866FFF70EFDC6
:103DE000044606E03EE000BFFFF708FD001B022886
:103DF00009D828688001F7D534E000BFFFF7FEFC42
:103E0000001B022802D90320BDE8F88F2868800132
:103E1000F4D427E00128F7D0D9F80000E26900F4D3
:103E2000800191421CD1226A00F03F01914217D1DA
:103E300047F6C071626A0140B1EB821F10D1A26ADD
:103E40004FF0FF3300F4403103EB5202B1EB024F6D
:103E500006D194F82C1000F07060B0EB016F01D027
:103E60000120D1E70020CFE704380240000047429C
:103E7000800E4742007000400000FFFF70B5040054
:103E800009D0606A002540B125616561A56294F89A
:103E9000510040B10CE0012070BD6068B0F5827F38
:103EA000F4D0E561F2E784F85050204600F044F881
:103EB000022084F851002068016821F0400101606F
:103EC000A088218900F4827001F404410843A1898B
:103ED00001F400610843217C01F002010843217DC7
:103EE00001F001010843218B01F400710843217F97
:103EF00001F03801084394F8201001F080010843D4
:103F0000218D01F40051084321680860A069042153
:103F100001EA104094F8241001F0100108432168D0
:103F200048602068C16921F40061C16165650120B4
:103F300084F85100002070BD10B586B004461421ED
:103F40006846FCF7F9FB13492068884220D11248E3
:103F50000021026842F480520260006800F4805040
:103F600005900D481438026842F0010202600068B2
:103F700000F001000590E02000900220CDE9010151
:103F8000032003900520049069460448FFF734FBA2
:103F900006B010BD0030014044380240000002402D
:103FA0002DE9F84F984616468A460446FFF726FC48
:103FB000814694F8510001281ED1BAF1000F73D048
:103FC000002E71D094F85000012815D0012784F8F4
:103FD0005070032084F8510000256565C4F830A0B6
:103FE000A686E686A563A587E58765642564A0683F
:103FF000B0F5004F03D00CE00220BDE8F88F206838
:10400000016821F0400101602068016841F48041AD
:10401000016020680168490603D4016841F040014D
:104020000160E068B0F5006F606803D048B3012E0E
:1040300027D047E008B1012E1FD1206B21680088EE
:10404000C86006E020688168890709D5216B098866
:10405000C160206B801C2063E08E401EE0860CE077
:10406000FFF7CCFBA0EB0901414503D3B8F1FF3FBB
:1040700003D035E0B8F1000F32D0E08E0028E1D156
:1040800023E0206B21680078087306E020688168CF
:1040900089070AD5216B09780173206B401C2063C6
:1040A000E08E401EE0860DE02BE0FFF7A7FBA0EBC3
:1040B0000901414503D3B8F1FF3F03D010E0B8F147
:1040C000000F0DD0E08E0028E0D14A464146204640
:1040D00001F08AFB08B120206065A06830B109E0DA
:1040E00084F8517084F85050032086E72068C16836
:1040F0008068009084F8517004F8505F6068002870
:10410000F3D0012079E72DE9FF4F81B01D4693469A
:1041100004464FF001090E9EFFF770FB074694F826
:1041200051006168012806D0B1F5827F3CD1A168B9
:10413000C9BB042838D10298002871D0BBF1000F08
:10414000FBD0002DF9D094F8500001282CD04FF06E
:10415000010A84F850A094F85100042802D00520E8
:1041600084F851004FF00008C4F85480C4F838B007
:10417000E587A58702992163E586A586C4F8408076
:10418000C4F8448020680168490603D4016841F0FE
:1041900040010160E068B0F5006F606808D0F0B3DE
:1041A000012D49D081E0FFE7022005B0BDE8F08F86
:1041B00008B1012D39D1206B21680088C860206BBF
:1041C000801C2063E08E401EE0862EE0206881681F
:1041D00089070FD5E18E69B1B9F1010F0AD1216BC1
:1041E0000988C160206B801C2063E08E401EE08641
:1041F0004FF0000920688168C9070CD0E18F51B1E8
:10420000C068A16B0880A06B801CA063E08F401E7B
:10421000E0874FF00109FFF7F1FAC01B01E00BE066
:1042200067E0B04201D3701C50D1E08E0028CDD1A0
:10423000E08F0028CAD13EE0206B21680078087327
:10424000206B401C2063E08E401EE0862DE020683D
:10425000816889070FD5E18E69B1B9F1010F0AD1E3
:10426000216B09780173206B401C2063E08E401E97
:10427000E0864FF0000920688168C9070CD0E18F03
:1042800051B1C068A16B0870A06B401CA063E08FA7
:10429000401EE0874FF00109FFF7B0FAC01BB042A3
:1042A00002D3701C01D011E086B1E08E0028CED17F
:1042B000E08F0028CBD13A463146204601F094FAEF
:1042C00050B12020606584F8508012E084F851A03D
:1042D00084F85080032068E7A06818B92068C16896
:1042E0008068009084F851A084F85080606D0028A8
:1042F000F1D0012059E710B5401EB0F1807F01D305
:10430000012010BD4FF0E02460610F21601701F023
:1043100063FD0020A06107202061002010BD2DE971
:10432000F84F044690F84200DDF828901F461546E5
:104330000E46202802D00220BDE8F88FF6B1EDB17C
:104340004FF00008C4F84480222184F84210012173
:104350002163C4F83480FFF751FAA5858246E585CC
:10436000A0684FF4805B584501D1206940B13546C3
:104370000026A7F800804FF020083AE00120DBE794
:104380000025F6E720680168C9060AD5016841687A
:104390000091398829B10220606384F842800020AE
:1043A000CAE70168890618D525B1A168594528D002
:1043B00031B107E04068C0F3080026F8020B06E0C0
:1043C0002169F1B1406800F07F0005F8010B3888E1
:1043D000401C3880E08D401EE085B9F1FF3F08D0D9
:1043E000FFF70CFAA0EB0A0149450CD8B9F1000F10
:1043F00009D0E08D0028C5D1A08DE18D401A38800C
:10440000CBE74068E1E784F84280032094E770B589
:10441000040004D094F84100002510B106E001200A
:1044200070BD84F84050204600F024F8242084F821
:1044300041002068C16821F40051C160204601F0AC
:10444000EBFA2068016921F490410161206841691B
:1044500021F02A0141612068C16841F40051C16026
:104460006564202084F8410084F8420065630020E0
:1044700070BD0000F0B587B0044614216846FCF713
:104480005BF9304B276800222F49022403250726B9
:104490002E489F4219D12C4B14331F6847F0100748
:1044A0001F601B6803F0100305930B6843F00103C2
:1044B0000B60096802AB01F0010105916902CDE9C9
:1044C000001483E8640069461AE01F4BDFF880C0DF
:1044D0001033674518D11F6847F400371F601B6809
:1044E00003F4003305930B6843F001030B60096884
:1044F00001F0010105910C21CDE9001469461CE091
:10450000FFF77AF807B0F0BD12488742FAD1186871
:1045100040F480201860186800F480200590086836
:1045200040F0020008600868694600F0020005904B
:104530004FF44060CDE90004074802AF87E864000B
:10454000DEE7000000100140303802400000024069
:104550000044004000480040000402402DE9F843B8
:10456000044690F84100984616460D46202802D091
:104570000220BDE8F88385B17EB10020606421206F
:1045800084F84100FFF73AF9A6848146E684A068E2
:104590002027B0F5805F02D003E00120E9E7206921
:1045A00010B12E4600250EE000260CE080212046AA
:1045B00001F0B8FAA8B9C6B116F8010B2168486035
:1045C000E08C401EE084E08C4B464FF00002CDF8BA
:1045D00000800028EAD14FF04001204601F0A2FA05
:1045E00040B184F841700320C3E735F8020BC0F3F3
:1045F0000800E3E784F841700020BAE770B516467A
:104600000C00054627D0082E25D30921012001F0F2
:104610004DFCA84206D132462146BDE8704001203B
:1046200000F01EB80121084601F040FCA84212D15A
:10463000204602F029F90849486008492079487065
:10464000891D60794870891D01204870FFF7D6F8F0
:1046500001491831486070BD60090020B200002097
:1046600070B50D46044606281ED2002D1CD0082A1F
:104670001AD3084602F008F901F01AFE0B4804EBC1
:10468000440100EBC106281D86ED000A02F0FCF88B
:1046900001F00EFE064986ED010A01200855FFF7DC
:1046A000ADF8044941F8240070BD0000B8080020AE
:1046B000AC000020480900202DE9F0411E461400FE
:1046C0000D46074620D0022E1ED3FFF797F8354936
:1046D0008446CF610022012733487D2D16D07C2DE2
:1046E00014D0082E10D37F2D25D0E32D0CD1238894
:1046F000C0F824C05BBA4D696D1C4D610D7815B1D1
:104700004D88AB4228D00A70BDE8F08123885BBA9F
:10471000038043808380C3808281C281028282823F
:10472000C28202838776C27680F82870C0F81CC0E7
:10473000C0F824C00CE0208840BA4880608840BAA5
:104740008880A08840BAC880E08840BA08810F708D
:104750000869401C0861D7E703818D884580CE88B1
:1047600086800B89C380B54200D835469D4200D96A
:104770002B46038063885BBA4381A3885BBA83813D
:10478000C2810282E3885BBA43828282C282028350
:104790008776C27680F82870C0F81CC0C0F824C0A4
:1047A000B1E700008C00002090090020FEE7000027
:1047B00000281DD080F8C110002919D1016E0029F0
:1047C00016D090ED1E0A012180ED2F0A80F8C0104E
:1047D00090F8D020002A0BD180ED200A9FED050A29
:1047E00080ED240A80ED310A80ED320A80F8D01085
:1047F00070470000000000002DE9F0411E462DED3D
:10480000028BB0EE608ADDF82080F0EE408A15461B
:104810000F46040027D0D421FBF78EFF2760A58028
:10482000C4ED028A84ED048AC4E905689FED100A8C
:10483000DFED100A84ED2E0AB1EE080A84ED280A95
:104840009FED0D0AC4ED290A84ED210AC4ED220A68
:10485000B7EE000A84ED230A002084F8C100A58683
:10486000E08684F8D000BDEC028BBDE8F08100004A
:1048700000000000EC51383EB81E053F70B5040042
:1048800079D03D4D606905F18006A84204D1F9EE6A
:10489000040A9FED3A1A05E0B04205D1B3EE081ABA
:1048A000FBEE080A01F053FC6069A84202D1DFED7B
:1048B000340A06E0B04202D1DFED320A01E0DFED5A
:1048C000320A9FED321A94F8C200012160EE810A8B
:1048D00028B99FED2F1A84ED241A84F8C210D4ED64
:1048E000241A31EEA01AB4EEC01AF1EE10FA02D278
:1048F00084ED241A0BE071EEE00AF4EEC00AF1EE4A
:1049000010FA02DDC4ED240A01E084ED240AD4ED9E
:10491000210A204A10EE900A904205DA9FED1E1AF5
:1049200070EE810AC4ED210A10EE900A904203DD78
:10493000DFED1A0AC4ED210AA088A086E186C4ED45
:10494000110ADFED170A9FED171AC4ED120A84ED64
:10495000320A84ED310AD4ED240A94ED020A60EEA5
:10496000810A94ED041A60EE200A94ED200A00EE0C
:10497000810A84ED100A70BD30690008000084428D
:104980000000A04300007043000070420BD7233C9E
:1049900000000000B81E053F6F12033BB81E053F24
:1049A000EC51383E35FA8E3C002824D0818881862F
:1049B00090F8D0200021FAB1134A9FED140A127A20
:1049C000E2B10121DFED120AC186C0ED110ADFED6F
:1049D000110AC0ED120A90F8C220002A0BD180ED16
:1049E000310A80ED320A80ED240A90ED200A80ED34
:1049F000100A80F8C2107047C1867047C18680EDEA
:104A0000110A80ED120A7047040000200000000027
:104A1000B81E053FEC51383E1CB5040037D0606924
:104A2000002834D0A169002931D0D4ED2E0A6A467D
:104A300030EE800A01F00AFC94ED2E0AD4E905015B
:104A400001AA01F003FC12496069884202D19FED7E
:104A5000110A08E00E498031884202D19FED0E0A0A
:104A600001E0B7EE000ADDEC020A0C4870EEC10A64
:104A700020EE200AD0ED100A204620EE200AFFF793
:104A8000FDFE9DEC020A30EE600A84ED320A1CBD88
:104A9000306900081F856B3F9A99593F0400002038
:104AA0002DE9F04FC0F3404BC0F3004290B08BEAC9
:104AB0000201C0F3C0335940C0F30035039169408F
:104AC000C0F3802A81EA0A01C0F3801981EA090152
:104AD000C0F3401C81EA0C0100F001046140CDE903
:104AE0000B19C0F3403883EA08016940C0F3C026BF
:104AF0007140C0F3C01781EA0A01794081EA0C01D4
:104B0000C0F3400E81EA0E016140C0F380340A9781
:104B100082EA04070E9187EA08076F40C0F300217C
:104B200077404F400D91DDF830908BEA030187EA22
:104B30000907C0F38009614087EA090781EA080193
:104B400087EA0E0E6940C0F3402B0A9F81EA0B01F1
:104B50007940C0F3C00569405A4081EA09076240C4
:104B600082EA08020D9982EA0A024A400399C0F3D8
:104B700000106140714081EA0B01424081EA0C0162
:104B80006A4041404801CDF8309040EA021040EAC6
:104B9000C7000E9940EA8E0040EA41000B9910B020
:104BA0000843BDE8F08F00002DE9F0410C000746F6
:104BB00028D0C7F3911606F00F0507F03F083046DE
:104BC000FFF76EFF310900EE101ADFED110A2760C2
:104BD000B8EE400AA18005F0030120EE200ADFEDC7
:104BE0000D0A20EE200A84ED020A2173C5F380012C
:104BF0006173E908A17384F80F802074804504D1A3
:104C0000012003E00020BDE8F08100206074FAE795
:104C10000000B4430000803808B50020009000BFB9
:104C2000401C00903028FAD308BD0000012210215A
:104C30000148FEF7DEBD0000001002400122042101
:104C40000148FEF7D6BD00000010024000220421FA
:104C50000148FEF7CEBD00000010024000221021E6
:104C60000148FEF7C6BD0000001002402DE9F041EA
:104C700006007DD00024FFF7E1FFFFF7CDFFFFF72F
:104C8000EDFFFFF7C9FF3D4D002700BFFFF7DEFF37
:104C9000FFF7C2FF640020212846FEF7A5FD01288A
:104CA00001D144F00104FFF7C9FFFFF7B5FF7F1CF6
:104CB000FFB2182FEAD3FFF7B9FFFFF7ADFF204689
:104CC0003146FFF771FF002851D10024FFF7B6FFEE
:104CD000FFF7A2FFFFF7C2FFFFF79EFF0027640068
:104CE00020212846FEF780FD012801D144F001046F
:104CF000FFF7ACFFFFF790FFFFF7A0FFFFF78CFF78
:104D00007F1CFFB2182FEAD3FFF790FFFFF784FF55
:104D100020463146FFF748FF48BB0024FFF78EFFCF
:104D2000FFF77AFFFFF79AFFFFF776FF5FF00007C4
:104D3000FFF78CFFFFF770FFFFF780FFFFF76CFFB7
:104D4000640020212846FEF74FFD012801D144F0E0
:104D500001047F1CFFB2182FEAD3FFF767FFFFF7AC
:104D60005BFF20463146FFF71FFF707C00B100E07B
:104D700002E00020BDE8F0810120FBE700100240C6
:104D80000F4810B50D4901600321416000214FF427
:104D9000E0228160C0E903124FF480024261017693
:104DA000012242768176C27601774177FEF769FA71
:104DB000002802D0FDF704FAFCE710BD00640040B3
:104DC000100100200F4810B50D490160032141601A
:104DD00000214FF4E0228160C0E903124FF4800209
:104DE00042610176012242768176C276017741776F
:104DF000FEF747FA002802D0FDF7E2F9FCE710BD04
:104E000000680040380100202DE9F04387B01421EC
:104E10006846FBF791FC2E480024016841F0100120
:104E20000160016801F010010591016841F0800105
:104E30000160016801F080010591016841F0010104
:104E40000160016801F001010591016841F0020172
:104E5000016000681F4F00F002000590012214213C
:104E60003846FEF7C6FCDFF8708001220321404679
:104E7000FEF7BFFCDFF86490002202214846FEF7EF
:104E8000B8FC142001250326CDE90005CDE9024632
:104E900069463846FEF7B0FB2020CDE9000469469C
:104EA00038460294FEF7A8FBCDE90065CDE902463D
:104EB00069464046FEF7A0FB02200090CDE9015470
:104EC000694648460394FEF797FB07B0BDE8F083B8
:104ED000303802400010024000000240000402404E
:104EE0000F4810B50D4901604FF4827141600021F7
:104EF0008160C1604FF400720161C0E9051238227F
:104F0000C0E90721416281620A21C162FEF7B6FF52
:104F1000002802D0FDF754F9FCE710BD0030014035
:104F200060010020FEE7FEE7034800218170C170A8
:104F300001714171C16270470400002005498A7EF9
:104F40002AB1C969401A642801D80120704700209D
:104F500070470000900900202DE9F04F744A2DEDB4
:104F6000048B83B0518800EE101AB8EE400A8DED24
:104F7000000A918800EE901AF8EE600ACDED010A61
:104F8000D188002700EE901AF8EE600ACDED020AF3
:104F9000937E6949674EDFED698A01F10C051BB10B
:104FA000D269801A64281AD9C6ED0A8A00209FEDBA
:104FB000640A00BF01EB8002D2ED000A60EE800AB5
:104FC000C2ED000A05EB8002401CC0B2C2ED008AAF
:104FD0000328EFD303B0BDEC048BBDE8F08F564A35
:104FE000B0790C3AEC4602F13C03D0B10024E34620
:104FF00090468A4699469FED539A00BF0BEB84007A
:1050000008EB8401D0ED000A91ED001AF079B27836
:1050100030EEC10A10437279F0EEC01A10432AD064
:105020003CE0454C0020F3EE090A2434B2EE081AA5
:105030000CEB8007D7ED001A02EB8007C7ED001AD2
:1050400001EB8007C7ED008A05EB8007C7ED008AFA
:1050500004EB8007C7ED000A03EB8007401CC0B2D9
:1050600087ED001A0328E3D386ED090AC6ED0A8A04
:105070000120B071AEE709EB840090ED002AB4EE98
:10508000E12AF1EE10FA09DDDFED2F1A00EE211A08
:1050900081ED001A30EEC10AF0EEC01A0AEB84006E
:1050A00090ED000AB4EEE10AF1EE10FA02D2DFED63
:1050B000270A01E0DFED260A31EEC01A00EE810A70
:1050C00080ED000A09EB8400D0ED000A30EE608A22
:1050D000B5EEC08AF1EE10FA01D2B0EE688AB7EEF2
:1050E000001A88EE090AF0EE680A01F030F805EBC4
:1050F000840080ED000A05EB8700D0ED000AB4EED5
:10510000E00AF1EE10FA00DD2746641CE4B2032C3D
:10511000FFF474AF05EB870090ED000A08EB870001
:1051200086ED0A0A90ED000A86ED090A52E70000B2
:1051300090090020040000209C02002000000000D4
:1051400085EB513F0000964317B7513ACDCC4C3F09
:10515000CDCCCC3D2DE9F0472D4C00252DED028B1B
:105160000646A572C4E91505E56525669FED298A01
:105170002948656484ED198A84ED128AA57184ED4D
:10518000098A84ED0A8A294600F10C0200F118030D
:1051900000F12407B3EE090A00F1300CF2EE080A20
:1051A00000F13C0900EB810888ED008A02EB8108E0
:1051B00088ED008A03EB810888ED008A07EB8108FF
:1051C00088ED008A0CEB810888ED000A09EB810864
:1051D000491CC9B2C8ED000A0329E3D3FFF7A4FEB6
:1051E000E57184ED0C8A84ED0D8A06F59666A6635A
:1051F000257284ED108A84ED0F8A84ED138AA581CF
:10520000012025656072BDEC028BBDE8F0870000CF
:105210000400002000000000900200202DE9F04F63
:105220007D4E05462DED028B83B0708800EE100A8E
:10523000B8EE400A8DED000AB08800EE100AB8EE14
:10524000400A8DED010AF088744C00EE100AB8EEA9
:10525000400A8DED020A606D10B92846FFF77AFF0B
:105260002846FFF76BFE00287ED0F069E16D88428A
:105270007BD0F169B1464FF0010AE16584F809A0DD
:10528000B6F90C10226E8F182766B6F90A00616C09
:10529000E84646186664A16D6148491C002200F189
:1052A000240BA16508EB820301EE901AD3ED000AEE
:1052B00000EB8203B8EE612A93ED001A0BEB820C2F
:1052C000521C30EEC10AD2B2032AC0EE021A31EEED
:1052D000811A83ED001A30EEC11ADCED000A40EEAF
:1052E000010ACCED000ADDD384F806A0D0ED000A57
:1052F000D046C4ED090A90ED010AB4EEE00AF1EEE1
:1053000010FA01DD84ED090A90ED020AD4ED090AD4
:10531000B4EEE00AF1EE10FA01DD84ED090A606DE9
:10532000281AB0F57A7F74D3142972D300EE107A5C
:105330003B4FB1EE088AF8EEC00A00EE101AB8EE44
:10534000400A80EE801A00EE106A00263037F8EE30
:10535000C00A00EE101AB8EE400A84ED191A80EE69
:10536000801A84ED121A01E051E052E0F0EE088A52
:1053700007F10C0A0BEB8600D0ED000AA06D401E71
:1053800000EE100AB8EE401A80EE810A00F034FDFB
:1053900060EE080A07EB8601224A10EE900AC1ED82
:1053A000000A904203DAF3EE090AC1ED000A20EE8A
:1053B000280A0AEB86011C4A10EE100A81ED000A49
:1053C000904203DAB2EE080A81ED000A761CF6B2CA
:1053D000032ECFD39FED150A84ED130AB9F8080008
:1053E000A08184F80A80022060720026E67184EDB4
:1053F0000C0A84ED0D0AFFF797FD05F59665A56388
:105400002672012003B0BDEC028BBDE8F08F0520B1
:1054100060720020F6E700009009002004000020E0
:10542000900200200000C841000040410000000040
:105430001CB5002000900190FEF7E0F90446082218
:105440006946102000F068FD0449087004480168AE
:10545000491C0160034804601CBD0000D40000200A
:10546000D0000020FC0000202DE9F04706462DED7D
:10547000048B4FF000090127FFF760FD9FED958A2F
:10548000954C0025C8B3A07A0028304640D0FFF7DD
:1054900063FDDFF84882B8F90C00D4ED190A00EE7C
:1054A000100A8F49B8EEC00A30EE600AB0EEC00AAA
:1054B00010EE100A884201DD9FED8A0ABDEEC00A97
:1054C00010EE100A00B200EE100AF8EEC08A9FED4E
:1054D000860A78EEC00A9FED851A80EE810AB7EE43
:1054E000001AF0EE480A00F032FEB8F81210B0EEE2
:1054F000409A4046C90713D10DE0FFE705206072CE
:10550000E57184ED0C8A84ED0D8AFFF70DFDDEE078
:10551000FFF784FEDBE018EE901A754A914200DB3B
:105520002665216D21B1711A502901D8012100E0B1
:1055300000218846817E19B1C169701A642802D998
:10554000F0EE488A01E0D4ED0A8AA06B301A07D544
:10555000FFF7EAFCE57184ED0C8A84ED0D8AB4E076
:10556000644A0020A2F1240101F1300301EB800C18
:105570009CED000A02EB800CDCED000AB4EEE00AC0
:10558000F1EE10FA01DB4FF0010903EB800CDCEDCA
:10559000000AB4EEE00AF1EE10FA00DD0027401C2C
:1055A000C0B20328E2D360794FF0010A68B11FB19D
:1055B0002079401CC0B200E000202071142801D3E3
:1055C000FFF7B2FCA078E8B91AE0A07820B18FB15B
:1055D0002079401CC0B20EE05FEA090002D0E078FA
:1055E000401CC0B2E07003280AD384F802A0E6622F
:1055F000E57007E000202071142803D3A570257101
:10560000F0EE488AA07830B118EE901A3A4A9142EA
:1056100001DADFED3A8AD4ED0D0AF4EEE80AF1EE94
:1056200010FA38EEE00A02D29FED351A01E09FED44
:10563000351A40EE010AC4ED0D0A617A032906D03D
:10564000B8B3B8F1000F29D084F808A002E050EAFE
:10565000080033D0B0EE600ADFED2B0A2C4960EE73
:10566000200A9FED2A0A49EE000AB0EE600A10EE09
:10567000100A884201DA9FED270AB7EE001AF0EE11
:10568000480A00F064FD84ED0C0A84F807A00320AA
:1056900060720120BDEC048BBDE8F087E06A301A2F
:1056A000B0F5967F06D806206072E57184ED0C8A0D
:1056B0000DE003E0A57084F805A02571E57184ED87
:1056C0000C8A207A08B1042000E0022060720020D9
:1056D000E0E7000000000000040000209009002026
:1056E00000FEFF4600FEFF460000A04300001646F5
:1056F0000000A043C00200207B142E3E7B142E3EEF
:10570000CDCC4C3F295C8F3E6666663FCDCCCC3D10
:105710003333B33E3333B33E704700002DE9FC41D1
:1057200006004FF000000D46ADF8040055D0002DE6
:1057300053D0304600F0C2FF294C6FF00F072068AD
:105740000760206800E041680168C9438906FAD50E
:1057500001684068DFF88C800090012202214046F9
:10576000FEF747F80323112231461D48FEF7F6FEE7
:10577000FEF744F806460CE0FEF740F8801B0328CD
:1057800007D9002202214046FEF733F80320BDE886
:10579000FC8120680068C0434006EDD4002202214D
:1057A0004046FEF726F8206807602068406803201E
:1057B000009001AB102229460948FEF7B0FD0028F1
:1057C000E5D1BDF80400102807D1284600F0E2FC1E
:1057D00018B1102028610020D9E70120D7E7000088
:1057E000B801002000040240F8B515460E460B46ED
:1057F000009204460122022100F02CF8A0B91348BF
:1058000013490068B0FBF1F04FF47A7148430090FF
:105810006068B0F5827F0DD133460022802120469A
:10582000009500F017F870B1606D40F020006065E1
:105830000320F8BD009830B1401E009020688068B9
:10584000C0430006F6D50020F8BD00000C01002082
:1058500000366E012DE9F8431E46914688460446FF
:10586000089DFDF7CBFF401B351AFDF7C7FF074624
:1058700026480068C0F3CB3068430AE0701C09D0AA
:10588000FDF7BCFFC01BA8420FD275B10098B8B39A
:10589000401E00902068816838EA010033D0002162
:1058A0004945EBD10020BDE8F8832068416821F02C
:1058B000E00141606068B0F5827F0BD1A068B0F56F
:1058C000004F02D0B0F5806F04D12068016821F04C
:1058D00040010160A06AB0F5005F09D1206801684D
:1058E00021F4005101602068016841F40051016019
:1058F000012084F85100002084F850000320D2E7F2
:10590000FFE70025C6E70121CAE700000C010020DF
:105910007047FDF779BF000030B593B0302168467D
:10592000FAF70AFF14210CA8FAF706FF2048002511
:10593000016841F080510160006800F080501190D2
:105940001C48016841F4804101600068022400F4B1
:105950008040119001200090000401908001CDE969
:105960000640082008904FF4A870CDE909040420EF
:105970000B906846FEF7CCF818B100BFFCF720FC8E
:10598000FCE70CA90F2081E831004FF4A0500F90E4
:105990004FF48050109005210CA8FDF7CFFF002890
:1059A00003D000BFFCF70CFCFCE713B030BD0000D7
:1059B00040380240007000400248016841F4700124
:1059C0000160704788ED00E001680C3151E8002F5C
:1059D00022F4907241E80023002BF5D101681431C4
:1059E00051E8002F22F0010241E80023002BF5D1FD
:1059F000016B012909D101680C3151E8002F22F017
:105A0000100241E80023002BF5D1202180F842103C
:105A1000002101637047000070B504460068016909
:105A2000E26821F44051114301612169A068E269F3
:105A300008436169114308432168CA6849F20C634D
:105A40009A430243CA6020684169A26921F4407107
:105A50001143416131492068884202D0304988426F
:105A600002D1FEF715F801E0FEF702F8E269002323
:105A7000192164253226B2F5004F626828D0A0FBB8
:105A80000101930F9200FAF745FC0146B0FBF5F0D7
:105A90006FF01802504301EB800006EB0010B0FBE2
:105AA000F5F000F0F002B1FBF5F002EB0012B1FBF3
:105AB000F5F06FF01803584301EB800006EB00107F
:105AC000B0FBF5F000F00F0021681044886070BD55
:105AD000A0FB010192185B41FAF71CFC0146B0FBE8
